{
  "abi": [
    {
      "inputs": [],
      "name": "BASE",
      "outputs": [
        {
          "internalType": "uint256",
          "name": "",
          "type": "uint256"
        }
      ],
      "stateMutability": "view",
      "type": "function"
    },
    {
      "inputs": [],
      "name": "DOMAIN_SEPARATOR",
      "outputs": [
        {
          "internalType": "bytes32",
          "name": "",
          "type": "bytes32"
        }
      ],
      "stateMutability": "view",
      "type": "function"
    },
    {
      "inputs": [],
      "name": "DOMAIN_TYPEHASH",
      "outputs": [
        {
          "internalType": "bytes32",
          "name": "",
          "type": "bytes32"
        }
      ],
      "stateMutability": "view",
      "type": "function"
    },
    {
      "inputs": [],
      "name": "PERMIT_TYPEHASH",
      "outputs": [
        {
          "internalType": "bytes32",
          "name": "",
          "type": "bytes32"
        }
      ],
      "stateMutability": "view",
      "type": "function"
    },
    {
      "inputs": [],
      "name": "burner",
      "outputs": [
        {
          "internalType": "address",
          "name": "",
          "type": "address"
        }
      ],
      "stateMutability": "view",
      "type": "function"
    },
    {
      "inputs": [],
      "name": "decimals",
      "outputs": [
        {
          "internalType": "uint8",
          "name": "",
          "type": "uint8"
        }
      ],
      "stateMutability": "view",
      "type": "function"
    },
    {
      "inputs": [],
      "name": "frozen",
      "outputs": [
        {
          "internalType": "bool",
          "name": "",
          "type": "bool"
        }
      ],
      "stateMutability": "view",
      "type": "function"
    },
    {
      "inputs": [],
      "name": "gov",
      "outputs": [
        {
          "internalType": "address",
          "name": "",
          "type": "address"
        }
      ],
      "stateMutability": "view",
      "type": "function"
    },
    {
      "inputs": [],
      "name": "initSupply",
      "outputs": [
        {
          "internalType": "uint256",
          "name": "",
          "type": "uint256"
        }
      ],
      "stateMutability": "view",
      "type": "function"
    },
    {
      "inputs": [],
      "name": "internalDecimals",
      "outputs": [
        {
          "internalType": "uint256",
          "name": "",
          "type": "uint256"
        }
      ],
      "stateMutability": "view",
      "type": "function"
    },
    {
      "inputs": [],
      "name": "minter",
      "outputs": [
        {
          "internalType": "address",
          "name": "",
          "type": "address"
        }
      ],
      "stateMutability": "view",
      "type": "function"
    },
    {
      "inputs": [],
      "name": "name",
      "outputs": [
        {
          "internalType": "string",
          "name": "",
          "type": "string"
        }
      ],
      "stateMutability": "view",
      "type": "function"
    },
    {
      "inputs": [
        {
          "internalType": "address",
          "name": "",
          "type": "address"
        }
      ],
      "name": "nonces",
      "outputs": [
        {
          "internalType": "uint256",
          "name": "",
          "type": "uint256"
        }
      ],
      "stateMutability": "view",
      "type": "function"
    },
    {
      "inputs": [],
      "name": "pendingGov",
      "outputs": [
        {
          "internalType": "address",
          "name": "",
          "type": "address"
        }
      ],
      "stateMutability": "view",
      "type": "function"
    },
    {
      "inputs": [],
      "name": "rebaser",
      "outputs": [
        {
          "internalType": "address",
          "name": "",
          "type": "address"
        }
      ],
      "stateMutability": "view",
      "type": "function"
    },
    {
      "inputs": [],
      "name": "symbol",
      "outputs": [
        {
          "internalType": "string",
          "name": "",
          "type": "string"
        }
      ],
      "stateMutability": "view",
      "type": "function"
    },
    {
      "inputs": [],
      "name": "totalSupply",
      "outputs": [
        {
          "internalType": "uint256",
          "name": "",
          "type": "uint256"
        }
      ],
      "stateMutability": "view",
      "type": "function"
    },
    {
      "inputs": [],
      "name": "yamsScalingFactor",
      "outputs": [
        {
          "internalType": "uint256",
          "name": "",
          "type": "uint256"
        }
      ],
      "stateMutability": "view",
      "type": "function"
    }
  ],
  "bytecode": {
    "object": "0x6080604052670de0b6b3a7640000600a5534801561001c57600080fd5b506104468061002c6000396000f3fe608060405234801561001057600080fd5b50600436106101165760003560e01c806330adf81f116100a25780637ecebe00116100715780637ecebe001461026c57806395d89b411461028c57806397d63f9314610294578063b6fa85761461029d578063ec342ad0146102a657600080fd5b806330adf81f1461020c578063313ce567146102335780633644e5151461025257806364dd48f51461025b57600080fd5b806312d43a51116100e957806312d43a511461019057806318160ddd146101a857806320606b70146101bf57806325240810146101e657806327810b6e146101f957600080fd5b8063054f7d9c1461011b57806306fdde031461013d578063075461721461015257806311fd8a831461017d575b600080fd5b600e546101289060ff1681565b60405190151581526020015b60405180910390f35b6101456102b5565b6040516101349190610380565b600854610165906001600160a01b031681565b6040516001600160a01b039091168152602001610134565b600654610165906001600160a01b031681565b6004546101659061010090046001600160a01b031681565b6101b160095481565b604051908152602001610134565b6101b17f8cad95687ba82c2ce50e74f7b754645e5117c3a5bec8151c0726d5857980a86681565b600554610165906001600160a01b031681565b600754610165906001600160a01b031681565b6101b17f6e71edae12b1b97f4d1f60370fef10105fa2faae0126114a169c64845d6126c981565b6004546102409060ff1681565b60405160ff9091168152602001610134565b6101b1600f5481565b6101b169d3c21bcecceda100000081565b6101b161027a366004610350565b60006020819052908152604090205481565b610145610343565b6101b1600d5481565b6101b1600a5481565b6101b1670de0b6b3a764000081565b600280546102c2906103d5565b80601f01602080910402602001604051908101604052809291908181526020018280546102ee906103d5565b801561033b5780601f106103105761010080835404028352916020019161033b565b820191906000526020600020905b81548152906001019060200180831161031e57829003601f168201915b505050505081565b600380546102c2906103d5565b60006020828403121561036257600080fd5b81356001600160a01b038116811461037957600080fd5b9392505050565b600060208083528351808285015260005b818110156103ad57858101830151858201604001528201610391565b818111156103bf576000604083870101525b50601f01601f1916929092016040019392505050565b600181811c908216806103e957607f821691505b6020821081141561040a57634e487b7160e01b600052602260045260246000fd5b5091905056fea264697066735822122002632b976b524dcabadd12792cec3524c6da626d0196da615594fe74858242f464736f6c63430008070033",
    "linkReferences": {}
  },
  "methodIdentifiers": {
    "BASE()": "ec342ad0",
    "DOMAIN_SEPARATOR()": "3644e515",
    "DOMAIN_TYPEHASH()": "20606b70",
    "PERMIT_TYPEHASH()": "30adf81f",
    "burner()": "27810b6e",
    "decimals()": "313ce567",
    "frozen()": "054f7d9c",
    "gov()": "12d43a51",
    "initSupply()": "97d63f93",
    "internalDecimals()": "64dd48f5",
    "minter()": "07546172",
    "name()": "06fdde03",
    "nonces(address)": "7ecebe00",
    "pendingGov()": "25240810",
    "rebaser()": "11fd8a83",
    "symbol()": "95d89b41",
    "totalSupply()": "18160ddd",
    "yamsScalingFactor()": "b6fa8576"
  },
  "id": 54
}