{
  "abi": [
    {
      "anonymous": false,
      "inputs": [
        {
          "indexed": true,
          "internalType": "address",
          "name": "owner",
          "type": "address"
        },
        {
          "indexed": true,
          "internalType": "address",
          "name": "spender",
          "type": "address"
        },
        {
          "indexed": false,
          "internalType": "uint256",
          "name": "value",
          "type": "uint256"
        }
      ],
      "name": "Approval",
      "type": "event"
    },
    {
      "anonymous": false,
      "inputs": [
        {
          "indexed": false,
          "internalType": "uint8",
          "name": "version",
          "type": "uint8"
        }
      ],
      "name": "Initialized",
      "type": "event"
    },
    {
      "anonymous": false,
      "inputs": [
        {
          "indexed": true,
          "internalType": "address",
          "name": "previousOwner",
          "type": "address"
        },
        {
          "indexed": true,
          "internalType": "address",
          "name": "newOwner",
          "type": "address"
        }
      ],
      "name": "OwnershipTransferred",
      "type": "event"
    },
    {
      "anonymous": false,
      "inputs": [
        {
          "indexed": true,
          "internalType": "address",
          "name": "from",
          "type": "address"
        },
        {
          "indexed": true,
          "internalType": "address",
          "name": "to",
          "type": "address"
        },
        {
          "indexed": false,
          "internalType": "uint256",
          "name": "value",
          "type": "uint256"
        }
      ],
      "name": "Transfer",
      "type": "event"
    },
    {
      "inputs": [],
      "name": "DOMAIN_SEPARATOR",
      "outputs": [
        {
          "internalType": "bytes32",
          "name": "",
          "type": "bytes32"
        }
      ],
      "stateMutability": "view",
      "type": "function"
    },
    {
      "inputs": [
        {
          "internalType": "address",
          "name": "owner",
          "type": "address"
        },
        {
          "internalType": "address",
          "name": "spender",
          "type": "address"
        }
      ],
      "name": "allowance",
      "outputs": [
        {
          "internalType": "uint256",
          "name": "",
          "type": "uint256"
        }
      ],
      "stateMutability": "view",
      "type": "function"
    },
    {
      "inputs": [
        {
          "internalType": "address",
          "name": "spender",
          "type": "address"
        },
        {
          "internalType": "uint256",
          "name": "amount",
          "type": "uint256"
        }
      ],
      "name": "approve",
      "outputs": [
        {
          "internalType": "bool",
          "name": "",
          "type": "bool"
        }
      ],
      "stateMutability": "nonpayable",
      "type": "function"
    },
    {
      "inputs": [
        {
          "internalType": "address",
          "name": "account",
          "type": "address"
        }
      ],
      "name": "balanceOf",
      "outputs": [
        {
          "internalType": "uint256",
          "name": "",
          "type": "uint256"
        }
      ],
      "stateMutability": "view",
      "type": "function"
    },
    {
      "inputs": [
        {
          "internalType": "uint256",
          "name": "amount",
          "type": "uint256"
        }
      ],
      "name": "burn",
      "outputs": [],
      "stateMutability": "nonpayable",
      "type": "function"
    },
    {
      "inputs": [
        {
          "internalType": "address",
          "name": "account",
          "type": "address"
        },
        {
          "internalType": "uint256",
          "name": "amount",
          "type": "uint256"
        }
      ],
      "name": "burnFrom",
      "outputs": [],
      "stateMutability": "nonpayable",
      "type": "function"
    },
    {
      "inputs": [],
      "name": "decimals",
      "outputs": [
        {
          "internalType": "uint8",
          "name": "",
          "type": "uint8"
        }
      ],
      "stateMutability": "view",
      "type": "function"
    },
    {
      "inputs": [
        {
          "internalType": "address",
          "name": "spender",
          "type": "address"
        },
        {
          "internalType": "uint256",
          "name": "subtractedValue",
          "type": "uint256"
        }
      ],
      "name": "decreaseAllowance",
      "outputs": [
        {
          "internalType": "bool",
          "name": "",
          "type": "bool"
        }
      ],
      "stateMutability": "nonpayable",
      "type": "function"
    },
    {
      "inputs": [
        {
          "internalType": "address",
          "name": "spender",
          "type": "address"
        },
        {
          "internalType": "uint256",
          "name": "addedValue",
          "type": "uint256"
        }
      ],
      "name": "increaseAllowance",
      "outputs": [
        {
          "internalType": "bool",
          "name": "",
          "type": "bool"
        }
      ],
      "stateMutability": "nonpayable",
      "type": "function"
    },
    {
      "inputs": [
        {
          "internalType": "string",
          "name": "name",
          "type": "string"
        },
        {
          "internalType": "string",
          "name": "symbol",
          "type": "string"
        }
      ],
      "name": "initialize",
      "outputs": [
        {
          "internalType": "bool",
          "name": "",
          "type": "bool"
        }
      ],
      "stateMutability": "nonpayable",
      "type": "function"
    },
    {
      "inputs": [
        {
          "internalType": "address",
          "name": "recipient",
          "type": "address"
        },
        {
          "internalType": "uint256",
          "name": "amount",
          "type": "uint256"
        }
      ],
      "name": "mint",
      "outputs": [],
      "stateMutability": "nonpayable",
      "type": "function"
    },
    {
      "inputs": [],
      "name": "name",
      "outputs": [
        {
          "internalType": "string",
          "name": "",
          "type": "string"
        }
      ],
      "stateMutability": "view",
      "type": "function"
    },
    {
      "inputs": [
        {
          "internalType": "address",
          "name": "owner",
          "type": "address"
        }
      ],
      "name": "nonces",
      "outputs": [
        {
          "internalType": "uint256",
          "name": "",
          "type": "uint256"
        }
      ],
      "stateMutability": "view",
      "type": "function"
    },
    {
      "inputs": [],
      "name": "owner",
      "outputs": [
        {
          "internalType": "address",
          "name": "",
          "type": "address"
        }
      ],
      "stateMutability": "view",
      "type": "function"
    },
    {
      "inputs": [
        {
          "internalType": "address",
          "name": "owner",
          "type": "address"
        },
        {
          "internalType": "address",
          "name": "spender",
          "type": "address"
        },
        {
          "internalType": "uint256",
          "name": "value",
          "type": "uint256"
        },
        {
          "internalType": "uint256",
          "name": "deadline",
          "type": "uint256"
        },
        {
          "internalType": "uint8",
          "name": "v",
          "type": "uint8"
        },
        {
          "internalType": "bytes32",
          "name": "r",
          "type": "bytes32"
        },
        {
          "internalType": "bytes32",
          "name": "s",
          "type": "bytes32"
        }
      ],
      "name": "permit",
      "outputs": [],
      "stateMutability": "nonpayable",
      "type": "function"
    },
    {
      "inputs": [],
      "name": "renounceOwnership",
      "outputs": [],
      "stateMutability": "nonpayable",
      "type": "function"
    },
    {
      "inputs": [],
      "name": "symbol",
      "outputs": [
        {
          "internalType": "string",
          "name": "",
          "type": "string"
        }
      ],
      "stateMutability": "view",
      "type": "function"
    },
    {
      "inputs": [],
      "name": "totalSupply",
      "outputs": [
        {
          "internalType": "uint256",
          "name": "",
          "type": "uint256"
        }
      ],
      "stateMutability": "view",
      "type": "function"
    },
    {
      "inputs": [
        {
          "internalType": "address",
          "name": "to",
          "type": "address"
        },
        {
          "internalType": "uint256",
          "name": "amount",
          "type": "uint256"
        }
      ],
      "name": "transfer",
      "outputs": [
        {
          "internalType": "bool",
          "name": "",
          "type": "bool"
        }
      ],
      "stateMutability": "nonpayable",
      "type": "function"
    },
    {
      "inputs": [
        {
          "internalType": "address",
          "name": "from",
          "type": "address"
        },
        {
          "internalType": "address",
          "name": "to",
          "type": "address"
        },
        {
          "internalType": "uint256",
          "name": "amount",
          "type": "uint256"
        }
      ],
      "name": "transferFrom",
      "outputs": [
        {
          "internalType": "bool",
          "name": "",
          "type": "bool"
        }
      ],
      "stateMutability": "nonpayable",
      "type": "function"
    },
    {
      "inputs": [
        {
          "internalType": "address",
          "name": "newOwner",
          "type": "address"
        }
      ],
      "name": "transferOwnership",
      "outputs": [],
      "stateMutability": "nonpayable",
      "type": "function"
    }
  ],
  "bytecode": {
    "object": "0x608060405234801561001057600080fd5b506116f1806100206000396000f3fe608060405234801561001057600080fd5b50600436106101375760003560e01c806370a08231116100b857806395d89b411161007c57806395d89b4114610279578063a457c2d714610281578063a9059cbb14610294578063d505accf146102a7578063dd62ed3e146102ba578063f2fde38b146102cd57600080fd5b806370a0823114610207578063715018a61461023057806379cc6790146102385780637ecebe001461024b5780638da5cb5b1461025e57600080fd5b80633644e515116100ff5780633644e515146101b157806339509351146101b957806340c10f19146101cc57806342966c68146101e15780634cd88b76146101f457600080fd5b806306fdde031461013c578063095ea7b31461015a57806318160ddd1461017d57806323b872dd1461018f578063313ce567146101a2575b600080fd5b6101446102e0565b6040516101519190611594565b60405180910390f35b61016d6101683660046114ed565b610372565b6040519015158152602001610151565b6067545b604051908152602001610151565b61016d61019d36600461143e565b61038a565b60405160128152602001610151565b6101816103ae565b61016d6101c73660046114ed565b6103bd565b6101df6101da3660046114ed565b6103df565b005b6101df6101ef36600461157b565b610440565b61016d610202366004611517565b61044d565b6101816102153660046113e9565b6001600160a01b031660009081526065602052604090205490565b6101df6105a5565b6101df6102463660046114ed565b6105b9565b6101816102593660046113e9565b6105ce565b6033546040516001600160a01b039091168152602001610151565b6101446105ee565b61016d61028f3660046114ed565b6105fd565b61016d6102a23660046114ed565b610678565b6101df6102b536600461147a565b610686565b6101816102c836600461140b565b6107ea565b6101df6102db3660046113e9565b610815565b6060606880546102ef9061165a565b80601f016020809104026020016040519081016040528092919081815260200182805461031b9061165a565b80156103685780601f1061033d57610100808354040283529160200191610368565b820191906000526020600020905b81548152906001019060200180831161034b57829003601f168201915b5050505050905090565b60003361038081858561088b565b5060019392505050565b6000336103988582856109b0565b6103a3858585610a2a565b506001949350505050565b60006103b8610bd5565b905090565b6000336103808185856103d083836107ea565b6103da9190611634565b61088b565b6103e7610c50565b806104325760405162461bcd60e51b815260206004820152601660248201527504c50546f6b656e3a2063616e6e6f74206d696e7420360541b60448201526064015b60405180910390fd5b61043c8282610caa565b5050565b61044a3382610d6b565b50565b60008054610100900460ff161580801561046e5750600054600160ff909116105b806104885750303b158015610488575060005460ff166001145b6104eb5760405162461bcd60e51b815260206004820152602e60248201527f496e697469616c697a61626c653a20636f6e747261637420697320616c72656160448201526d191e481a5b9a5d1a585b1a5e995960921b6064820152608401610429565b6000805460ff19166001179055801561050e576000805461ff0019166101001790555b610516610e9c565b6105208484610ec3565b61054384604051806040016040528060018152602001603160f81b815250610f11565b61054c84610f52565b610554610f79565b60019150801561059e576000805461ff0019169055604051600181527f7f26b83ff96e1f2b6a682f133852f6798a09c465da95921460cefb38474024989060200160405180910390a15b5092915050565b6105ad610c50565b6105b76000610fa5565b565b6105c48233836109b0565b61043c8282610d6b565b6001600160a01b038116600090815260fd60205260408120545b92915050565b6060606980546102ef9061165a565b6000338161060b82866107ea565b90508381101561066b5760405162461bcd60e51b815260206004820152602560248201527f45524332303a2064656372656173656420616c6c6f77616e63652062656c6f77604482015264207a65726f60d81b6064820152608401610429565b6103a3828686840361088b565b600033610380818585610a2a565b834211156106d65760405162461bcd60e51b815260206004820152601d60248201527f45524332305065726d69743a206578706972656420646561646c696e650000006044820152606401610429565b60007f6e71edae12b1b97f4d1f60370fef10105fa2faae0126114a169c64845d6126c98888886107058c610ff7565b6040805160208101969096526001600160a01b0394851690860152929091166060840152608083015260a082015260c0810186905260e00160405160208183030381529060405280519060200120905060006107608261101f565b905060006107708287878761106d565b9050896001600160a01b0316816001600160a01b0316146107d35760405162461bcd60e51b815260206004820152601e60248201527f45524332305065726d69743a20696e76616c6964207369676e617475726500006044820152606401610429565b6107de8a8a8a61088b565b50505050505050505050565b6001600160a01b03918216600090815260666020908152604080832093909416825291909152205490565b61081d610c50565b6001600160a01b0381166108825760405162461bcd60e51b815260206004820152602660248201527f4f776e61626c653a206e6577206f776e657220697320746865207a65726f206160448201526564647265737360d01b6064820152608401610429565b61044a81610fa5565b6001600160a01b0383166108ed5760405162461bcd60e51b8152602060048201526024808201527f45524332303a20617070726f76652066726f6d20746865207a65726f206164646044820152637265737360e01b6064820152608401610429565b6001600160a01b03821661094e5760405162461bcd60e51b815260206004820152602260248201527f45524332303a20617070726f766520746f20746865207a65726f206164647265604482015261737360f01b6064820152608401610429565b6001600160a01b0383811660008181526066602090815260408083209487168084529482529182902085905590518481527f8c5be1e5ebec7d5bd14f71427d1e84f3dd0314c0f7b2291e5b200ac8c7c3b92591015b60405180910390a3505050565b60006109bc84846107ea565b90506000198114610a245781811015610a175760405162461bcd60e51b815260206004820152601d60248201527f45524332303a20696e73756666696369656e7420616c6c6f77616e63650000006044820152606401610429565b610a24848484840361088b565b50505050565b6001600160a01b038316610a8e5760405162461bcd60e51b815260206004820152602560248201527f45524332303a207472616e736665722066726f6d20746865207a65726f206164604482015264647265737360d81b6064820152608401610429565b6001600160a01b038216610af05760405162461bcd60e51b815260206004820152602360248201527f45524332303a207472616e7366657220746f20746865207a65726f206164647260448201526265737360e81b6064820152608401610429565b6001600160a01b03831660009081526065602052604090205481811015610b685760405162461bcd60e51b815260206004820152602660248201527f45524332303a207472616e7366657220616d6f756e7420657863656564732062604482015265616c616e636560d01b6064820152608401610429565b6001600160a01b0380851660008181526065602052604080822086860390559286168082529083902080548601905591517fddf252ad1be2c89b69c2b068fc378daa952ba7f163c4a11628f55a4df523b3ef90610bc89086815260200190565b60405180910390a3610a24565b60006103b87f8b73c3c69bb8fe3d512ecc4cf759cc79239f7b179b0ffacaa9a75d522b39400f610c0460c95490565b60ca546040805160208101859052908101839052606081018290524660808201523060a082015260009060c0016040516020818303038152906040528051906020012090509392505050565b6033546001600160a01b031633146105b75760405162461bcd60e51b815260206004820181905260248201527f4f776e61626c653a2063616c6c6572206973206e6f7420746865206f776e65726044820152606401610429565b6001600160a01b038216610d005760405162461bcd60e51b815260206004820152601f60248201527f45524332303a206d696e7420746f20746865207a65726f2061646472657373006044820152606401610429565b8060676000828254610d129190611634565b90915550506001600160a01b0382166000818152606560209081526040808320805486019055518481527fddf252ad1be2c89b69c2b068fc378daa952ba7f163c4a11628f55a4df523b3ef910160405180910390a35050565b6001600160a01b038216610dcb5760405162461bcd60e51b815260206004820152602160248201527f45524332303a206275726e2066726f6d20746865207a65726f206164647265736044820152607360f81b6064820152608401610429565b6001600160a01b03821660009081526065602052604090205481811015610e3f5760405162461bcd60e51b815260206004820152602260248201527f45524332303a206275726e20616d6f756e7420657863656564732062616c616e604482015261636560f01b6064820152608401610429565b6001600160a01b03831660008181526065602090815260408083208686039055606780548790039055518581529192917fddf252ad1be2c89b69c2b068fc378daa952ba7f163c4a11628f55a4df523b3ef91016109a3565b505050565b600054610100900460ff166105b75760405162461bcd60e51b8152600401610429906115e9565b600054610100900460ff16610eea5760405162461bcd60e51b8152600401610429906115e9565b8151610efd9060689060208501906112a7565b508051610e979060699060208401906112a7565b600054610100900460ff16610f385760405162461bcd60e51b8152600401610429906115e9565b81516020928301208151919092012060c99190915560ca55565b600054610100900460ff1661044a5760405162461bcd60e51b8152600401610429906115e9565b600054610100900460ff16610fa05760405162461bcd60e51b8152600401610429906115e9565b6105b7335b603380546001600160a01b038381166001600160a01b0319831681179093556040519116919082907f8be0079c531659141344cd1fd0a4f28419497f9722a3daafe3b4186f6b6457e090600090a35050565b6001600160a01b038116600090815260fd602052604090208054600181018255905b50919050565b60006105e861102c610bd5565b8360405161190160f01b6020820152602281018390526042810182905260009060620160405160208183030381529060405280519060200120905092915050565b600080600061107e87878787611095565b9150915061108b81611159565b5095945050505050565b6000807f7fffffffffffffffffffffffffffffff5d576e7357a4501ddfe92f46681b20a08311156110cc5750600090506003611150565b6040805160008082526020820180845289905260ff881692820192909252606081018690526080810185905260019060a0016020604051602081039080840390855afa158015611120573d6000803e3d6000fd5b5050604051601f1901519150506001600160a01b03811661114957600060019250925050611150565b9150600090505b94509492505050565b600081600481111561116d5761116d61168f565b14156111765750565b600181600481111561118a5761118a61168f565b14156111d85760405162461bcd60e51b815260206004820152601860248201527f45434453413a20696e76616c6964207369676e617475726500000000000000006044820152606401610429565b60028160048111156111ec576111ec61168f565b141561123a5760405162461bcd60e51b815260206004820152601f60248201527f45434453413a20696e76616c6964207369676e6174757265206c656e677468006044820152606401610429565b600381600481111561124e5761124e61168f565b141561044a5760405162461bcd60e51b815260206004820152602260248201527f45434453413a20696e76616c6964207369676e6174757265202773272076616c604482015261756560f01b6064820152608401610429565b8280546112b39061165a565b90600052602060002090601f0160209004810192826112d5576000855561131b565b82601f106112ee57805160ff191683800117855561131b565b8280016001018555821561131b579182015b8281111561131b578251825591602001919060010190611300565b5061132792915061132b565b5090565b5b80821115611327576000815560010161132c565b80356001600160a01b038116811461135757600080fd5b919050565b600082601f83011261136d57600080fd5b813567ffffffffffffffff80821115611388576113886116a5565b604051601f8301601f19908116603f011681019082821181831017156113b0576113b06116a5565b816040528381528660208588010111156113c957600080fd5b836020870160208301376000602085830101528094505050505092915050565b6000602082840312156113fb57600080fd5b61140482611340565b9392505050565b6000806040838503121561141e57600080fd5b61142783611340565b915061143560208401611340565b90509250929050565b60008060006060848603121561145357600080fd5b61145c84611340565b925061146a60208501611340565b9150604084013590509250925092565b600080600080600080600060e0888a03121561149557600080fd5b61149e88611340565b96506114ac60208901611340565b95506040880135945060608801359350608088013560ff811681146114d057600080fd5b9699959850939692959460a0840135945060c09093013592915050565b6000806040838503121561150057600080fd5b61150983611340565b946020939093013593505050565b6000806040838503121561152a57600080fd5b823567ffffffffffffffff8082111561154257600080fd5b61154e8683870161135c565b9350602085013591508082111561156457600080fd5b506115718582860161135c565b9150509250929050565b60006020828403121561158d57600080fd5b5035919050565b600060208083528351808285015260005b818110156115c1578581018301518582016040015282016115a5565b818111156115d3576000604083870101525b50601f01601f1916929092016040019392505050565b6020808252602b908201527f496e697469616c697a61626c653a20636f6e7472616374206973206e6f74206960408201526a6e697469616c697a696e6760a81b606082015260800190565b6000821982111561165557634e487b7160e01b600052601160045260246000fd5b500190565b600181811c9082168061166e57607f821691505b6020821081141561101957634e487b7160e01b600052602260045260246000fd5b634e487b7160e01b600052602160045260246000fd5b634e487b7160e01b600052604160045260246000fdfea26469706673582212200354ae2f0b1c93bad9cf5af8f0d4dd9aafc80ce2fdb0ec8932e04c9fd0de893064736f6c63430008070033",
    "linkReferences": {}
  },
  "methodIdentifiers": {
    "DOMAIN_SEPARATOR()": "3644e515",
    "allowance(address,address)": "dd62ed3e",
    "approve(address,uint256)": "095ea7b3",
    "balanceOf(address)": "70a08231",
    "burn(uint256)": "42966c68",
    "burnFrom(address,uint256)": "79cc6790",
    "decimals()": "313ce567",
    "decreaseAllowance(address,uint256)": "a457c2d7",
    "increaseAllowance(address,uint256)": "39509351",
    "initialize(string,string)": "4cd88b76",
    "mint(address,uint256)": "40c10f19",
    "name()": "06fdde03",
    "nonces(address)": "7ecebe00",
    "owner()": "8da5cb5b",
    "permit(address,address,uint256,uint256,uint8,bytes32,bytes32)": "d505accf",
    "renounceOwnership()": "715018a6",
    "symbol()": "95d89b41",
    "totalSupply()": "18160ddd",
    "transfer(address,uint256)": "a9059cbb",
    "transferFrom(address,address,uint256)": "23b872dd",
    "transferOwnership(address)": "f2fde38b"
  },
  "id": 46
}