{
  "abi": [
    {
      "inputs": [
        {
          "internalType": "address",
          "name": "stflip_",
          "type": "address"
        },
        {
          "internalType": "address",
          "name": "gov_",
          "type": "address"
        },
        {
          "internalType": "address",
          "name": "flip_",
          "type": "address"
        }
      ],
      "stateMutability": "nonpayable",
      "type": "constructor"
    },
    {
      "anonymous": false,
      "inputs": [
        {
          "indexed": false,
          "internalType": "uint256",
          "name": "amount",
          "type": "uint256"
        },
        {
          "indexed": false,
          "internalType": "uint256",
          "name": "burn_id",
          "type": "uint256"
        }
      ],
      "name": "Burn",
      "type": "event"
    },
    {
      "anonymous": false,
      "inputs": [
        {
          "indexed": false,
          "internalType": "address",
          "name": "oldGov",
          "type": "address"
        },
        {
          "indexed": false,
          "internalType": "address",
          "name": "newGov",
          "type": "address"
        }
      ],
      "name": "NewGov",
      "type": "event"
    },
    {
      "anonymous": false,
      "inputs": [
        {
          "indexed": false,
          "internalType": "address",
          "name": "oldPendingGov",
          "type": "address"
        },
        {
          "indexed": false,
          "internalType": "address",
          "name": "newPendingGov",
          "type": "address"
        }
      ],
      "name": "NewPendingGov",
      "type": "event"
    },
    {
      "inputs": [],
      "name": "_acceptGov",
      "outputs": [],
      "stateMutability": "nonpayable",
      "type": "function"
    },
    {
      "inputs": [
        {
          "internalType": "address",
          "name": "pendingGov_",
          "type": "address"
        }
      ],
      "name": "_setPendingGov",
      "outputs": [],
      "stateMutability": "nonpayable",
      "type": "function"
    },
    {
      "inputs": [],
      "name": "balance",
      "outputs": [
        {
          "internalType": "uint256",
          "name": "",
          "type": "uint256"
        }
      ],
      "stateMutability": "view",
      "type": "function"
    },
    {
      "inputs": [
        {
          "internalType": "address",
          "name": "to",
          "type": "address"
        },
        {
          "internalType": "uint256",
          "name": "amount",
          "type": "uint256"
        }
      ],
      "name": "burn",
      "outputs": [
        {
          "internalType": "uint256",
          "name": "",
          "type": "uint256"
        }
      ],
      "stateMutability": "nonpayable",
      "type": "function"
    },
    {
      "inputs": [
        {
          "internalType": "uint256",
          "name": "",
          "type": "uint256"
        }
      ],
      "name": "burns",
      "outputs": [
        {
          "internalType": "address",
          "name": "user",
          "type": "address"
        },
        {
          "internalType": "uint256",
          "name": "amount",
          "type": "uint256"
        },
        {
          "internalType": "bool",
          "name": "completed",
          "type": "bool"
        }
      ],
      "stateMutability": "view",
      "type": "function"
    },
    {
      "inputs": [
        {
          "internalType": "uint256",
          "name": "amount",
          "type": "uint256"
        }
      ],
      "name": "deposit",
      "outputs": [],
      "stateMutability": "nonpayable",
      "type": "function"
    },
    {
      "inputs": [
        {
          "internalType": "uint256",
          "name": "amount",
          "type": "uint256"
        },
        {
          "internalType": "address",
          "name": "token",
          "type": "address"
        }
      ],
      "name": "emergencyWithdraw",
      "outputs": [],
      "stateMutability": "nonpayable",
      "type": "function"
    },
    {
      "inputs": [],
      "name": "flip",
      "outputs": [
        {
          "internalType": "contract IERC20",
          "name": "",
          "type": "address"
        }
      ],
      "stateMutability": "view",
      "type": "function"
    },
    {
      "inputs": [],
      "name": "getAllBurns",
      "outputs": [
        {
          "components": [
            {
              "internalType": "address",
              "name": "user",
              "type": "address"
            },
            {
              "internalType": "uint256",
              "name": "amount",
              "type": "uint256"
            },
            {
              "internalType": "bool",
              "name": "completed",
              "type": "bool"
            }
          ],
          "internalType": "struct Burner.burn_[]",
          "name": "",
          "type": "tuple[]"
        }
      ],
      "stateMutability": "view",
      "type": "function"
    },
    {
      "inputs": [
        {
          "internalType": "address",
          "name": "account",
          "type": "address"
        }
      ],
      "name": "getBurns",
      "outputs": [
        {
          "components": [
            {
              "internalType": "address",
              "name": "user",
              "type": "address"
            },
            {
              "internalType": "uint256",
              "name": "amount",
              "type": "uint256"
            },
            {
              "internalType": "bool",
              "name": "completed",
              "type": "bool"
            }
          ],
          "internalType": "struct Burner.burn_[]",
          "name": "",
          "type": "tuple[]"
        },
        {
          "internalType": "uint256[]",
          "name": "",
          "type": "uint256[]"
        },
        {
          "internalType": "bool[]",
          "name": "",
          "type": "bool[]"
        }
      ],
      "stateMutability": "view",
      "type": "function"
    },
    {
      "inputs": [],
      "name": "gov",
      "outputs": [
        {
          "internalType": "address",
          "name": "",
          "type": "address"
        }
      ],
      "stateMutability": "view",
      "type": "function"
    },
    {
      "inputs": [
        {
          "internalType": "uint256",
          "name": "amount",
          "type": "uint256"
        }
      ],
      "name": "govWithdraw",
      "outputs": [],
      "stateMutability": "nonpayable",
      "type": "function"
    },
    {
      "inputs": [
        {
          "internalType": "contract Burner",
          "name": "burnerToImport",
          "type": "address"
        }
      ],
      "name": "importData",
      "outputs": [
        {
          "internalType": "bool",
          "name": "",
          "type": "bool"
        }
      ],
      "stateMutability": "nonpayable",
      "type": "function"
    },
    {
      "inputs": [],
      "name": "pendingGov",
      "outputs": [
        {
          "internalType": "address",
          "name": "",
          "type": "address"
        }
      ],
      "stateMutability": "view",
      "type": "function"
    },
    {
      "inputs": [
        {
          "internalType": "uint256",
          "name": "burn_id",
          "type": "uint256"
        }
      ],
      "name": "redeem",
      "outputs": [],
      "stateMutability": "nonpayable",
      "type": "function"
    },
    {
      "inputs": [
        {
          "internalType": "uint256",
          "name": "burn_id",
          "type": "uint256"
        }
      ],
      "name": "redeemable",
      "outputs": [
        {
          "internalType": "bool",
          "name": "",
          "type": "bool"
        }
      ],
      "stateMutability": "view",
      "type": "function"
    },
    {
      "inputs": [],
      "name": "reedemed",
      "outputs": [
        {
          "internalType": "uint256",
          "name": "",
          "type": "uint256"
        }
      ],
      "stateMutability": "view",
      "type": "function"
    },
    {
      "inputs": [],
      "name": "stflip",
      "outputs": [
        {
          "internalType": "contract stFlip",
          "name": "",
          "type": "address"
        }
      ],
      "stateMutability": "view",
      "type": "function"
    },
    {
      "inputs": [
        {
          "internalType": "uint256",
          "name": "a",
          "type": "uint256"
        },
        {
          "internalType": "uint256",
          "name": "b",
          "type": "uint256"
        }
      ],
      "name": "subtract",
      "outputs": [
        {
          "internalType": "uint256",
          "name": "",
          "type": "uint256"
        }
      ],
      "stateMutability": "pure",
      "type": "function"
    },
    {
      "inputs": [
        {
          "internalType": "uint256",
          "name": "",
          "type": "uint256"
        }
      ],
      "name": "sums",
      "outputs": [
        {
          "internalType": "uint256",
          "name": "",
          "type": "uint256"
        }
      ],
      "stateMutability": "view",
      "type": "function"
    },
    {
      "inputs": [],
      "name": "totalPendingBurns",
      "outputs": [
        {
          "internalType": "uint256",
          "name": "",
          "type": "uint256"
        }
      ],
      "stateMutability": "view",
      "type": "function"
    }
  ],
  "bytecode": {
    "object": "0x6080604052600060025560006003553480156200001b57600080fd5b5060405162001909380380620019098339810160408190526200003e916200018b565b600680546001600160a01b03199081166001600160a01b0395861617909155600080548216938516939093178355600780548216928516929092179091556040805160608101825283815260208101848152600192820183815260048054808601825590875292517f8a35acfbc15ff81a39ae7d344fd709f28e8600b4aa8c65c6b64bfe7fe36bd19b6003909402938401805490961697169690961790935591517f8a35acfbc15ff81a39ae7d344fd709f28e8600b4aa8c65c6b64bfe7fe36bd19c83015592517f8a35acfbc15ff81a39ae7d344fd709f28e8600b4aa8c65c6b64bfe7fe36bd19d909101805460ff191691151591909117905560058054928301815581527f036b6384b5eca791c62761152d0c79bb0604c104a5fb6f4eb0703f3154bb3db090910155620001d5565b80516001600160a01b03811681146200018657600080fd5b919050565b600080600060608486031215620001a157600080fd5b620001ac846200016e565b9250620001bc602085016200016e565b9150620001cc604085016200016e565b90509250925092565b61172480620001e56000396000f3fe608060405234801561001057600080fd5b50600436106101375760003560e01c806373f03dff116100b8578063b69ef8a81161007c578063b69ef8a8146102bc578063b6b55f25146102c5578063cde4efa9146102d8578063da88c1ee146102eb578063db006a75146102f4578063f025b2091461030757600080fd5b806373f03dff14610226578063825a926f146102395780639498d88b1461025c5780639dc29fac1461026f578063a86eb2921461028257600080fd5b806325240810116100ff57806325240810146101dd5780632f940c70146101f05780633ef5e445146102035780634bda2e20146102165780635fc631021461021e57600080fd5b8063039fa5de1461013c57806303b41f741461016757806307ceeee41461017c57806312d43a51146101915780631f564a45146101bc575b600080fd5b61014f61014a36600461131e565b61031a565b60405161015e9392919061155f565b60405180910390f35b61016f610582565b60405161015e919061154c565b61018f61018a36600461146c565b610609565b005b6000546101a4906001600160a01b031681565b6040516001600160a01b03909116815260200161015e565b6101cf6101ca36600461146c565b6106b8565b60405190815260200161015e565b6001546101a4906001600160a01b031681565b61018f6101fe36600461149e565b6106d9565b6101cf6102113660046114ce565b610775565b61018f610792565b6101cf610848565b61018f61023436600461131e565b61088b565b61024c61024736600461146c565b610903565b604051901515815260200161015e565b61024c61026a36600461131e565b61096d565b6101cf61027d36600461133b565b610baa565b61029561029036600461146c565b610e3f565b604080516001600160a01b039094168452602084019290925215159082015260600161015e565b6101cf60025481565b61018f6102d336600461146c565b610e7f565b6007546101a4906001600160a01b031681565b6101cf60035481565b61018f61030236600461146c565b610f17565b6006546101a4906001600160a01b031681565b6060806060600061032a8561117b565b90506000815167ffffffffffffffff811115610348576103486116c0565b60405190808252806020026020018201604052801561039357816020015b60408051606081018252600080825260208083018290529282015282526000199092019101816103665790505b5090506000825167ffffffffffffffff8111156103b2576103b26116c0565b6040519080825280602002602001820160405280156103db578160200160208202803683370190505b50905060005b83518110156105755760048482815181106103fe576103fe6116aa565b602002602001015181548110610416576104166116aa565b600091825260209182902060408051606081018252600390930290910180546001600160a01b0316835260018101549383019390935260029092015460ff161515918101919091528351849083908110610472576104726116aa565b60200260200101819052506004848281518110610491576104916116aa565b6020026020010151815481106104a9576104a96116aa565b600091825260209091206002600390920201015460ff16158015610510575060025461050d60058684815181106104e2576104e26116aa565b6020026020010151815481106104fa576104fa6116aa565b9060005260206000200154600354610775565b11155b1561053e576001828281518110610529576105296116aa565b91151560209283029190910190910152610563565b6000828281518110610552576105526116aa565b911515602092830291909101909101525b8061056d81611679565b9150506103e1565b5090969195509350915050565b60606004805480602002602001604051908101604052809291908181526020016000905b82821015610600576000848152602090819020604080516060810182526003860290920180546001600160a01b031683526001808201548486015260029091015460ff1615159183019190915290835290920191016105a6565b50505050905090565b6000546001600160a01b0316331461062057600080fd5b60075460405163a9059cbb60e01b8152336004820152602481018390526001600160a01b039091169063a9059cbb90604401602060405180830381600087803b15801561066c57600080fd5b505af1158015610680573d6000803e3d6000fd5b505050506040513d601f19601f820116820180604052508101906106a49190611451565b506002546106b290826112f6565b60025550565b600581815481106106c857600080fd5b600091825260209091200154905081565b6000546001600160a01b031633146106f057600080fd5b60405163a9059cbb60e01b8152336004820152602481018390526001600160a01b0382169063a9059cbb90604401602060405180830381600087803b15801561073857600080fd5b505af115801561074c573d6000803e3d6000fd5b505050506040513d601f19601f820116820180604052508101906107709190611451565b505050565b6000818310156107875750600061078c565b508082035b92915050565b6001546001600160a01b031633146107dc5760405162461bcd60e51b81526020600482015260086024820152672170656e64696e6760c01b60448201526064015b60405180910390fd5b60008054600180546001600160a01b038082166001600160a01b0319808616821790965594909116909155604080519190921680825260208201939093527f1f14cfc03e486d23acee577b07bc0b3b23f4888c91fcdba5e0fef5a2549d5523910160405180910390a150565b6000600354600560016004805490506108619190611662565b81548110610871576108716116aa565b90600052602060002001546108869190611662565b905090565b6000546001600160a01b031633146108a257600080fd5b600180546001600160a01b038381166001600160a01b031983168117909355604080519190921680825260208201939093527f6163d5b9efd962645dd649e6e48a61bcb0f9df00997a2398b80d135a9ab0c61e910160405180910390a15050565b600060048281548110610918576109186116aa565b600091825260209091206002600390920201015460ff161580156109535750600254610950600584815481106104fa576104fa6116aa565b11155b1561096057506001919050565b506000919050565b919050565b600080546001600160a01b0316331461098557600080fd5b6000826001600160a01b03166303b41f746040518163ffffffff1660e01b815260040160006040518083038186803b1580156109c057600080fd5b505afa1580156109d4573d6000803e3d6000fd5b505050506040513d6000823e601f3d908101601f191682016040526109fc9190810190611367565b905060015b8151811015610b2c57604051631f564a4560e01b8152600481018290526005906001600160a01b03861690631f564a459060240160206040518083038186803b158015610a4d57600080fd5b505afa158015610a61573d6000803e3d6000fd5b505050506040513d601f19601f82011682018060405250810190610a859190611485565b815460018101835560009283526020909220909101558151600490839083908110610ab257610ab26116aa565b602090810291909101810151825460018082018555600094855293839020825160039092020180546001600160a01b0319166001600160a01b0390921691909117815591810151928201929092556040909101516002909101805460ff191691151591909117905580610b2481611679565b915050610a01565b50826001600160a01b031663da88c1ee6040518163ffffffff1660e01b815260040160206040518083038186803b158015610b6657600080fd5b505afa158015610b7a573d6000803e3d6000fd5b505050506040513d601f19601f82011682018060405250810190610b9e9190611485565b60035550600192915050565b6006546040516323b872dd60e01b8152336004820152306024820152604481018390526000916001600160a01b0316906323b872dd90606401602060405180830381600087803b158015610bfd57600080fd5b505af1158015610c11573d6000803e3d6000fd5b505050506040513d601f19601f82011682018060405250810190610c359190611451565b50604080516060810182526001600160a01b03858116825260208201858152600093830184815260048054600180820183559190965293517f8a35acfbc15ff81a39ae7d344fd709f28e8600b4aa8c65c6b64bfe7fe36bd19b600390960295860180546001600160a01b0319169190941617909255517f8a35acfbc15ff81a39ae7d344fd709f28e8600b4aa8c65c6b64bfe7fe36bd19c840155517f8a35acfbc15ff81a39ae7d344fd709f28e8600b4aa8c65c6b64bfe7fe36bd19d909201805460ff191692151592909217909155600580549091610d43918391610d1991611662565b81548110610d2957610d296116aa565b90600052602060002001548461130290919063ffffffff16565b81546001810183556000928352602090922090910155600654604051633f34d4cf60e21b8152600481018490523060248201526001600160a01b039091169063fcd3533c90604401602060405180830381600087803b158015610da557600080fd5b505af1158015610db9573d6000803e3d6000fd5b505050506040513d601f19601f82011682018060405250810190610ddd9190611451565b506004547f410c5c259085cde81fedf70c1aa308ec839373c26e9b7ada6560a2aca0254eb6908390610e1190600190611662565b6040805192835260208301919091520160405180910390a1600454610e3890600190611662565b9392505050565b60048181548110610e4f57600080fd5b60009182526020909120600390910201805460018201546002909201546001600160a01b03909116925060ff1683565b6007546040516323b872dd60e01b8152336004820152306024820152604481018390526001600160a01b03909116906323b872dd90606401602060405180830381600087803b158015610ed157600080fd5b505af1158015610ee5573d6000803e3d6000fd5b505050506040513d601f19601f82011682018060405250810190610f099190611451565b506002546106b29082611302565b60048181548110610f2a57610f2a6116aa565b600091825260209091206002600390920201015460ff1615610f7a5760405162461bcd60e51b815260206004820152600960248201526818dbdb5c1b195d195960ba1b60448201526064016107d3565b600254610f93600583815481106104fa576104fa6116aa565b1115610fd85760405162461bcd60e51b8152602060048201526014602482015273696e73756666696369656e742062616c616e636560601b60448201526064016107d3565b600754600480546001600160a01b039092169163a9059cbb919084908110611002576110026116aa565b6000918252602090912060039091020154600480546001600160a01b039092169185908110611033576110336116aa565b60009182526020909120600160039092020101546040516001600160e01b031960e085901b1681526001600160a01b0390921660048301526024820152604401602060405180830381600087803b15801561108d57600080fd5b505af11580156110a1573d6000803e3d6000fd5b505050506040513d601f19601f820116820180604052508101906110c59190611451565b506001600482815481106110db576110db6116aa565b906000526020600020906003020160020160006101000a81548160ff02191690831515021790555061113c60048281548110611119576111196116aa565b90600052602060002090600302016001015460035461130290919063ffffffff16565b6003819055506106b260048281548110611158576111586116aa565b9060005260206000209060030201600101546002546112f690919063ffffffff16565b60045460609060009067ffffffffffffffff81111561119c5761119c6116c0565b6040519080825280602002602001820160405280156111c5578160200160208202803683370190505b5090506000805b60045481101561125157846001600160a01b0316600482815481106111f3576111f36116aa565b60009182526020909120600390910201546001600160a01b0316141561123f5780838381518110611226576112266116aa565b60209081029190910101528161123b81611679565b9250505b8061124981611679565b9150506111cc565b5060008167ffffffffffffffff81111561126d5761126d6116c0565b604051908082528060200260200182016040528015611296578160200160208202803683370190505b50905060005b828110156112ed578381815181106112b6576112b66116aa565b60200260200101518282815181106112d0576112d06116aa565b6020908102919091010152806112e581611679565b91505061129c565b50949350505050565b6000610e388284611662565b6000610e38828461164a565b8051801515811461096857600080fd5b60006020828403121561133057600080fd5b8135610e38816116d6565b6000806040838503121561134e57600080fd5b8235611359816116d6565b946020939093013593505050565b6000602080838503121561137a57600080fd5b825167ffffffffffffffff8082111561139257600080fd5b818501915085601f8301126113a657600080fd5b8151818111156113b8576113b86116c0565b6113c6848260051b01611619565b81815284810192508385016060808402860187018a10156113e657600080fd5b60009550855b848110156114425781838c031215611402578687fd5b61140a6115f0565b8351611415816116d6565b81528389015189820152604061142c81860161130e565b90820152865294870194918101916001016113ec565b50919998505050505050505050565b60006020828403121561146357600080fd5b610e388261130e565b60006020828403121561147e57600080fd5b5035919050565b60006020828403121561149757600080fd5b5051919050565b600080604083850312156114b157600080fd5b8235915060208301356114c3816116d6565b809150509250929050565b600080604083850312156114e157600080fd5b50508035926020909101359150565b600081518084526020808501945080840160005b8381101561154157815180516001600160a01b03168852838101518489015260409081015115159088015260609096019590820190600101611504565b509495945050505050565b602081526000610e3860208301846114f0565b60608152600061157260608301866114f0565b82810360208481019190915285518083528682019282019060005b818110156115a95784518352938301939183019160010161158d565b50508481036040860152855180825290820192508186019060005b818110156115e25782511515855293830193918301916001016115c4565b509298975050505050505050565b6040516060810167ffffffffffffffff81118282101715611613576116136116c0565b60405290565b604051601f8201601f1916810167ffffffffffffffff81118282101715611642576116426116c0565b604052919050565b6000821982111561165d5761165d611694565b500190565b60008282101561167457611674611694565b500390565b600060001982141561168d5761168d611694565b5060010190565b634e487b7160e01b600052601160045260246000fd5b634e487b7160e01b600052603260045260246000fd5b634e487b7160e01b600052604160045260246000fd5b6001600160a01b03811681146116eb57600080fd5b5056fea2646970667358221220ac02e8b508d44a174423d73497cc749288377fa3b13105cefb535ef079eff33764736f6c63430008070033",
    "linkReferences": {}
  },
  "methodIdentifiers": {
    "_acceptGov()": "4bda2e20",
    "_setPendingGov(address)": "73f03dff",
    "balance()": "b69ef8a8",
    "burn(address,uint256)": "9dc29fac",
    "burns(uint256)": "a86eb292",
    "deposit(uint256)": "b6b55f25",
    "emergencyWithdraw(uint256,address)": "2f940c70",
    "flip()": "cde4efa9",
    "getAllBurns()": "03b41f74",
    "getBurns(address)": "039fa5de",
    "gov()": "12d43a51",
    "govWithdraw(uint256)": "07ceeee4",
    "importData(address)": "9498d88b",
    "pendingGov()": "25240810",
    "redeem(uint256)": "db006a75",
    "redeemable(uint256)": "825a926f",
    "reedemed()": "da88c1ee",
    "stflip()": "f025b209",
    "subtract(uint256,uint256)": "3ef5e445",
    "sums(uint256)": "1f564a45",
    "totalPendingBurns()": "5fc63102"
  },
  "id": 56
}