{
  "abi": [
    {
      "inputs": [
        {
          "internalType": "address",
          "name": "stflip_",
          "type": "address"
        },
        {
          "internalType": "address",
          "name": "gov_",
          "type": "address"
        },
        {
          "internalType": "address",
          "name": "flip_",
          "type": "address"
        }
      ],
      "stateMutability": "nonpayable",
      "type": "constructor"
    },
    {
      "anonymous": false,
      "inputs": [
        {
          "indexed": false,
          "internalType": "uint256",
          "name": "amount",
          "type": "uint256"
        },
        {
          "indexed": false,
          "internalType": "uint256",
          "name": "burn_id",
          "type": "uint256"
        }
      ],
      "name": "Burn",
      "type": "event"
    },
    {
      "anonymous": false,
      "inputs": [
        {
          "indexed": false,
          "internalType": "address",
          "name": "oldGov",
          "type": "address"
        },
        {
          "indexed": false,
          "internalType": "address",
          "name": "newGov",
          "type": "address"
        }
      ],
      "name": "NewGov",
      "type": "event"
    },
    {
      "anonymous": false,
      "inputs": [
        {
          "indexed": false,
          "internalType": "address",
          "name": "oldPendingGov",
          "type": "address"
        },
        {
          "indexed": false,
          "internalType": "address",
          "name": "newPendingGov",
          "type": "address"
        }
      ],
      "name": "NewPendingGov",
      "type": "event"
    },
    {
      "inputs": [],
      "name": "_acceptGov",
      "outputs": [],
      "stateMutability": "nonpayable",
      "type": "function"
    },
    {
      "inputs": [
        {
          "internalType": "address",
          "name": "pendingGov_",
          "type": "address"
        }
      ],
      "name": "_setPendingGov",
      "outputs": [],
      "stateMutability": "nonpayable",
      "type": "function"
    },
    {
      "inputs": [],
      "name": "balance",
      "outputs": [
        {
          "internalType": "uint256",
          "name": "",
          "type": "uint256"
        }
      ],
      "stateMutability": "view",
      "type": "function"
    },
    {
      "inputs": [
        {
          "internalType": "address",
          "name": "to",
          "type": "address"
        },
        {
          "internalType": "uint256",
          "name": "amount",
          "type": "uint256"
        }
      ],
      "name": "burn",
      "outputs": [
        {
          "internalType": "uint256",
          "name": "",
          "type": "uint256"
        }
      ],
      "stateMutability": "nonpayable",
      "type": "function"
    },
    {
      "inputs": [
        {
          "internalType": "uint256",
          "name": "",
          "type": "uint256"
        }
      ],
      "name": "burns",
      "outputs": [
        {
          "internalType": "address",
          "name": "user",
          "type": "address"
        },
        {
          "internalType": "uint256",
          "name": "amount",
          "type": "uint256"
        },
        {
          "internalType": "bool",
          "name": "completed",
          "type": "bool"
        }
      ],
      "stateMutability": "view",
      "type": "function"
    },
    {
      "inputs": [
        {
          "internalType": "uint256",
          "name": "amount",
          "type": "uint256"
        }
      ],
      "name": "deposit",
      "outputs": [],
      "stateMutability": "nonpayable",
      "type": "function"
    },
    {
      "inputs": [
        {
          "internalType": "uint256",
          "name": "amount",
          "type": "uint256"
        },
        {
          "internalType": "address",
          "name": "token",
          "type": "address"
        }
      ],
      "name": "emergencyWithdraw",
      "outputs": [],
      "stateMutability": "nonpayable",
      "type": "function"
    },
    {
      "inputs": [],
      "name": "flip",
      "outputs": [
        {
          "internalType": "contract IERC20",
          "name": "",
          "type": "address"
        }
      ],
      "stateMutability": "view",
      "type": "function"
    },
    {
      "inputs": [],
      "name": "getAllBurns",
      "outputs": [
        {
          "components": [
            {
              "internalType": "address",
              "name": "user",
              "type": "address"
            },
            {
              "internalType": "uint256",
              "name": "amount",
              "type": "uint256"
            },
            {
              "internalType": "bool",
              "name": "completed",
              "type": "bool"
            }
          ],
          "internalType": "struct Burner.burn_[]",
          "name": "",
          "type": "tuple[]"
        }
      ],
      "stateMutability": "view",
      "type": "function"
    },
    {
      "inputs": [
        {
          "internalType": "address",
          "name": "account",
          "type": "address"
        }
      ],
      "name": "getBurns",
      "outputs": [
        {
          "components": [
            {
              "internalType": "address",
              "name": "user",
              "type": "address"
            },
            {
              "internalType": "uint256",
              "name": "amount",
              "type": "uint256"
            },
            {
              "internalType": "bool",
              "name": "completed",
              "type": "bool"
            }
          ],
          "internalType": "struct Burner.burn_[]",
          "name": "",
          "type": "tuple[]"
        },
        {
          "internalType": "uint256[]",
          "name": "",
          "type": "uint256[]"
        },
        {
          "internalType": "bool[]",
          "name": "",
          "type": "bool[]"
        }
      ],
      "stateMutability": "view",
      "type": "function"
    },
    {
      "inputs": [],
      "name": "gov",
      "outputs": [
        {
          "internalType": "address",
          "name": "",
          "type": "address"
        }
      ],
      "stateMutability": "view",
      "type": "function"
    },
    {
      "inputs": [
        {
          "internalType": "uint256",
          "name": "amount",
          "type": "uint256"
        }
      ],
      "name": "govWithdraw",
      "outputs": [],
      "stateMutability": "nonpayable",
      "type": "function"
    },
    {
      "inputs": [
        {
          "internalType": "contract Burner",
          "name": "burnerToImport",
          "type": "address"
        }
      ],
      "name": "importData",
      "outputs": [
        {
          "internalType": "bool",
          "name": "",
          "type": "bool"
        }
      ],
      "stateMutability": "nonpayable",
      "type": "function"
    },
    {
      "inputs": [],
      "name": "pendingGov",
      "outputs": [
        {
          "internalType": "address",
          "name": "",
          "type": "address"
        }
      ],
      "stateMutability": "view",
      "type": "function"
    },
    {
      "inputs": [
        {
          "internalType": "address",
          "name": "to",
          "type": "address"
        },
        {
          "internalType": "uint256",
          "name": "burn_id",
          "type": "uint256"
        }
      ],
      "name": "redeem",
      "outputs": [],
      "stateMutability": "nonpayable",
      "type": "function"
    },
    {
      "inputs": [
        {
          "internalType": "uint256",
          "name": "burn_id",
          "type": "uint256"
        }
      ],
      "name": "redeemable",
      "outputs": [
        {
          "internalType": "bool",
          "name": "",
          "type": "bool"
        }
      ],
      "stateMutability": "view",
      "type": "function"
    },
    {
      "inputs": [],
      "name": "reedemed",
      "outputs": [
        {
          "internalType": "uint256",
          "name": "",
          "type": "uint256"
        }
      ],
      "stateMutability": "view",
      "type": "function"
    },
    {
      "inputs": [],
      "name": "stflip",
      "outputs": [
        {
          "internalType": "contract stFlip",
          "name": "",
          "type": "address"
        }
      ],
      "stateMutability": "view",
      "type": "function"
    },
    {
      "inputs": [
        {
          "internalType": "uint256",
          "name": "a",
          "type": "uint256"
        },
        {
          "internalType": "uint256",
          "name": "b",
          "type": "uint256"
        }
      ],
      "name": "subtract",
      "outputs": [
        {
          "internalType": "uint256",
          "name": "",
          "type": "uint256"
        }
      ],
      "stateMutability": "pure",
      "type": "function"
    },
    {
      "inputs": [
        {
          "internalType": "uint256",
          "name": "",
          "type": "uint256"
        }
      ],
      "name": "sums",
      "outputs": [
        {
          "internalType": "uint256",
          "name": "",
          "type": "uint256"
        }
      ],
      "stateMutability": "view",
      "type": "function"
    },
    {
      "inputs": [],
      "name": "totalPendingBurns",
      "outputs": [
        {
          "internalType": "uint256",
          "name": "",
          "type": "uint256"
        }
      ],
      "stateMutability": "view",
      "type": "function"
    }
  ],
  "bytecode": {
    "object": "0x6080604052600060025560006003553480156200001b57600080fd5b5060405162001963380380620019638339810160408190526200003e916200018b565b600680546001600160a01b03199081166001600160a01b0395861617909155600080548216938516939093178355600780548216928516929092179091556040805160608101825283815260208101848152600192820183815260048054808601825590875292517f8a35acfbc15ff81a39ae7d344fd709f28e8600b4aa8c65c6b64bfe7fe36bd19b6003909402938401805490961697169690961790935591517f8a35acfbc15ff81a39ae7d344fd709f28e8600b4aa8c65c6b64bfe7fe36bd19c83015592517f8a35acfbc15ff81a39ae7d344fd709f28e8600b4aa8c65c6b64bfe7fe36bd19d909101805460ff191691151591909117905560058054928301815581527f036b6384b5eca791c62761152d0c79bb0604c104a5fb6f4eb0703f3154bb3db090910155620001d5565b80516001600160a01b03811681146200018657600080fd5b919050565b600080600060608486031215620001a157600080fd5b620001ac846200016e565b9250620001bc602085016200016e565b9150620001cc604085016200016e565b90509250925092565b61177e80620001e56000396000f3fe608060405234801561001057600080fd5b50600436106101375760003560e01c80635fc63102116100b8578063a86eb2921161007c578063a86eb29214610295578063b69ef8a8146102cf578063b6b55f25146102d8578063cde4efa9146102eb578063da88c1ee146102fe578063f025b2091461030757600080fd5b80635fc631021461023157806373f03dff14610239578063825a926f1461024c5780639498d88b1461026f5780639dc29fac1461028257600080fd5b80631f564a45116100ff5780631f564a45146101cf57806325240810146101f05780632f940c70146102035780633ef5e445146102165780634bda2e201461022957600080fd5b8063039fa5de1461013c57806303b41f741461016757806307ceeee41461017c57806312d43a51146101915780631e9a6950146101bc575b600080fd5b61014f61014a366004611378565b61031a565b60405161015e939291906115b9565b60405180910390f35b61016f610582565b60405161015e91906115a6565b61018f61018a3660046114c6565b610609565b005b6000546101a4906001600160a01b031681565b6040516001600160a01b03909116815260200161015e565b61018f6101ca366004611395565b6106b8565b6101e26101dd3660046114c6565b610964565b60405190815260200161015e565b6001546101a4906001600160a01b031681565b61018f6102113660046114f8565b610985565b6101e2610224366004611528565b610a21565b61018f610a3e565b6101e2610aef565b61018f610247366004611378565b610b32565b61025f61025a3660046114c6565b610baa565b604051901515815260200161015e565b61025f61027d366004611378565b610c14565b6101e2610290366004611395565b610e51565b6102a86102a33660046114c6565b6110e6565b604080516001600160a01b039094168452602084019290925215159082015260600161015e565b6101e260025481565b61018f6102e63660046114c6565b611126565b6007546101a4906001600160a01b031681565b6101e260035481565b6006546101a4906001600160a01b031681565b6060806060600061032a856111d5565b90506000815167ffffffffffffffff8111156103485761034861171a565b60405190808252806020026020018201604052801561039357816020015b60408051606081018252600080825260208083018290529282015282526000199092019101816103665790505b5090506000825167ffffffffffffffff8111156103b2576103b261171a565b6040519080825280602002602001820160405280156103db578160200160208202803683370190505b50905060005b83518110156105755760048482815181106103fe576103fe611704565b60200260200101518154811061041657610416611704565b600091825260209182902060408051606081018252600390930290910180546001600160a01b0316835260018101549383019390935260029092015460ff16151591810191909152835184908390811061047257610472611704565b6020026020010181905250600484828151811061049157610491611704565b6020026020010151815481106104a9576104a9611704565b600091825260209091206002600390920201015460ff16158015610510575060025461050d60058684815181106104e2576104e2611704565b6020026020010151815481106104fa576104fa611704565b9060005260206000200154600354610a21565b11155b1561053e57600182828151811061052957610529611704565b91151560209283029190910190910152610563565b600082828151811061055257610552611704565b911515602092830291909101909101525b8061056d816116d3565b9150506103e1565b5090969195509350915050565b60606004805480602002602001604051908101604052809291908181526020016000905b82821015610600576000848152602090819020604080516060810182526003860290920180546001600160a01b031683526001808201548486015260029091015460ff1615159183019190915290835290920191016105a6565b50505050905090565b6000546001600160a01b0316331461062057600080fd5b60075460405163a9059cbb60e01b8152336004820152602481018390526001600160a01b039091169063a9059cbb90604401602060405180830381600087803b15801561066c57600080fd5b505af1158015610680573d6000803e3d6000fd5b505050506040513d601f19601f820116820180604052508101906106a491906114ab565b506002546106b29082611350565b60025550565b816001600160a01b0316600482815481106106d5576106d5611704565b60009182526020909120600390910201546001600160a01b0316146107295760405162461bcd60e51b815260206004820152600560248201526410bab9b2b960d91b60448201526064015b60405180910390fd5b6004818154811061073c5761073c611704565b600091825260209091206002600390920201015460ff161561078c5760405162461bcd60e51b815260206004820152600960248201526818dbdb5c1b195d195960ba1b6044820152606401610720565b6002546107a5600583815481106104fa576104fa611704565b11156107ea5760405162461bcd60e51b8152602060048201526014602482015273696e73756666696369656e742062616c616e636560601b6044820152606401610720565b600754600480546001600160a01b039092169163a9059cbb9185918590811061081557610815611704565b60009182526020909120600160039092020101546040516001600160e01b031960e085901b1681526001600160a01b0390921660048301526024820152604401602060405180830381600087803b15801561086f57600080fd5b505af1158015610883573d6000803e3d6000fd5b505050506040513d601f19601f820116820180604052508101906108a791906114ab565b506001600482815481106108bd576108bd611704565b906000526020600020906003020160020160006101000a81548160ff02191690831515021790555061091e600482815481106108fb576108fb611704565b90600052602060002090600302016001015460035461135c90919063ffffffff16565b60038190555061095d6004828154811061093a5761093a611704565b90600052602060002090600302016001015460025461135090919063ffffffff16565b6002555050565b6005818154811061097457600080fd5b600091825260209091200154905081565b6000546001600160a01b0316331461099c57600080fd5b60405163a9059cbb60e01b8152336004820152602481018390526001600160a01b0382169063a9059cbb90604401602060405180830381600087803b1580156109e457600080fd5b505af11580156109f8573d6000803e3d6000fd5b505050506040513d601f19601f82011682018060405250810190610a1c91906114ab565b505050565b600081831015610a3357506000610a38565b508082035b92915050565b6001546001600160a01b03163314610a835760405162461bcd60e51b81526020600482015260086024820152672170656e64696e6760c01b6044820152606401610720565b60008054600180546001600160a01b038082166001600160a01b0319808616821790965594909116909155604080519190921680825260208201939093527f1f14cfc03e486d23acee577b07bc0b3b23f4888c91fcdba5e0fef5a2549d5523910160405180910390a150565b600060035460056001600480549050610b0891906116bc565b81548110610b1857610b18611704565b9060005260206000200154610b2d91906116bc565b905090565b6000546001600160a01b03163314610b4957600080fd5b600180546001600160a01b038381166001600160a01b031983168117909355604080519190921680825260208201939093527f6163d5b9efd962645dd649e6e48a61bcb0f9df00997a2398b80d135a9ab0c61e910160405180910390a15050565b600060048281548110610bbf57610bbf611704565b600091825260209091206002600390920201015460ff16158015610bfa5750600254610bf7600584815481106104fa576104fa611704565b11155b15610c0757506001919050565b506000919050565b919050565b600080546001600160a01b03163314610c2c57600080fd5b6000826001600160a01b03166303b41f746040518163ffffffff1660e01b815260040160006040518083038186803b158015610c6757600080fd5b505afa158015610c7b573d6000803e3d6000fd5b505050506040513d6000823e601f3d908101601f19168201604052610ca391908101906113c1565b905060015b8151811015610dd357604051631f564a4560e01b8152600481018290526005906001600160a01b03861690631f564a459060240160206040518083038186803b158015610cf457600080fd5b505afa158015610d08573d6000803e3d6000fd5b505050506040513d601f19601f82011682018060405250810190610d2c91906114df565b815460018101835560009283526020909220909101558151600490839083908110610d5957610d59611704565b602090810291909101810151825460018082018555600094855293839020825160039092020180546001600160a01b0319166001600160a01b0390921691909117815591810151928201929092556040909101516002909101805460ff191691151591909117905580610dcb816116d3565b915050610ca8565b50826001600160a01b031663da88c1ee6040518163ffffffff1660e01b815260040160206040518083038186803b158015610e0d57600080fd5b505afa158015610e21573d6000803e3d6000fd5b505050506040513d601f19601f82011682018060405250810190610e4591906114df565b60035550600192915050565b6006546040516323b872dd60e01b8152336004820152306024820152604481018390526000916001600160a01b0316906323b872dd90606401602060405180830381600087803b158015610ea457600080fd5b505af1158015610eb8573d6000803e3d6000fd5b505050506040513d601f19601f82011682018060405250810190610edc91906114ab565b50604080516060810182526001600160a01b03858116825260208201858152600093830184815260048054600180820183559190965293517f8a35acfbc15ff81a39ae7d344fd709f28e8600b4aa8c65c6b64bfe7fe36bd19b600390960295860180546001600160a01b0319169190941617909255517f8a35acfbc15ff81a39ae7d344fd709f28e8600b4aa8c65c6b64bfe7fe36bd19c840155517f8a35acfbc15ff81a39ae7d344fd709f28e8600b4aa8c65c6b64bfe7fe36bd19d909201805460ff191692151592909217909155600580549091610fea918391610fc0916116bc565b81548110610fd057610fd0611704565b90600052602060002001548461135c90919063ffffffff16565b81546001810183556000928352602090922090910155600654604051633f34d4cf60e21b8152600481018490523060248201526001600160a01b039091169063fcd3533c90604401602060405180830381600087803b15801561104c57600080fd5b505af1158015611060573d6000803e3d6000fd5b505050506040513d601f19601f8201168201806040525081019061108491906114ab565b506004547f410c5c259085cde81fedf70c1aa308ec839373c26e9b7ada6560a2aca0254eb69083906110b8906001906116bc565b6040805192835260208301919091520160405180910390a16004546110df906001906116bc565b9392505050565b600481815481106110f657600080fd5b60009182526020909120600390910201805460018201546002909201546001600160a01b03909116925060ff1683565b6000546001600160a01b0316331461113d57600080fd5b6007546040516323b872dd60e01b8152336004820152306024820152604481018390526001600160a01b03909116906323b872dd90606401602060405180830381600087803b15801561118f57600080fd5b505af11580156111a3573d6000803e3d6000fd5b505050506040513d601f19601f820116820180604052508101906111c791906114ab565b506002546106b2908261135c565b60045460609060009067ffffffffffffffff8111156111f6576111f661171a565b60405190808252806020026020018201604052801561121f578160200160208202803683370190505b5090506000805b6004548110156112ab57846001600160a01b03166004828154811061124d5761124d611704565b60009182526020909120600390910201546001600160a01b03161415611299578083838151811061128057611280611704565b602090810291909101015281611295816116d3565b9250505b806112a3816116d3565b915050611226565b5060008167ffffffffffffffff8111156112c7576112c761171a565b6040519080825280602002602001820160405280156112f0578160200160208202803683370190505b50905060005b828110156113475783818151811061131057611310611704565b602002602001015182828151811061132a5761132a611704565b60209081029190910101528061133f816116d3565b9150506112f6565b50949350505050565b60006110df82846116bc565b60006110df82846116a4565b80518015158114610c0f57600080fd5b60006020828403121561138a57600080fd5b81356110df81611730565b600080604083850312156113a857600080fd5b82356113b381611730565b946020939093013593505050565b600060208083850312156113d457600080fd5b825167ffffffffffffffff808211156113ec57600080fd5b818501915085601f83011261140057600080fd5b8151818111156114125761141261171a565b611420848260051b01611673565b81815284810192508385016060808402860187018a101561144057600080fd5b60009550855b8481101561149c5781838c03121561145c578687fd5b61146461164a565b835161146f81611730565b815283890151898201526040611486818601611368565b9082015286529487019491810191600101611446565b50919998505050505050505050565b6000602082840312156114bd57600080fd5b6110df82611368565b6000602082840312156114d857600080fd5b5035919050565b6000602082840312156114f157600080fd5b5051919050565b6000806040838503121561150b57600080fd5b82359150602083013561151d81611730565b809150509250929050565b6000806040838503121561153b57600080fd5b50508035926020909101359150565b600081518084526020808501945080840160005b8381101561159b57815180516001600160a01b0316885283810151848901526040908101511515908801526060909601959082019060010161155e565b509495945050505050565b6020815260006110df602083018461154a565b6060815260006115cc606083018661154a565b82810360208481019190915285518083528682019282019060005b81811015611603578451835293830193918301916001016115e7565b50508481036040860152855180825290820192508186019060005b8181101561163c57825115158552938301939183019160010161161e565b509298975050505050505050565b6040516060810167ffffffffffffffff8111828210171561166d5761166d61171a565b60405290565b604051601f8201601f1916810167ffffffffffffffff8111828210171561169c5761169c61171a565b604052919050565b600082198211156116b7576116b76116ee565b500190565b6000828210156116ce576116ce6116ee565b500390565b60006000198214156116e7576116e76116ee565b5060010190565b634e487b7160e01b600052601160045260246000fd5b634e487b7160e01b600052603260045260246000fd5b634e487b7160e01b600052604160045260246000fd5b6001600160a01b038116811461174557600080fd5b5056fea264697066735822122000b1064d83c7ac177bd91284f60e617f0a3a1b389c06bb8385be4af7ddf01b7164736f6c63430008070033",
    "linkReferences": {}
  },
  "methodIdentifiers": {
    "_acceptGov()": "4bda2e20",
    "_setPendingGov(address)": "73f03dff",
    "balance()": "b69ef8a8",
    "burn(address,uint256)": "9dc29fac",
    "burns(uint256)": "a86eb292",
    "deposit(uint256)": "b6b55f25",
    "emergencyWithdraw(uint256,address)": "2f940c70",
    "flip()": "cde4efa9",
    "getAllBurns()": "03b41f74",
    "getBurns(address)": "039fa5de",
    "gov()": "12d43a51",
    "govWithdraw(uint256)": "07ceeee4",
    "importData(address)": "9498d88b",
    "pendingGov()": "25240810",
    "redeem(address,uint256)": "1e9a6950",
    "redeemable(uint256)": "825a926f",
    "reedemed()": "da88c1ee",
    "stflip()": "f025b209",
    "subtract(uint256,uint256)": "3ef5e445",
    "sums(uint256)": "1f564a45",
    "totalPendingBurns()": "5fc63102"
  },
  "id": 56
}