{
  "abi": [
    {
      "anonymous": false,
      "inputs": [
        {
          "indexed": true,
          "internalType": "address",
          "name": "provider",
          "type": "address"
        },
        {
          "indexed": false,
          "internalType": "uint256[2]",
          "name": "tokenAmounts",
          "type": "uint256[2]"
        },
        {
          "indexed": false,
          "internalType": "uint256[2]",
          "name": "fees",
          "type": "uint256[2]"
        },
        {
          "indexed": false,
          "internalType": "uint256",
          "name": "invariant",
          "type": "uint256"
        },
        {
          "indexed": false,
          "internalType": "uint256",
          "name": "lpTokenSupply",
          "type": "uint256"
        }
      ],
      "name": "AddLiquidity",
      "type": "event"
    },
    {
      "anonymous": false,
      "inputs": [
        {
          "indexed": false,
          "internalType": "uint256",
          "name": "newAdminFee",
          "type": "uint256"
        }
      ],
      "name": "NewAdminFee",
      "type": "event"
    },
    {
      "anonymous": false,
      "inputs": [
        {
          "indexed": false,
          "internalType": "uint256",
          "name": "newSwapFee",
          "type": "uint256"
        }
      ],
      "name": "NewSwapFee",
      "type": "event"
    },
    {
      "anonymous": false,
      "inputs": [
        {
          "indexed": false,
          "internalType": "uint256",
          "name": "oldA",
          "type": "uint256"
        },
        {
          "indexed": false,
          "internalType": "uint256",
          "name": "newA",
          "type": "uint256"
        },
        {
          "indexed": false,
          "internalType": "uint256",
          "name": "initialTime",
          "type": "uint256"
        },
        {
          "indexed": false,
          "internalType": "uint256",
          "name": "futureTime",
          "type": "uint256"
        }
      ],
      "name": "RampA",
      "type": "event"
    },
    {
      "anonymous": false,
      "inputs": [
        {
          "indexed": true,
          "internalType": "address",
          "name": "provider",
          "type": "address"
        },
        {
          "indexed": false,
          "internalType": "uint256[2]",
          "name": "tokenAmounts",
          "type": "uint256[2]"
        },
        {
          "indexed": false,
          "internalType": "uint256",
          "name": "lpTokenSupply",
          "type": "uint256"
        }
      ],
      "name": "RemoveLiquidity",
      "type": "event"
    },
    {
      "anonymous": false,
      "inputs": [
        {
          "indexed": true,
          "internalType": "address",
          "name": "provider",
          "type": "address"
        },
        {
          "indexed": false,
          "internalType": "uint256[2]",
          "name": "tokenAmounts",
          "type": "uint256[2]"
        },
        {
          "indexed": false,
          "internalType": "uint256[2]",
          "name": "fees",
          "type": "uint256[2]"
        },
        {
          "indexed": false,
          "internalType": "uint256",
          "name": "invariant",
          "type": "uint256"
        },
        {
          "indexed": false,
          "internalType": "uint256",
          "name": "lpTokenSupply",
          "type": "uint256"
        }
      ],
      "name": "RemoveLiquidityImbalance",
      "type": "event"
    },
    {
      "anonymous": false,
      "inputs": [
        {
          "indexed": true,
          "internalType": "address",
          "name": "provider",
          "type": "address"
        },
        {
          "indexed": false,
          "internalType": "uint256",
          "name": "lpTokenAmount",
          "type": "uint256"
        },
        {
          "indexed": false,
          "internalType": "uint256",
          "name": "lpTokenSupply",
          "type": "uint256"
        },
        {
          "indexed": false,
          "internalType": "contract IERC20",
          "name": "tokenReceived",
          "type": "address"
        },
        {
          "indexed": false,
          "internalType": "uint256",
          "name": "receivedAmount",
          "type": "uint256"
        }
      ],
      "name": "RemoveLiquidityOne",
      "type": "event"
    },
    {
      "anonymous": false,
      "inputs": [
        {
          "indexed": false,
          "internalType": "uint256",
          "name": "currentA",
          "type": "uint256"
        },
        {
          "indexed": false,
          "internalType": "uint256",
          "name": "time",
          "type": "uint256"
        }
      ],
      "name": "StopRampA",
      "type": "event"
    },
    {
      "anonymous": false,
      "inputs": [
        {
          "indexed": true,
          "internalType": "address",
          "name": "buyer",
          "type": "address"
        },
        {
          "indexed": false,
          "internalType": "contract IERC20",
          "name": "tokenSold",
          "type": "address"
        },
        {
          "indexed": false,
          "internalType": "uint256",
          "name": "amountSold",
          "type": "uint256"
        },
        {
          "indexed": false,
          "internalType": "uint256",
          "name": "amountReceived",
          "type": "uint256"
        }
      ],
      "name": "Swap",
      "type": "event"
    },
    {
      "inputs": [],
      "name": "A_PRECISION",
      "outputs": [
        {
          "internalType": "uint256",
          "name": "",
          "type": "uint256"
        }
      ],
      "stateMutability": "view",
      "type": "function"
    },
    {
      "inputs": [],
      "name": "MAX_A",
      "outputs": [
        {
          "internalType": "uint256",
          "name": "",
          "type": "uint256"
        }
      ],
      "stateMutability": "view",
      "type": "function"
    },
    {
      "inputs": [],
      "name": "MAX_ADMIN_FEE",
      "outputs": [
        {
          "internalType": "uint256",
          "name": "",
          "type": "uint256"
        }
      ],
      "stateMutability": "view",
      "type": "function"
    },
    {
      "inputs": [],
      "name": "MAX_SWAP_FEE",
      "outputs": [
        {
          "internalType": "uint256",
          "name": "",
          "type": "uint256"
        }
      ],
      "stateMutability": "view",
      "type": "function"
    },
    {
      "inputs": [],
      "name": "POOL_PRECISION_DECIMALS",
      "outputs": [
        {
          "internalType": "uint8",
          "name": "",
          "type": "uint8"
        }
      ],
      "stateMutability": "view",
      "type": "function"
    },
    {
      "inputs": [
        {
          "internalType": "uint256",
          "name": "amount",
          "type": "uint256"
        },
        {
          "components": [
            {
              "internalType": "contract IERC20",
              "name": "token",
              "type": "IERC20"
            },
            {
              "internalType": "uint256",
              "name": "precisionMultiplier",
              "type": "uint256"
            }
          ],
          "internalType": "struct SwapUtils.PooledToken[2]",
          "name": "tokens",
          "type": "tuple[2]"
        },
        {
          "internalType": "contract LiquidityPoolToken",
          "name": "lpToken",
          "type": "LiquidityPoolToken"
        }
      ],
      "name": "calculateRemoveLiquidity",
      "outputs": [
        {
          "internalType": "uint256[2]",
          "name": "",
          "type": "uint256[2]"
        }
      ],
      "stateMutability": "view",
      "type": "function"
    }
  ],
  "bytecode": {
    "object": "0x61337361003a600b82828239805160001a60731461002d57634e487b7160e01b600052600060045260246000fd5b30600052607381538281f3fe73000000000000000000000000000000000000000030146080604052600436106101415760003560e01c80636cc631fa116100c2578063c15dc17c11610086578063c15dc17c146102e3578063cb6802c8146102f6578063cbab294f14610309578063d011f91814610329578063e5537d2014610331578063f3de03621461034457600080fd5b80636cc631fa14610272578063809d064814610285578063a7abb39614610298578063ab3d8544146102b8578063b0845bc5146102c357600080fd5b8063296104cd11610109578063296104cd14610202578063396984151461021557806344b4519c1461021f5780635aa533ee1461023f5780635d5c4f961461025f57600080fd5b80630296ab501461014657806302eb2c221461016557806314f685c31461019357806326579429146101b557806327d04775146101e2575b600080fd5b61014e601281565b60405160ff90911681526020015b60405180910390f35b81801561017157600080fd5b50610185610180366004612c6b565b610350565b60405190815260200161015c565b81801561019f57600080fd5b506101b36101ae366004612e0a565b6109c8565b005b8180156101c157600080fd5b506101d56101d0366004612f30565b610c10565b60405161015c919061305b565b8180156101ee57600080fd5b506101b36101fd366004612e36565b610e3a565b6101d5610210366004612f7b565b610ec0565b610185620f424081565b81801561022b57600080fd5b506101b361023a366004612e36565b610f56565b81801561024b57600080fd5b5061018561025a366004612c6b565b610fcf565b61018561026d366004612df1565b611563565b610185610280366004612df1565b611574565b610185610293366004612e58565b61158b565b8180156102a457600080fd5b506101856102b3366004612fbc565b61169f565b6101856305f5e10081565b8180156102cf57600080fd5b506101b36102de366004612df1565b6118f8565b6101856102f1366004612df1565b6119a9565b610185610304366004612d11565b6119c0565b81801561031557600080fd5b50610185610324366004612ed4565b611c79565b610185606481565b61018561033f366004612e99565b611e74565b6101856402540be40081565b60008060405180610120016040528060008152602001600081526020016000815260200161037d87611e8e565b8152602001846001600160a01b0316815260200160008152602001898152602001604051806040016040528060008152602001600081525081526020016040518060400160405280600081526020016000815250815250905080608001516001600160a01b03166318160ddd6040518163ffffffff1660e01b815260040160206040518083038186803b15801561041357600080fd5b505afa158015610427573d6000803e3d6000fd5b505050506040513d601f19601f8201168201806040525081019061044b9190612f17565b60a08201819052156104d357600061046a89825b602002015151611f2b565b905060006104798a600161045f565b604080518082019091528381526020810182905260e0850152905060006104ab838c835b602002015160200151611fa5565b905060006104bb838d600161049d565b90506104cc82828760600151611fb1565b8552505050505b865160e08201515110156105275760405162461bcd60e51b8152602060048201526016602482015275414d4f554e545f455843454544535f42414c414e434560501b60448201526064015b60405180910390fd5b60208088015160e083015190910151101561057d5760405162461bcd60e51b8152602060048201526016602482015275414d4f554e545f455843454544535f42414c414e434560501b604482015260640161051e565b865160e08201515160009161059191613277565b90506000886001602002015160e0840151600160200201516105b39190613277565b6040805180820190915283815260208101829052610100850152905060006105dc838c8361049d565b905060006105ec838d600161049d565b90506105fd82828760600151611fb1565b602086018190526040860152506106179250612b7f915050565b60006106268660000154612135565b905060005b600281101561076957600084600001518560e001518360028110610651576106516132eb565b602002015186602001516106659190613258565b61066f9190613148565b90506402540be40061069d8661010001518460028110610691576106916132eb565b60200201518390612142565b6106a79085613258565b6106b19190613148565b506402540be4006106d28661010001518460028110610691576106916132eb565b6106dc9085613258565b6106e69190613148565b8483600281106106f8576106f86132eb565b602002015283826002811061070f5761070f6132eb565b6020020151856101000151836002811061072b5761072b6132eb565b602002015161073a9190613277565b8561010001518360028110610751576107516132eb565b60200201525080610761816132ba565b91505061062b565b5061010083015160009061078690825b60200201518c600061049d565b905060006107b28561010001516001600281106107a5576107a56132eb565b60200201518d600161049d565b90506107c382828760600151611fb1565b60408601819052855160a087015160009450909250906107e39083613277565b6107ed9190613258565b6107f79190613148565b9050806108465760405162461bcd60e51b815260206004820152601b60248201527f4275726e7420616d6f756e742063616e6e6f74206265207a65726f0000000000604482015260640161051e565b888111156108965760405162461bcd60e51b815260206004820152601b60248201527f746f6b656e416d6f756e74203e206d61784275726e416d6f756e740000000000604482015260640161051e565b608084015160405163079cc67960e41b8152336004820152602481018390526001600160a01b03909116906379cc679090604401600060405180830381600087803b1580156108e457600080fd5b505af11580156108f8573d6000803e3d6000fd5b5050505060005b600281101561095d5761094b338c836002811061091e5761091e6132eb565b60200201518e8460028110610935576109356132eb565b6020020151516001600160a01b03169190612167565b80610955816132ba565b9150506108ff565b50336001600160a01b03167f2b5508378d7e19e0d5fa338419034731416c4f5b219a10379956f764317fd47e8b858760200151858960a001516109a09190613277565b6040516109b0949392919061308c565b60405180910390a293505050505b9695505050505050565b60028301546109da9062015180613130565b421015610a295760405162461bcd60e51b815260206004820152601f60248201527f57616974203120646179206265666f7265207374617274696e672072616d7000604482015260640161051e565b610a366212750042613130565b811015610a7e5760405162461bcd60e51b8152602060048201526016602482015275496e73756666696369656e742072616d702074696d6560501b604482015260640161051e565b600082118015610a905750620f424082105b610adc5760405162461bcd60e51b815260206004820181905260248201527f667574757265415f206d757374206265203e203020616e64203c204d41585f41604482015260640161051e565b6000610ae784611e8e565b90506000610af6606485613258565b905081811015610b575781610b0c600283613258565b1015610b525760405162461bcd60e51b8152602060048201526015602482015274199d5d1d5c995057c81a5cc81d1bdbc81cdb585b1b605a1b604482015260640161051e565b610ba9565b610b62600283613258565b811115610ba95760405162461bcd60e51b8152602060048201526015602482015274667574757265415f20697320746f6f206c6172676560581b604482015260640161051e565b8185556001850181905542600286018190556003860184905560408051848152602081018490528082019290925260608201859052517fa2b71ec6df949300b59aab36b55e189697b750119dd349fcfa8c0f779e83c2549181900360800190a15050505050565b610c18612b7f565b6000826001600160a01b03166318160ddd6040518163ffffffff1660e01b815260040160206040518083038186803b158015610c5357600080fd5b505afa158015610c67573d6000803e3d6000fd5b505050506040513d601f19601f82011682018060405250810190610c8b9190612f17565b90506000610c9a8787846121cf565b60405163079cc67960e41b8152336004820152602481018990529091506001600160a01b038516906379cc679090604401600060405180830381600087803b158015610ce557600080fd5b505af1158015610cf9573d6000803e3d6000fd5b5050505060005b6002811015610dea57858160028110610d1b57610d1b6132eb565b6020020135828260028110610d3257610d326132eb565b60200201511015610d855760405162461bcd60e51b815260206004820152601a60248201527f616d6f756e74735b695d203c206d696e416d6f756e74735b695d000000000000604482015260640161051e565b610dd833838360028110610d9b57610d9b6132eb565b6020020151898460028110610db257610db26132eb565b604002016000016020810190610dc89190612dd4565b6001600160a01b03169190612167565b80610de2816132ba565b915050610d00565b50337fdd3c0336a16f1b64f172b7bb0dad5b2b3c7c76f91e8c4aafd6aae60dce80015382610e188a86613277565b604051610e269291906130b9565b60405180910390a29150505b949350505050565b6402540be400811115610e815760405162461bcd60e51b815260206004820152600f60248201526e08ccaca40d2e640e8dede40d0d2ced608b1b604482015260640161051e565b600182018190556040518181527fab599d640ca80cde2b09b128a4154a8dfe608cb80f4c9399c8b954b01fd35f38906020015b60405180910390a15050565b610ec8612b7f565b6000826001600160a01b03166318160ddd6040518163ffffffff1660e01b815260040160206040518083038186803b158015610f0357600080fd5b505afa158015610f17573d6000803e3d6000fd5b505050506040513d601f19601f82011682018060405250810190610f3b9190612f17565b90506000610f4a8686846121cf565b925050505b9392505050565b6305f5e100811115610f9c5760405162461bcd60e51b815260206004820152600f60248201526e08ccaca40d2e640e8dede40d0d2ced608b1b604482015260640161051e565b8082556040518181527fd88ea5155021c6f8dafa1a741e173f595cdf77ce7c17d43342131d7f06afdfe590602001610eb4565b600080604051806101200160405280600081526020016000815260200160008152602001610ffc87611e8e565b8152602001846001600160a01b0316815260200160008152602001898152602001604051806040016040528060008152602001600081525081526020016040518060400160405280600081526020016000815250815250905080608001516001600160a01b03166318160ddd6040518163ffffffff1660e01b815260040160206040518083038186803b15801561109257600080fd5b505afa1580156110a6573d6000803e3d6000fd5b505050506040513d601f19601f820116820180604052508101906110ca9190612f17565b60a08201819052156111415760006110e2898261045f565b905060006110f18a600161045f565b604080518082019091528381526020810182905260e085015290506000611119838c8361049d565b90506000611129838d600161049d565b905061113a82828760600151611fb1565b8552505050505b60005b60028110156111a45761119233308a8460028110611164576111646132eb565b60200201518c856002811061117b5761117b6132eb565b6020020151516001600160a01b03169291906122b7565b8061119c816132ba565b915050611144565b5060006111b1898261045f565b905060006111c08a600161045f565b6040805180820190915283815260208101829052610100850152905060006111e9838c8361049d565b905060006111f9838d600161049d565b905061120a82828760600151611fb1565b6020860181905285511061124b5760405162461bcd60e51b815260206004820152600860248201526704431203c3d2044360c41b604482015260640161051e565b5050506020820151604083015250611261612b7f565b60a0820151156113fe57600061127a8660000154612135565b905060005b60028110156113b157600084600001518560e0015183600281106112a5576112a56132eb565b602002015186602001516112b99190613258565b6112c39190613148565b90506402540be4006112e58661010001518460028110610691576106916132eb565b6112ef9085613258565b6112f99190613148565b506402540be40061131a8661010001518460028110610691576106916132eb565b6113249085613258565b61132e9190613148565b848360028110611340576113406132eb565b6020020152838260028110611357576113576132eb565b60200201518561010001518360028110611373576113736132eb565b60200201516113829190613277565b8561010001518360028110611399576113996132eb565b602002015250806113a9816132ba565b91505061127f565b506101008301516000906113c59082610779565b905060006113e48561010001516001600281106107a5576107a56132eb565b90506113f582828760600151611fb1565b60408601525050505b60008260a001516000141561141857506020820151611446565b825160a0840151604085015161142f908390613277565b6114399190613258565b6114439190613148565b90505b878110156114965760405162461bcd60e51b815260206004820152601b60248201527f436f756c646e2774206d696e74206d696e207265717565737465640000000000604482015260640161051e565b60808301516040516340c10f1960e01b8152336004820152602481018390526001600160a01b03909116906340c10f1990604401600060405180830381600087803b1580156114e457600080fd5b505af11580156114f8573d6000803e3d6000fd5b50505050336001600160a01b03167f26f55a85081d24974e85c6c00045d0f0453991e95873f52bff0d21af4079a7688a848660200151858860a0015161153e9190613130565b60405161154e949392919061308c565b60405180910390a29998505050505050505050565b600061156e82611e8e565b92915050565b805460009061156e906001600160a01b0316611f2b565b835460009081906115b2906115a8906001600160a01b0316611f2b565b8760010154611fa5565b85549091506000906115d0906115a8906001600160a01b0316611f2b565b905060006115e783836115e289611e8e565b611fb1565b90506000856001600160a01b03166318160ddd6040518163ffffffff1660e01b815260040160206040518083038186803b15801561162457600080fd5b505afa158015611638573d6000803e3d6000fd5b505050506040513d601f19601f8201168201806040525081019061165c9190612f17565b9050801561169057806116716012600a6131ad565b61167b9084613258565b6116859190613148565b945050505050610e32565b50600098975050505050505050565b600080826001600160a01b03166318160ddd6040518163ffffffff1660e01b815260040160206040518083038186803b1580156116db57600080fd5b505afa1580156116ef573d6000803e3d6000fd5b505050506040513d601f19601f820116820180604052508101906117139190612f17565b6040516370a0823160e01b81523360048201529091506001600160a01b038416906370a082319060240160206040518083038186803b15801561175557600080fd5b505afa158015611769573d6000803e3d6000fd5b505050506040513d601f19601f8201168201806040525081019061178d9190612f17565b8911156117cc5760405162461bcd60e51b815260206004820152600d60248201526c1f2628173130b630b731b2a7b360991b604482015260640161051e565b60006117dc8a8a8a858a8a6122f5565b509050868110156118205760405162461bcd60e51b815260206004820152600e60248201526d191e480f081b5a5b905b5bdd5b9d60921b604482015260640161051e565b8854611836906001600160a01b03163383612167565b60405163079cc67960e41b8152336004820152602481018b90526001600160a01b038516906379cc679090604401600060405180830381600087803b15801561187e57600080fd5b505af1158015611892573d6000803e3d6000fd5b50508a54604080518e8152602081018790526001600160a01b0390921690820152606081018490523392507fba12cf5924628c5ee284b041a95cfab90fcf2c395258d4d1a8d5858d389c1fa4915060800160405180910390a29998505050505050505050565b4281600301541161194b5760405162461bcd60e51b815260206004820152601760248201527f52616d7020697320616c72656164792073746f70706564000000000000000000604482015260640161051e565b600061195682611e8e565b808355600183018190554260028401819055600384018190556040519192507f46e22fb3709ad289f62ce63d469248536dbc78d82b84a3d7e74ad606dc20193891610eb491848252602082015260400190565b600060646119b683611e8e565b61156e9190613148565b6000806119cc84611e8e565b8851602001519091506000908190816119e58c8261045f565b90506119f18183611fa5565b935088158015611a1957508a8a6000818110611a0f57611a0f6132eb565b9050602002013581105b15611a5e5760405162461bcd60e51b8152602060048201526015602482015274414d4f554e545f455843454544535f535550504c5960581b604482015260640161051e565b611abb89611a90578b8b6000818110611a7957611a796132eb565b9050602002013582611a8b9190613277565b611ab5565b8b8b6000818110611aa357611aa36132eb565b9050602002013582611ab59190613130565b83611fa5565b6020808e015101519093506000925082915081611ad98e600161045f565b9050611ae58183611fa5565b93508a158015611b0d57508c8c6001818110611b0357611b036132eb565b9050602002013581105b15611b525760405162461bcd60e51b8152602060048201526015602482015274414d4f554e545f455843454544535f535550504c5960581b604482015260640161051e565b611b808b611b6d578d8d6001818110611a7957611a796132eb565b8d8d6001818110611aa357611aa36132eb565b925050506000611b91858488611fb1565b90506000611ba0858489611fb1565b90506000896001600160a01b03166318160ddd6040518163ffffffff1660e01b815260040160206040518083038186803b158015611bdd57600080fd5b505afa158015611bf1573d6000803e3d6000fd5b505050506040513d601f19601f82011682018060405250810190611c159190612f17565b90508b15611c59578015611c48578281611c2f8285613277565b611c399190613258565b611c439190613148565b611c4a565b815b985050505050505050506109be565b8281611c658483613277565b611c6f9190613258565b611c4a9190613148565b85546040516370a0823160e01b81523360048201526000916001600160a01b0316906370a082319060240160206040518083038186803b158015611cbc57600080fd5b505afa158015611cd0573d6000803e3d6000fd5b505050506040513d601f19601f82011682018060405250810190611cf49190612f17565b851115611d525760405162461bcd60e51b815260206004820152602660248201527f45524332303a207472616e7366657220616d6f756e7420657863656564732062604482015265616c616e636560d01b606482015260840161051e565b600080611d628989898888612357565b909250905085821015611db75760405162461bcd60e51b815260206004820181905260248201527f53776170206469646e277420726573756c7420696e206d696e20746f6b656e73604482015260640161051e565b600088600101546402540be400866001015484611dd49190613258565b611dde9190613148565b611de89190613148565b8a54909150611e02906001600160a01b031633308b6122b7565b8854611e18906001600160a01b03163385612167565b8954604080516001600160a01b039092168252602082018a9052810184905233907ffa2dda1cc1b86e41239702756b13effbc1a092b5c57e3ad320fbe4f3b13fe2359060600160405180910390a2509098975050505050505050565b6000611e838686868686612357565b509695505050505050565b600381015460018201546000919042821115610f4f576002840154845480831115611eef57611ebd8285613277565b611ec78342613277565b611ed18386613277565b611edb9190613258565b611ee59190613148565b6109be9082613130565b611ef98285613277565b611f038342613277565b611f0d8584613277565b611f179190613258565b611f219190613148565b6109be9082613277565b6040516370a0823160e01b81523060048201526000906001600160a01b038316906370a082319060240160206040518083038186803b158015611f6d57600080fd5b505afa158015611f81573d6000803e3d6000fd5b505050506040513d601f19601f8201168201806040525081019061156e9190612f17565b6000610f4f8284613258565b600080611fbe8486613130565b905080611fcf576000915050610f4f565b60008181611fde600287613258565b905060005b6101008110156120f65782611ff960028b613258565b6120038583613258565b61200d9190613148565b905061201a60028a613258565b6120248583613258565b61202e9190613148565b90508394506000846002836120439190613258565b606461204f8a88613258565b6120599190613148565b6120639190613130565b61206d9190613258565b905060008261207e60026001613130565b6120889190613258565b6064876120958289613277565b61209f9190613258565b6120a99190613148565b6120b39190613130565b90506120bf8183613148565b95506120cb868861244b565b156120e0578598505050505050505050610f4f565b50505080806120ee906132ba565b915050611fe3565b5060405162461bcd60e51b81526020600482015260136024820152724420646f6573206e6f7420636f6e766572676560681b604482015260640161051e565b600061156e600283613148565b60008183111561215d576121568284613277565b905061156e565b610f4f8383613277565b6040516001600160a01b0383166024820152604481018290526121ca90849063a9059cbb60e01b906064015b60408051601f198184030181529190526020810180516001600160e01b03166001600160e01b031990931692909217909152612462565b505050565b6121d7612b7f565b818411156122275760405162461bcd60e51b815260206004820152601a60248201527f43616e6e6f742065786365656420746f74616c20737570706c79000000000000604482015260640161051e565b61222f612b7f565b60005b60028110156122ae57600061226d868360028110612252576122526132eb565b6040020160000160208101906122689190612dd4565b611f2b565b90508461227a8883613258565b6122849190613148565b838360028110612296576122966132eb565b602002015250806122a6816132ba565b915050612232565b50949350505050565b6040516001600160a01b03808516602483015283166044820152606481018290526122ef9085906323b872dd60e01b90608401612193565b50505050565b60008060008060006123148b8b8b8b61230d8c611e8e565b8b54612534565b60018d0154929550909350915060009084906123308585613277565b61233a9190613148565b6123449190613277565b939c939b50929950505050505050505050565b845460009081908190612372906001600160a01b0316611f2b565b90506000612384828a60010154611fa5565b885490915060009061239e906001600160a01b0316611f2b565b905060006123b0828b60010154611fa5565b90506000836123c38b8e60010154611fa5565b6123cd9190613130565b905060006123e56123dd8b611e8e565b868585612781565b905060016123f38285613277565b6123fd9190613277565b89549098506402540be40090612413908a613258565b61241d9190613148565b60018d015490975061242f888a613277565b6124399190613148565b97505050505050509550959350505050565b600060016124598484612142565b11159392505050565b60006124b7826040518060400160405280602081526020017f5361666545524332303a206c6f772d6c6576656c2063616c6c206661696c6564815250856001600160a01b03166128e29092919063ffffffff16565b8051909150156121ca57808060200190518101906124d59190612db7565b6121ca5760405162461bcd60e51b815260206004820152602a60248201527f5361666545524332303a204552433230206f7065726174696f6e20646964206e6044820152691bdd081cdd58d8d9595960b21b606482015260840161051e565b8454600090819081908190612551906001600160a01b0316611f2b565b90506000612563828b60010154611fa5565b895490915060009061257d906001600160a01b0316611f2b565b9050600061258f828c60010154611fa5565b6040805160a0810182526000808252602082018190529181018290526060810191909152608081018b90529091506125c882858c611fb1565b8160000181815250508a81600001518f6125e29190613258565b6125ec9190613148565b81516125f89190613277565b6020820152838e111561264d5760405162461bcd60e51b815260206004820152601860248201527f414d4f554e545f455843454544535f415641494c41424c450000000000000000604482015260640161051e565b61266081608001518383602001516128f1565b604082015261266e89612135565b606082018190526040820151825160208401516000936402540be4009390929091612699908a613258565b6126a39190613148565b6126ad9190613277565b6126b79190613258565b6126c19190613148565b6126cb9086613277565b905060006402540be400836060015184600001518560200151876126ef9190613258565b6126f99190613148565b6127039087613277565b61270d9190613258565b6127179190613148565b6127219085613277565b9050600061273884608001518386602001516128f1565b6127429084613277565b90508f600101546001826127569190613277565b6127609190613148565b604090940151939a5092985094965050505050505096509650969350505050565b60008061278f858588611fb1565b9050600061279e876002613258565b905060006127ad600286613258565b6127b78480613258565b6127c19190613148565b90506127ce600283613258565b60646127da8584613258565b6127e49190613258565b6127ee9190613148565b90506000826127fe606486613258565b6128089190613148565b6128129087613130565b9050600084815b6101008110156128995781925086848360026128359190613258565b61283f9190613130565b6128499190613277565b856128548480613258565b61285e9190613130565b6128689190613148565b9150612874828461244b565b1561288757509550610e32945050505050565b80612891816132ba565b915050612819565b5060405162461bcd60e51b815260206004820152601e60248201527f417070726f78696d6174696f6e20646964206e6f7420636f6e76657267650000604482015260640161051e565b6060610e328484600085612a09565b6000806128ff600285613258565b6129098480613258565b6129139190613148565b9050836000612923600288613258565b9050612930600282613258565b606461293c8786613258565b6129469190613258565b6129509190613148565b9250600081612960606488613258565b61296a9190613148565b6129749084613130565b9050600086815b6101008110156128995781925060008783846129979190613258565b6129a19190613130565b905060008a866129b2866002613258565b6129bc9190613130565b6129c69190613277565b90506129d28183613148565b93506129de848661244b565b156129f457839950505050505050505050610f4f565b50508080612a01906132ba565b91505061297b565b606082471015612a6a5760405162461bcd60e51b815260206004820152602660248201527f416464726573733a20696e73756666696369656e742062616c616e636520666f6044820152651c8818d85b1b60d21b606482015260840161051e565b600080866001600160a01b03168587604051612a86919061303f565b60006040518083038185875af1925050503d8060008114612ac3576040519150601f19603f3d011682016040523d82523d6000602084013e612ac8565b606091505b5091509150612ad987838387612ae4565b979650505050505050565b60608315612b50578251612b49576001600160a01b0385163b612b495760405162461bcd60e51b815260206004820152601d60248201527f416464726573733a2063616c6c20746f206e6f6e2d636f6e7472616374000000604482015260640161051e565b5081610e32565b610e328383815115612b655781518083602001fd5b8060405162461bcd60e51b815260040161051e91906130d4565b60405180604001604052806002906020820280368337509192915050565b806080810183101561156e57600080fd5b600082601f830112612bbf57600080fd5b612bc7613107565b808385608086011115612bd957600080fd5b6000805b6002811015612c4457604080848a031215612bf6578283fd5b805181810181811067ffffffffffffffff82111715612c1757612c17613301565b82528435612c2481613328565b815260208581013581830152908752959095019490920191600101612bdd565b50919695505050505050565b8035612c5b81613317565b919050565b8035612c5b81613328565b6000806000806000806101408789031215612c8557600080fd5b612c8f8888612bae565b955087609f880112612ca057600080fd5b612ca8613107565b806080890160c08a018b811115612cbe57600080fd5b60005b6002811015612ce0578235855260209485019490920191600101612cc1565b50919750503594505060e087013592506101008701359150612d056101208801612c60565b90509295509295509295565b6000806000806000806101008789031215612d2b57600080fd5b612d358888612bae565b9550608087013567ffffffffffffffff80821115612d5257600080fd5b818901915089601f830112612d6657600080fd5b813581811115612d7557600080fd5b8a60208260051b8501011115612d8a57600080fd5b602083019750809650505050612da260a08801612c50565b925060c08701359150612d0560e08801612c60565b600060208284031215612dc957600080fd5b8151610f4f81613317565b600060208284031215612de657600080fd5b8135610f4f81613328565b600060208284031215612e0357600080fd5b5035919050565b600080600060608486031215612e1f57600080fd5b505081359360208301359350604090920135919050565b60008060408385031215612e4957600080fd5b50508035926020909101359150565b60008060008060808587031215612e6e57600080fd5b8435935060208501359250604085013591506060850135612e8e81613328565b939692955090935050565b600080600080600060a08688031215612eb157600080fd5b505083359560208501359550604085013594606081013594506080013592509050565b60008060008060008060c08789031215612eed57600080fd5b505084359660208601359650604086013595606081013595506080810135945060a0013592509050565b600060208284031215612f2957600080fd5b5051919050565b6000806000806101008587031215612f4757600080fd5b84359350612f588660208701612b9d565b925060e0850186811115612f6b57600080fd5b60a08601925035612e8e81613328565b600080600060c08486031215612f9057600080fd5b83359250612fa18560208601612b9d565b915060a0840135612fb181613328565b809150509250925092565b600080600080600080600060e0888a031215612fd757600080fd5b873596506020880135955060408801359450606088013593506080880135925060a0880135915060c088013561300c81613328565b8091505092959891949750929550565b8060005b60028110156122ef578151845260209384019390910190600101613020565b6000825161305181846020870161328e565b9190910192915050565b60408101818360005b6002811015613083578151835260209283019290910190600101613064565b50505092915050565b60c0810161309a828761301c565b6130a7604083018661301c565b608082019390935260a0015292915050565b606081016130c7828561301c565b8260408301529392505050565b60208152600082518060208401526130f381604085016020870161328e565b601f01601f19169190910160400192915050565b6040805190810167ffffffffffffffff8111828210171561312a5761312a613301565b60405290565b60008219821115613143576131436132d5565b500190565b60008261316557634e487b7160e01b600052601260045260246000fd5b500490565b600181815b808511156131a557816000190482111561318b5761318b6132d5565b8085161561319857918102915b93841c939080029061316f565b509250929050565b6000610f4f60ff8416836000826131c65750600161156e565b816131d35750600061156e565b81600181146131e957600281146131f35761320f565b600191505061156e565b60ff841115613204576132046132d5565b50506001821b61156e565b5060208310610133831016604e8410600b8410161715613232575081810a61156e565b61323c838361316a565b8060001904821115613250576132506132d5565b029392505050565b6000816000190483118215151615613272576132726132d5565b500290565b600082821015613289576132896132d5565b500390565b60005b838110156132a9578181015183820152602001613291565b838111156122ef5750506000910152565b60006000198214156132ce576132ce6132d5565b5060010190565b634e487b7160e01b600052601160045260246000fd5b634e487b7160e01b600052603260045260246000fd5b634e487b7160e01b600052604160045260246000fd5b801515811461332557600080fd5b50565b6001600160a01b038116811461332557600080fdfea26469706673582212206ed54ed6ae04ffac351e5ca22b88fc12efda75b27e18c307a246fe9920318c8b64736f6c63430008070033",
    "linkReferences": {}
  },
  "methodIdentifiers": {
    "A_PRECISION()": "d011f918",
    "MAX_A()": "39698415",
    "MAX_ADMIN_FEE()": "f3de0362",
    "MAX_SWAP_FEE()": "ab3d8544",
    "POOL_PRECISION_DECIMALS()": "0296ab50",
    "addLiquidity(SwapUtils.PooledToken[2],uint256[2],uint256,SwapUtils.Amplification storage,SwapUtils.FeeParams storage,LiquidityPoolToken)": "5aa533ee",
    "calculateRemoveLiquidity(uint256,SwapUtils.PooledToken[2],LiquidityPoolToken)": "296104cd",
    "calculateSwap(SwapUtils.PooledToken storage,SwapUtils.PooledToken storage,uint256,SwapUtils.Amplification storage,SwapUtils.FeeParams storage)": "e5537d20",
    "calculateTokenAmount(SwapUtils.PooledToken[2],uint256[],bool,SwapUtils.Amplification storage,LiquidityPoolToken)": "cb6802c8",
    "getA(SwapUtils.Amplification storage)": "c15dc17c",
    "getAPrecise(SwapUtils.Amplification storage)": "5d5c4f96",
    "getTokenBalance(SwapUtils.PooledToken storage)": "6cc631fa",
    "getVirtualPrice(SwapUtils.PooledToken storage,SwapUtils.PooledToken storage,SwapUtils.Amplification storage,LiquidityPoolToken)": "809d0648",
    "rampA(SwapUtils.Amplification storage,uint256,uint256)": "14f685c3",
    "removeLiquidity(uint256,SwapUtils.PooledToken[2],uint256[2],LiquidityPoolToken)": "26579429",
    "removeLiquidityImbalance(SwapUtils.PooledToken[2],uint256[2],uint256,SwapUtils.Amplification storage,SwapUtils.FeeParams storage,LiquidityPoolToken)": "02eb2c22",
    "removeLiquidityOneToken(uint256,SwapUtils.PooledToken storage,SwapUtils.PooledToken storage,uint256,SwapUtils.Amplification storage,SwapUtils.FeeParams storage,LiquidityPoolToken)": "a7abb396",
    "setAdminFee(SwapUtils.FeeParams storage,uint256)": "27d04775",
    "setSwapFee(SwapUtils.FeeParams storage,uint256)": "44b4519c",
    "stopRampA(SwapUtils.Amplification storage)": "b0845bc5",
    "swap(SwapUtils.PooledToken storage,SwapUtils.PooledToken storage,uint256,uint256,SwapUtils.Amplification storage,SwapUtils.FeeParams storage)": "cbab294f"
  },
  "id": 50
}