{
  "abi": [
    {
      "anonymous": false,
      "inputs": [
        {
          "indexed": true,
          "internalType": "address",
          "name": "provider",
          "type": "address"
        },
        {
          "indexed": false,
          "internalType": "uint256[2]",
          "name": "tokenAmounts",
          "type": "uint256[2]"
        },
        {
          "indexed": false,
          "internalType": "uint256[2]",
          "name": "fees",
          "type": "uint256[2]"
        },
        {
          "indexed": false,
          "internalType": "uint256",
          "name": "invariant",
          "type": "uint256"
        },
        {
          "indexed": false,
          "internalType": "uint256",
          "name": "lpTokenSupply",
          "type": "uint256"
        }
      ],
      "name": "AddLiquidity",
      "type": "event"
    },
    {
      "anonymous": false,
      "inputs": [
        {
          "indexed": false,
          "internalType": "uint256",
          "name": "newAdminFee",
          "type": "uint256"
        }
      ],
      "name": "NewAdminFee",
      "type": "event"
    },
    {
      "anonymous": false,
      "inputs": [
        {
          "indexed": false,
          "internalType": "uint256",
          "name": "newSwapFee",
          "type": "uint256"
        }
      ],
      "name": "NewSwapFee",
      "type": "event"
    },
    {
      "anonymous": false,
      "inputs": [
        {
          "indexed": false,
          "internalType": "uint256",
          "name": "oldA",
          "type": "uint256"
        },
        {
          "indexed": false,
          "internalType": "uint256",
          "name": "newA",
          "type": "uint256"
        },
        {
          "indexed": false,
          "internalType": "uint256",
          "name": "initialTime",
          "type": "uint256"
        },
        {
          "indexed": false,
          "internalType": "uint256",
          "name": "futureTime",
          "type": "uint256"
        }
      ],
      "name": "RampA",
      "type": "event"
    },
    {
      "anonymous": false,
      "inputs": [
        {
          "indexed": true,
          "internalType": "address",
          "name": "provider",
          "type": "address"
        },
        {
          "indexed": false,
          "internalType": "uint256[2]",
          "name": "tokenAmounts",
          "type": "uint256[2]"
        },
        {
          "indexed": false,
          "internalType": "uint256",
          "name": "lpTokenSupply",
          "type": "uint256"
        }
      ],
      "name": "RemoveLiquidity",
      "type": "event"
    },
    {
      "anonymous": false,
      "inputs": [
        {
          "indexed": true,
          "internalType": "address",
          "name": "provider",
          "type": "address"
        },
        {
          "indexed": false,
          "internalType": "uint256[2]",
          "name": "tokenAmounts",
          "type": "uint256[2]"
        },
        {
          "indexed": false,
          "internalType": "uint256[2]",
          "name": "fees",
          "type": "uint256[2]"
        },
        {
          "indexed": false,
          "internalType": "uint256",
          "name": "invariant",
          "type": "uint256"
        },
        {
          "indexed": false,
          "internalType": "uint256",
          "name": "lpTokenSupply",
          "type": "uint256"
        }
      ],
      "name": "RemoveLiquidityImbalance",
      "type": "event"
    },
    {
      "anonymous": false,
      "inputs": [
        {
          "indexed": true,
          "internalType": "address",
          "name": "provider",
          "type": "address"
        },
        {
          "indexed": false,
          "internalType": "uint256",
          "name": "lpTokenAmount",
          "type": "uint256"
        },
        {
          "indexed": false,
          "internalType": "uint256",
          "name": "lpTokenSupply",
          "type": "uint256"
        },
        {
          "indexed": false,
          "internalType": "contract IERC20",
          "name": "tokenReceived",
          "type": "address"
        },
        {
          "indexed": false,
          "internalType": "uint256",
          "name": "receivedAmount",
          "type": "uint256"
        }
      ],
      "name": "RemoveLiquidityOne",
      "type": "event"
    },
    {
      "anonymous": false,
      "inputs": [
        {
          "indexed": false,
          "internalType": "uint256",
          "name": "currentA",
          "type": "uint256"
        },
        {
          "indexed": false,
          "internalType": "uint256",
          "name": "time",
          "type": "uint256"
        }
      ],
      "name": "StopRampA",
      "type": "event"
    },
    {
      "anonymous": false,
      "inputs": [
        {
          "indexed": true,
          "internalType": "address",
          "name": "buyer",
          "type": "address"
        },
        {
          "indexed": false,
          "internalType": "contract IERC20",
          "name": "tokenSold",
          "type": "address"
        },
        {
          "indexed": false,
          "internalType": "uint256",
          "name": "amountSold",
          "type": "uint256"
        },
        {
          "indexed": false,
          "internalType": "uint256",
          "name": "amountReceived",
          "type": "uint256"
        }
      ],
      "name": "Swap",
      "type": "event"
    },
    {
      "inputs": [],
      "name": "A_PRECISION",
      "outputs": [
        {
          "internalType": "uint256",
          "name": "",
          "type": "uint256"
        }
      ],
      "stateMutability": "view",
      "type": "function"
    },
    {
      "inputs": [],
      "name": "MAX_A",
      "outputs": [
        {
          "internalType": "uint256",
          "name": "",
          "type": "uint256"
        }
      ],
      "stateMutability": "view",
      "type": "function"
    },
    {
      "inputs": [],
      "name": "MAX_ADMIN_FEE",
      "outputs": [
        {
          "internalType": "uint256",
          "name": "",
          "type": "uint256"
        }
      ],
      "stateMutability": "view",
      "type": "function"
    },
    {
      "inputs": [],
      "name": "MAX_SWAP_FEE",
      "outputs": [
        {
          "internalType": "uint256",
          "name": "",
          "type": "uint256"
        }
      ],
      "stateMutability": "view",
      "type": "function"
    },
    {
      "inputs": [],
      "name": "POOL_PRECISION_DECIMALS",
      "outputs": [
        {
          "internalType": "uint8",
          "name": "",
          "type": "uint8"
        }
      ],
      "stateMutability": "view",
      "type": "function"
    },
    {
      "inputs": [
        {
          "internalType": "uint256",
          "name": "amount",
          "type": "uint256"
        },
        {
          "components": [
            {
              "internalType": "contract IERC20",
              "name": "token",
              "type": "IERC20"
            },
            {
              "internalType": "uint256",
              "name": "precisionMultiplier",
              "type": "uint256"
            }
          ],
          "internalType": "struct SwapUtils.PooledToken[2]",
          "name": "tokens",
          "type": "tuple[2]"
        },
        {
          "internalType": "contract LiquidityPoolToken",
          "name": "lpToken",
          "type": "LiquidityPoolToken"
        }
      ],
      "name": "calculateRemoveLiquidity",
      "outputs": [
        {
          "internalType": "uint256[2]",
          "name": "",
          "type": "uint256[2]"
        }
      ],
      "stateMutability": "view",
      "type": "function"
    }
  ],
  "bytecode": {
    "object": "0x6132c261003a600b82828239805160001a60731461002d57634e487b7160e01b600052600060045260246000fd5b30600052607381538281f3fe73000000000000000000000000000000000000000030146080604052600436106101415760003560e01c80636cc631fa116100c2578063c15dc17c11610086578063c15dc17c146102e3578063cb6802c8146102f6578063cbab294f14610309578063d011f91814610329578063e5537d2014610331578063f3de03621461034457600080fd5b80636cc631fa14610272578063809d064814610285578063a7abb39614610298578063ab3d8544146102b8578063b0845bc5146102c357600080fd5b8063296104cd11610109578063296104cd14610202578063396984151461021557806344b4519c1461021f5780635aa533ee1461023f5780635d5c4f961461025f57600080fd5b80630296ab501461014657806302eb2c221461016557806314f685c31461019357806326579429146101b557806327d04775146101e2575b600080fd5b61014e601281565b60405160ff90911681526020015b60405180910390f35b81801561017157600080fd5b50610185610180366004612c15565b610350565b60405190815260200161015c565b81801561019f57600080fd5b506101b36101ae366004612cb1565b6109bc565b005b8180156101c157600080fd5b506101d56101d0366004612cee565b610c04565b60405161015c9190612d44565b8180156101ee57600080fd5b506101b36101fd366004612d75565b610e1f565b6101d5610210366004612d97565b610ea5565b610185620f424081565b81801561022b57600080fd5b506101b361023a366004612d75565b610f2c565b81801561024b57600080fd5b5061018561025a366004612c15565b610fa5565b61018561026d366004612dd8565b611529565b610185610280366004612dd8565b61153a565b610185610293366004612df1565b611551565b8180156102a457600080fd5b506101856102b3366004612e27565b611656565b6101856305f5e10081565b8180156102cf57600080fd5b506101b36102de366004612dd8565b611891565b6101856102f1366004612dd8565b611942565b610185610304366004612ea0565b611959565b81801561031557600080fd5b50610185610324366004612f46565b611c03565b610185606481565b61018561033f366004612f89565b611def565b6101856402540be40081565b60008060405180610120016040528060008152602001600081526020016000815260200161037d87611e09565b8152602001846001600160a01b0316815260200160008152602001898152602001604051806040016040528060008152602001600081525081526020016040518060400160405280600081526020016000815250815250905080608001516001600160a01b03166318160ddd6040518163ffffffff1660e01b8152600401602060405180830381865afa158015610418573d6000803e3d6000fd5b505050506040513d601f19601f8201168201806040525081019061043c9190612fc4565b60a08201819052156104c457600061045b89825b602002015151611ea6565b9050600061046a8a6001610450565b604080518082019091528381526020810182905260e08501529050600061049c838c835b602002015160200151611f11565b905060006104ac838d600161048e565b90506104bd82828760600151611f1d565b8552505050505b865160e08201515110156105185760405162461bcd60e51b8152602060048201526016602482015275414d4f554e545f455843454544535f42414c414e434560501b60448201526064015b60405180910390fd5b60208088015160e083015190910151101561056e5760405162461bcd60e51b8152602060048201526016602482015275414d4f554e545f455843454544535f42414c414e434560501b604482015260640161050f565b865160e08201515160009161058291613009565b90506000886001602002015160e0840151600160200201516105a49190613009565b6040805180820190915283815260208101829052610100850152905060006105cd838c8361048e565b905060006105dd838d600161048e565b90506105ee82828760600151611f1d565b602086018190526040860152506106089250612af1915050565b600061061786600001546120a4565b905060005b600281101561075a57600084600001518560e00151836002811061064257610642612fdd565b60200201518660200151610656919061301c565b6106609190613033565b90506402540be40061068e866101000151846002811061068257610682612fdd565b602002015183906120b1565b610698908561301c565b6106a29190613033565b506402540be4006106c3866101000151846002811061068257610682612fdd565b6106cd908561301c565b6106d79190613033565b8483600281106106e9576106e9612fdd565b602002015283826002811061070057610700612fdd565b6020020151856101000151836002811061071c5761071c612fdd565b602002015161072b9190613009565b856101000151836002811061074257610742612fdd565b6020020152508061075281613055565b91505061061c565b5061010083015160009061077790825b60200201518c600061048e565b905060006107a385610100015160016002811061079657610796612fdd565b60200201518d600161048e565b90506107b482828760600151611f1d565b60408601819052855160a087015160009450909250906107d49083613009565b6107de919061301c565b6107e89190613033565b90508060000361083a5760405162461bcd60e51b815260206004820152601b60248201527f4275726e7420616d6f756e742063616e6e6f74206265207a65726f0000000000604482015260640161050f565b8881111561088a5760405162461bcd60e51b815260206004820152601b60248201527f746f6b656e416d6f756e74203e206d61784275726e416d6f756e740000000000604482015260640161050f565b608084015160405163079cc67960e41b8152336004820152602481018390526001600160a01b03909116906379cc679090604401600060405180830381600087803b1580156108d857600080fd5b505af11580156108ec573d6000803e3d6000fd5b5050505060005b60028110156109515761093f338c836002811061091257610912612fdd565b60200201518e846002811061092957610929612fdd565b6020020151516001600160a01b031691906120d6565b8061094981613055565b9150506108f3565b50336001600160a01b03167f2b5508378d7e19e0d5fa338419034731416c4f5b219a10379956f764317fd47e8b858760200151858960a001516109949190613009565b6040516109a49493929190613091565b60405180910390a293505050505b9695505050505050565b60028301546109ce90620151806130be565b421015610a1d5760405162461bcd60e51b815260206004820152601f60248201527f57616974203120646179206265666f7265207374617274696e672072616d7000604482015260640161050f565b610a2a62127500426130be565b811015610a725760405162461bcd60e51b8152602060048201526016602482015275496e73756666696369656e742072616d702074696d6560501b604482015260640161050f565b600082118015610a845750620f424082105b610ad05760405162461bcd60e51b815260206004820181905260248201527f667574757265415f206d757374206265203e203020616e64203c204d41585f41604482015260640161050f565b6000610adb84611e09565b90506000610aea60648561301c565b905081811015610b4b5781610b0060028361301c565b1015610b465760405162461bcd60e51b8152602060048201526015602482015274199d5d1d5c995057c81a5cc81d1bdbc81cdb585b1b605a1b604482015260640161050f565b610b9d565b610b5660028361301c565b811115610b9d5760405162461bcd60e51b8152602060048201526015602482015274667574757265415f20697320746f6f206c6172676560581b604482015260640161050f565b8185556001850181905542600286018190556003860184905560408051848152602081018490528082019290925260608201859052517fa2b71ec6df949300b59aab36b55e189697b750119dd349fcfa8c0f779e83c2549181900360800190a15050505050565b610c0c612af1565b6000826001600160a01b03166318160ddd6040518163ffffffff1660e01b8152600401602060405180830381865afa158015610c4c573d6000803e3d6000fd5b505050506040513d601f19601f82011682018060405250810190610c709190612fc4565b90506000610c7f87878461213e565b60405163079cc67960e41b8152336004820152602481018990529091506001600160a01b038516906379cc679090604401600060405180830381600087803b158015610cca57600080fd5b505af1158015610cde573d6000803e3d6000fd5b5050505060005b6002811015610dcf57858160028110610d0057610d00612fdd565b6020020135828260028110610d1757610d17612fdd565b60200201511015610d6a5760405162461bcd60e51b815260206004820152601a60248201527f616d6f756e74735b695d203c206d696e416d6f756e74735b695d000000000000604482015260640161050f565b610dbd33838360028110610d8057610d80612fdd565b6020020151898460028110610d9757610d97612fdd565b604002016000016020810190610dad91906130d1565b6001600160a01b031691906120d6565b80610dc781613055565b915050610ce5565b50337fdd3c0336a16f1b64f172b7bb0dad5b2b3c7c76f91e8c4aafd6aae60dce80015382610dfd8a86613009565b604051610e0b9291906130ee565b60405180910390a29150505b949350505050565b6402540be400811115610e665760405162461bcd60e51b815260206004820152600f60248201526e08ccaca40d2e640e8dede40d0d2ced608b1b604482015260640161050f565b600182018190556040518181527fab599d640ca80cde2b09b128a4154a8dfe608cb80f4c9399c8b954b01fd35f38906020015b60405180910390a15050565b610ead612af1565b6000826001600160a01b03166318160ddd6040518163ffffffff1660e01b8152600401602060405180830381865afa158015610eed573d6000803e3d6000fd5b505050506040513d601f19601f82011682018060405250810190610f119190612fc4565b90506000610f2086868461213e565b925050505b9392505050565b6305f5e100811115610f725760405162461bcd60e51b815260206004820152600f60248201526e08ccaca40d2e640e8dede40d0d2ced608b1b604482015260640161050f565b8082556040518181527fd88ea5155021c6f8dafa1a741e173f595cdf77ce7c17d43342131d7f06afdfe590602001610e99565b600080604051806101200160405280600081526020016000815260200160008152602001610fd287611e09565b8152602001846001600160a01b0316815260200160008152602001898152602001604051806040016040528060008152602001600081525081526020016040518060400160405280600081526020016000815250815250905080608001516001600160a01b03166318160ddd6040518163ffffffff1660e01b8152600401602060405180830381865afa15801561106d573d6000803e3d6000fd5b505050506040513d601f19601f820116820180604052508101906110919190612fc4565b60a08201819052156111085760006110a98982610450565b905060006110b88a6001610450565b604080518082019091528381526020810182905260e0850152905060006110e0838c8361048e565b905060006110f0838d600161048e565b905061110182828760600151611f1d565b8552505050505b60005b600281101561116b5761115933308a846002811061112b5761112b612fdd565b60200201518c856002811061114257611142612fdd565b6020020151516001600160a01b0316929190612226565b8061116381613055565b91505061110b565b5060006111788982610450565b905060006111878a6001610450565b6040805180820190915283815260208101829052610100850152905060006111b0838c8361048e565b905060006111c0838d600161048e565b90506111d182828760600151611f1d565b602086018190528551106112125760405162461bcd60e51b815260206004820152600860248201526704431203c3d2044360c41b604482015260640161050f565b5050506020820151604083015250611228612af1565b60a0820151156113c557600061124186600001546120a4565b905060005b600281101561137857600084600001518560e00151836002811061126c5761126c612fdd565b60200201518660200151611280919061301c565b61128a9190613033565b90506402540be4006112ac866101000151846002811061068257610682612fdd565b6112b6908561301c565b6112c09190613033565b506402540be4006112e1866101000151846002811061068257610682612fdd565b6112eb908561301c565b6112f59190613033565b84836002811061130757611307612fdd565b602002015283826002811061131e5761131e612fdd565b6020020151856101000151836002811061133a5761133a612fdd565b60200201516113499190613009565b856101000151836002811061136057611360612fdd565b6020020152508061137081613055565b915050611246565b5061010083015160009061138c908261076a565b905060006113ab85610100015160016002811061079657610796612fdd565b90506113bc82828760600151611f1d565b60408601525050505b60008260a001516000036113de5750602082015161140c565b825160a084015160408501516113f5908390613009565b6113ff919061301c565b6114099190613033565b90505b8781101561145c5760405162461bcd60e51b815260206004820152601b60248201527f436f756c646e2774206d696e74206d696e207265717565737465640000000000604482015260640161050f565b60808301516040516340c10f1960e01b8152336004820152602481018390526001600160a01b03909116906340c10f1990604401600060405180830381600087803b1580156114aa57600080fd5b505af11580156114be573d6000803e3d6000fd5b50505050336001600160a01b03167f26f55a85081d24974e85c6c00045d0f0453991e95873f52bff0d21af4079a7688a848660200151858860a0015161150491906130be565b6040516115149493929190613091565b60405180910390a29998505050505050505050565b600061153482611e09565b92915050565b8054600090611534906001600160a01b0316611ea6565b835460009081906115789061156e906001600160a01b0316611ea6565b8760010154611f11565b85549091506000906115969061156e906001600160a01b0316611ea6565b905060006115ad83836115a889611e09565b611f1d565b90506000856001600160a01b03166318160ddd6040518163ffffffff1660e01b8152600401602060405180830381865afa1580156115ef573d6000803e3d6000fd5b505050506040513d601f19601f820116820180604052508101906116139190612fc4565b9050801561164757806116286012600a6131ed565b611632908461301c565b61163c9190613033565b945050505050610e17565b50600098975050505050505050565b600080826001600160a01b03166318160ddd6040518163ffffffff1660e01b8152600401602060405180830381865afa158015611697573d6000803e3d6000fd5b505050506040513d601f19601f820116820180604052508101906116bb9190612fc4565b6040516370a0823160e01b81523360048201529091506001600160a01b038416906370a0823190602401602060405180830381865afa158015611702573d6000803e3d6000fd5b505050506040513d601f19601f820116820180604052508101906117269190612fc4565b8911156117655760405162461bcd60e51b815260206004820152600d60248201526c1f2628173130b630b731b2a7b360991b604482015260640161050f565b60006117758a8a8a858a8a612264565b509050868110156117b95760405162461bcd60e51b815260206004820152600e60248201526d191e480f081b5a5b905b5bdd5b9d60921b604482015260640161050f565b88546117cf906001600160a01b031633836120d6565b60405163079cc67960e41b8152336004820152602481018b90526001600160a01b038516906379cc679090604401600060405180830381600087803b15801561181757600080fd5b505af115801561182b573d6000803e3d6000fd5b50508a54604080518e8152602081018790526001600160a01b0390921690820152606081018490523392507fba12cf5924628c5ee284b041a95cfab90fcf2c395258d4d1a8d5858d389c1fa4915060800160405180910390a29998505050505050505050565b428160030154116118e45760405162461bcd60e51b815260206004820152601760248201527f52616d7020697320616c72656164792073746f70706564000000000000000000604482015260640161050f565b60006118ef82611e09565b808355600183018190554260028401819055600384018190556040519192507f46e22fb3709ad289f62ce63d469248536dbc78d82b84a3d7e74ad606dc20193891610e9991848252602082015260400190565b6000606461194f83611e09565b6115349190613033565b60008061196584611e09565b88516020015190915060009081908161197e8c82610450565b905061198a8183611f11565b9350881580156119b257508a8a60008181106119a8576119a8612fdd565b9050602002013581105b156119f75760405162461bcd60e51b8152602060048201526015602482015274414d4f554e545f455843454544535f535550504c5960581b604482015260640161050f565b611a5489611a29578b8b6000818110611a1257611a12612fdd565b9050602002013582611a249190613009565b611a4e565b8b8b6000818110611a3c57611a3c612fdd565b9050602002013582611a4e91906130be565b83611f11565b6020808e015101519093506000925082915081611a728e6001610450565b9050611a7e8183611f11565b93508a158015611aa657508c8c6001818110611a9c57611a9c612fdd565b9050602002013581105b15611aeb5760405162461bcd60e51b8152602060048201526015602482015274414d4f554e545f455843454544535f535550504c5960581b604482015260640161050f565b611b198b611b06578d8d6001818110611a1257611a12612fdd565b8d8d6001818110611a3c57611a3c612fdd565b925050506000611b2a858488611f1d565b90506000611b39858489611f1d565b90506000896001600160a01b03166318160ddd6040518163ffffffff1660e01b8152600401602060405180830381865afa158015611b7b573d6000803e3d6000fd5b505050506040513d601f19601f82011682018060405250810190611b9f9190612fc4565b90508b15611be3578015611bd2578281611bb98285613009565b611bc3919061301c565b611bcd9190613033565b611bd4565b815b985050505050505050506109b2565b8281611bef8483613009565b611bf9919061301c565b611bd49190613033565b85546040516370a0823160e01b81523360048201526000916001600160a01b0316906370a0823190602401602060405180830381865afa158015611c4b573d6000803e3d6000fd5b505050506040513d601f19601f82011682018060405250810190611c6f9190612fc4565b851115611ccd5760405162461bcd60e51b815260206004820152602660248201527f45524332303a207472616e7366657220616d6f756e7420657863656564732062604482015265616c616e636560d01b606482015260840161050f565b600080611cdd89898988886122c6565b909250905085821015611d325760405162461bcd60e51b815260206004820181905260248201527f53776170206469646e277420726573756c7420696e206d696e20746f6b656e73604482015260640161050f565b600088600101546402540be400866001015484611d4f919061301c565b611d599190613033565b611d639190613033565b8a54909150611d7d906001600160a01b031633308b612226565b8854611d93906001600160a01b031633856120d6565b8954604080516001600160a01b039092168252602082018a9052810184905233907ffa2dda1cc1b86e41239702756b13effbc1a092b5c57e3ad320fbe4f3b13fe2359060600160405180910390a2509098975050505050505050565b6000611dfe86868686866122c6565b509695505050505050565b600381015460018201546000919042821115610f25576002840154845480831115611e6a57611e388285613009565b611e428342613009565b611e4c8386613009565b611e56919061301c565b611e609190613033565b6109b290826130be565b611e748285613009565b611e7e8342613009565b611e888584613009565b611e92919061301c565b611e9c9190613033565b6109b29082613009565b6040516370a0823160e01b81523060048201526000906001600160a01b038316906370a0823190602401602060405180830381865afa158015611eed573d6000803e3d6000fd5b505050506040513d601f19601f820116820180604052508101906115349190612fc4565b6000610f25828461301c565b600080611f2a84866130be565b905080600003611f3e576000915050610f25565b60008181611f4d60028761301c565b905060005b6101008110156120655782611f6860028b61301c565b611f72858361301c565b611f7c9190613033565b9050611f8960028a61301c565b611f93858361301c565b611f9d9190613033565b9050839450600084600283611fb2919061301c565b6064611fbe8a8861301c565b611fc89190613033565b611fd291906130be565b611fdc919061301c565b9050600082611fed600260016130be565b611ff7919061301c565b6064876120048289613009565b61200e919061301c565b6120189190613033565b61202291906130be565b905061202e8183613033565b955061203a86886123ba565b1561204f578598505050505050505050610f25565b505050808061205d90613055565b915050611f52565b5060405162461bcd60e51b81526020600482015260136024820152724420646f6573206e6f7420636f6e766572676560681b604482015260640161050f565b6000611534600283613033565b6000818311156120cc576120c58284613009565b9050611534565b610f258383613009565b6040516001600160a01b03831660248201526044810182905261213990849063a9059cbb60e01b906064015b60408051601f198184030181529190526020810180516001600160e01b03166001600160e01b0319909316929092179091526123d1565b505050565b612146612af1565b818411156121965760405162461bcd60e51b815260206004820152601a60248201527f43616e6e6f742065786365656420746f74616c20737570706c79000000000000604482015260640161050f565b61219e612af1565b60005b600281101561221d5760006121dc8683600281106121c1576121c1612fdd565b6040020160000160208101906121d791906130d1565b611ea6565b9050846121e9888361301c565b6121f39190613033565b83836002811061220557612205612fdd565b6020020152508061221581613055565b9150506121a1565b50949350505050565b6040516001600160a01b038085166024830152831660448201526064810182905261225e9085906323b872dd60e01b90608401612102565b50505050565b60008060008060006122838b8b8b8b61227c8c611e09565b8b546124a3565b60018d01549295509093509150600090849061229f8585613009565b6122a99190613033565b6122b39190613009565b939c939b50929950505050505050505050565b8454600090819081906122e1906001600160a01b0316611ea6565b905060006122f3828a60010154611f11565b885490915060009061230d906001600160a01b0316611ea6565b9050600061231f828b60010154611f11565b90506000836123328b8e60010154611f11565b61233c91906130be565b9050600061235461234c8b611e09565b8685856126f0565b905060016123628285613009565b61236c9190613009565b89549098506402540be40090612382908a61301c565b61238c9190613033565b60018d015490975061239e888a613009565b6123a89190613033565b97505050505050509550959350505050565b600060016123c884846120b1565b11159392505050565b6000612426826040518060400160405280602081526020017f5361666545524332303a206c6f772d6c6576656c2063616c6c206661696c6564815250856001600160a01b03166128519092919063ffffffff16565b805190915015612139578080602001905181019061244491906131fc565b6121395760405162461bcd60e51b815260206004820152602a60248201527f5361666545524332303a204552433230206f7065726174696f6e20646964206e6044820152691bdd081cdd58d8d9595960b21b606482015260840161050f565b84546000908190819081906124c0906001600160a01b0316611ea6565b905060006124d2828b60010154611f11565b89549091506000906124ec906001600160a01b0316611ea6565b905060006124fe828c60010154611f11565b6040805160a0810182526000808252602082018190529181018290526060810191909152608081018b905290915061253782858c611f1d565b8160000181815250508a81600001518f612551919061301c565b61255b9190613033565b81516125679190613009565b6020820152838e11156125bc5760405162461bcd60e51b815260206004820152601860248201527f414d4f554e545f455843454544535f415641494c41424c450000000000000000604482015260640161050f565b6125cf8160800151838360200151612860565b60408201526125dd896120a4565b606082018190526040820151825160208401516000936402540be4009390929091612608908a61301c565b6126129190613033565b61261c9190613009565b612626919061301c565b6126309190613033565b61263a9086613009565b905060006402540be4008360600151846000015185602001518761265e919061301c565b6126689190613033565b6126729087613009565b61267c919061301c565b6126869190613033565b6126909085613009565b905060006126a78460800151838660200151612860565b6126b19084613009565b90508f600101546001826126c59190613009565b6126cf9190613033565b604090940151939a5092985094965050505050505096509650969350505050565b6000806126fe858588611f1d565b9050600061270d87600261301c565b9050600061271c60028661301c565b612726848061301c565b6127309190613033565b905061273d60028361301c565b6064612749858461301c565b612753919061301c565b61275d9190613033565b905060008261276d60648661301c565b6127779190613033565b61278190876130be565b9050600084815b6101008110156128085781925086848360026127a4919061301c565b6127ae91906130be565b6127b89190613009565b856127c3848061301c565b6127cd91906130be565b6127d79190613033565b91506127e382846123ba565b156127f657509550610e17945050505050565b8061280081613055565b915050612788565b5060405162461bcd60e51b815260206004820152601e60248201527f417070726f78696d6174696f6e20646964206e6f7420636f6e76657267650000604482015260640161050f565b6060610e178484600085612978565b60008061286e60028561301c565b612878848061301c565b6128829190613033565b905083600061289260028861301c565b905061289f60028261301c565b60646128ab878661301c565b6128b5919061301c565b6128bf9190613033565b92506000816128cf60648861301c565b6128d99190613033565b6128e390846130be565b9050600086815b610100811015612808578192506000878384612906919061301c565b61291091906130be565b905060008a8661292186600261301c565b61292b91906130be565b6129359190613009565b90506129418183613033565b935061294d84866123ba565b1561296357839950505050505050505050610f25565b5050808061297090613055565b9150506128ea565b6060824710156129d95760405162461bcd60e51b815260206004820152602660248201527f416464726573733a20696e73756666696369656e742062616c616e636520666f6044820152651c8818d85b1b60d21b606482015260840161050f565b600080866001600160a01b031685876040516129f5919061323d565b60006040518083038185875af1925050503d8060008114612a32576040519150601f19603f3d011682016040523d82523d6000602084013e612a37565b606091505b5091509150612a4887838387612a53565b979650505050505050565b60608315612ac2578251600003612abb576001600160a01b0385163b612abb5760405162461bcd60e51b815260206004820152601d60248201527f416464726573733a2063616c6c20746f206e6f6e2d636f6e7472616374000000604482015260640161050f565b5081610e17565b610e178383815115612ad75781518083602001fd5b8060405162461bcd60e51b815260040161050f9190613259565b60405180604001604052806002906020820280368337509192915050565b634e487b7160e01b600052604160045260246000fd5b6040805190810167ffffffffffffffff81118282101715612b4857612b48612b0f565b60405290565b6001600160a01b0381168114612b6357600080fd5b50565b600082601f830112612b7757600080fd5b612b7f612b25565b806080840185811115612b9157600080fd5b845b81811015612bfa576040808289031215612bad5760008081fd5b805181810181811067ffffffffffffffff82111715612bce57612bce612b0f565b909152813590612bdd82612b4e565b908152602082810135818301529085529390930192604001612b93565b509095945050505050565b8035612c1081612b4e565b919050565b6000806000806000806101408789031215612c2f57600080fd5b612c398888612b66565b955087609f880112612c4a57600080fd5b612c52612b25565b8060c089018a811115612c6457600080fd5b60808a015b81811015612c81578035845260209384019301612c69565b509096503594505060e087013592506101008701359150612ca56101208801612c05565b90509295509295509295565b600080600060608486031215612cc657600080fd5b505081359360208301359350604090920135919050565b806080810183101561153457600080fd5b6000806000806101008587031215612d0557600080fd5b84359350612d168660208701612cdd565b925060e0850186811115612d2957600080fd5b60a08601925035612d3981612b4e565b939692955090935050565b60408101818360005b6002811015612d6c578151835260209283019290910190600101612d4d565b50505092915050565b60008060408385031215612d8857600080fd5b50508035926020909101359150565b600080600060c08486031215612dac57600080fd5b83359250612dbd8560208601612cdd565b915060a0840135612dcd81612b4e565b809150509250925092565b600060208284031215612dea57600080fd5b5035919050565b60008060008060808587031215612e0757600080fd5b8435935060208501359250604085013591506060850135612d3981612b4e565b600080600080600080600060e0888a031215612e4257600080fd5b873596506020880135955060408801359450606088013593506080880135925060a0880135915060c0880135612e7781612b4e565b8091505092959891949750929550565b8015158114612b6357600080fd5b8035612c1081612e87565b6000806000806000806101008789031215612eba57600080fd5b612ec48888612b66565b9550608087013567ffffffffffffffff80821115612ee157600080fd5b818901915089601f830112612ef557600080fd5b813581811115612f0457600080fd5b8a60208260051b8501011115612f1957600080fd5b602083019750809650505050612f3160a08801612e95565b925060c08701359150612ca560e08801612c05565b60008060008060008060c08789031215612f5f57600080fd5b505084359660208601359650604086013595606081013595506080810135945060a0013592509050565b600080600080600060a08688031215612fa157600080fd5b505083359560208501359550604085013594606081013594506080013592509050565b600060208284031215612fd657600080fd5b5051919050565b634e487b7160e01b600052603260045260246000fd5b634e487b7160e01b600052601160045260246000fd5b8181038181111561153457611534612ff3565b808202811582820484141761153457611534612ff3565b60008261305057634e487b7160e01b600052601260045260246000fd5b500490565b60006001820161306757613067612ff3565b5060010190565b8060005b600281101561225e578151845260209384019390910190600101613072565b60c0810161309f828761306e565b6130ac604083018661306e565b608082019390935260a0015292915050565b8082018082111561153457611534612ff3565b6000602082840312156130e357600080fd5b8135610f2581612b4e565b606081016130fc828561306e565b8260408301529392505050565b600181815b8085111561314457816000190482111561312a5761312a612ff3565b8085161561313757918102915b93841c939080029061310e565b509250929050565b60008261315b57506001611534565b8161316857506000611534565b816001811461317e5760028114613188576131a4565b6001915050611534565b60ff84111561319957613199612ff3565b50506001821b611534565b5060208310610133831016604e8410600b84101617156131c7575081810a611534565b6131d18383613109565b80600019048211156131e5576131e5612ff3565b029392505050565b6000610f2560ff84168361314c565b60006020828403121561320e57600080fd5b8151610f2581612e87565b60005b8381101561323457818101518382015260200161321c565b50506000910152565b6000825161324f818460208701613219565b9190910192915050565b6020815260008251806020840152613278816040850160208701613219565b601f01601f1916919091016040019291505056fea2646970667358221220cb4bc5f07f81aefbe896b5e015091cff2c4d7f44e4e707a18f69cb6fb43a65d864736f6c63430008130033",
    "linkReferences": {}
  },
  "methodIdentifiers": {
    "A_PRECISION()": "d011f918",
    "MAX_A()": "39698415",
    "MAX_ADMIN_FEE()": "f3de0362",
    "MAX_SWAP_FEE()": "ab3d8544",
    "POOL_PRECISION_DECIMALS()": "0296ab50",
    "addLiquidity(SwapUtils.PooledToken[2],uint256[2],uint256,SwapUtils.Amplification storage,SwapUtils.FeeParams storage,LiquidityPoolToken)": "5aa533ee",
    "calculateRemoveLiquidity(uint256,SwapUtils.PooledToken[2],LiquidityPoolToken)": "296104cd",
    "calculateSwap(SwapUtils.PooledToken storage,SwapUtils.PooledToken storage,uint256,SwapUtils.Amplification storage,SwapUtils.FeeParams storage)": "e5537d20",
    "calculateTokenAmount(SwapUtils.PooledToken[2],uint256[],bool,SwapUtils.Amplification storage,LiquidityPoolToken)": "cb6802c8",
    "getA(SwapUtils.Amplification storage)": "c15dc17c",
    "getAPrecise(SwapUtils.Amplification storage)": "5d5c4f96",
    "getTokenBalance(SwapUtils.PooledToken storage)": "6cc631fa",
    "getVirtualPrice(SwapUtils.PooledToken storage,SwapUtils.PooledToken storage,SwapUtils.Amplification storage,LiquidityPoolToken)": "809d0648",
    "rampA(SwapUtils.Amplification storage,uint256,uint256)": "14f685c3",
    "removeLiquidity(uint256,SwapUtils.PooledToken[2],uint256[2],LiquidityPoolToken)": "26579429",
    "removeLiquidityImbalance(SwapUtils.PooledToken[2],uint256[2],uint256,SwapUtils.Amplification storage,SwapUtils.FeeParams storage,LiquidityPoolToken)": "02eb2c22",
    "removeLiquidityOneToken(uint256,SwapUtils.PooledToken storage,SwapUtils.PooledToken storage,uint256,SwapUtils.Amplification storage,SwapUtils.FeeParams storage,LiquidityPoolToken)": "a7abb396",
    "setAdminFee(SwapUtils.FeeParams storage,uint256)": "27d04775",
    "setSwapFee(SwapUtils.FeeParams storage,uint256)": "44b4519c",
    "stopRampA(SwapUtils.Amplification storage)": "b0845bc5",
    "swap(SwapUtils.PooledToken storage,SwapUtils.PooledToken storage,uint256,uint256,SwapUtils.Amplification storage,SwapUtils.FeeParams storage)": "cbab294f"
  },
  "id": 39
}