{
  "abi": [
    {
      "inputs": [],
      "name": "PERC_DIVISOR",
      "outputs": [
        {
          "internalType": "uint256",
          "name": "",
          "type": "uint256"
        }
      ],
      "stateMutability": "view",
      "type": "function"
    }
  ],
  "bytecode": {
    "object": "0x608f610038600b82828239805160001a607314602b57634e487b7160e01b600052600060045260246000fd5b30600052607381538281f3fe730000000000000000000000000000000000000000301460806040526004361060335760003560e01c8063cce2a078146038575b600080fd5b6047683635c9adc5dea0000081565b60405190815260200160405180910390f3fea26469706673582212209f2fbb089408813d27eba30c63e1527c12e1fec219b953d3da5a40e3435ba0d264736f6c63430008070033",
    "linkReferences": {}
  },
  "methodIdentifiers": {
    "PERC_DIVISOR()": "cce2a078"
  },
  "id": 46
}