{
  "abi": [
    {
      "anonymous": false,
      "inputs": [
        {
          "indexed": true,
          "internalType": "address",
          "name": "provider",
          "type": "address"
        },
        {
          "indexed": false,
          "internalType": "uint256[2]",
          "name": "tokenAmounts",
          "type": "uint256[2]"
        },
        {
          "indexed": false,
          "internalType": "uint256[2]",
          "name": "fees",
          "type": "uint256[2]"
        },
        {
          "indexed": false,
          "internalType": "uint256",
          "name": "invariant",
          "type": "uint256"
        },
        {
          "indexed": false,
          "internalType": "uint256",
          "name": "lpTokenSupply",
          "type": "uint256"
        }
      ],
      "name": "AddLiquidity",
      "type": "event"
    },
    {
      "anonymous": false,
      "inputs": [
        {
          "indexed": false,
          "internalType": "uint8",
          "name": "version",
          "type": "uint8"
        }
      ],
      "name": "Initialized",
      "type": "event"
    },
    {
      "anonymous": false,
      "inputs": [
        {
          "indexed": false,
          "internalType": "uint256",
          "name": "newAdminFee",
          "type": "uint256"
        }
      ],
      "name": "NewAdminFee",
      "type": "event"
    },
    {
      "anonymous": false,
      "inputs": [
        {
          "indexed": false,
          "internalType": "uint256",
          "name": "newSwapFee",
          "type": "uint256"
        }
      ],
      "name": "NewSwapFee",
      "type": "event"
    },
    {
      "anonymous": false,
      "inputs": [
        {
          "indexed": true,
          "internalType": "address",
          "name": "previousOwner",
          "type": "address"
        },
        {
          "indexed": true,
          "internalType": "address",
          "name": "newOwner",
          "type": "address"
        }
      ],
      "name": "OwnershipTransferred",
      "type": "event"
    },
    {
      "anonymous": false,
      "inputs": [
        {
          "indexed": false,
          "internalType": "uint256",
          "name": "oldA",
          "type": "uint256"
        },
        {
          "indexed": false,
          "internalType": "uint256",
          "name": "newA",
          "type": "uint256"
        },
        {
          "indexed": false,
          "internalType": "uint256",
          "name": "initialTime",
          "type": "uint256"
        },
        {
          "indexed": false,
          "internalType": "uint256",
          "name": "futureTime",
          "type": "uint256"
        }
      ],
      "name": "RampA",
      "type": "event"
    },
    {
      "anonymous": false,
      "inputs": [
        {
          "indexed": true,
          "internalType": "address",
          "name": "provider",
          "type": "address"
        },
        {
          "indexed": false,
          "internalType": "uint256[2]",
          "name": "tokenAmounts",
          "type": "uint256[2]"
        },
        {
          "indexed": false,
          "internalType": "uint256",
          "name": "lpTokenSupply",
          "type": "uint256"
        }
      ],
      "name": "RemoveLiquidity",
      "type": "event"
    },
    {
      "anonymous": false,
      "inputs": [
        {
          "indexed": true,
          "internalType": "address",
          "name": "provider",
          "type": "address"
        },
        {
          "indexed": false,
          "internalType": "uint256[2]",
          "name": "tokenAmounts",
          "type": "uint256[2]"
        },
        {
          "indexed": false,
          "internalType": "uint256[2]",
          "name": "fees",
          "type": "uint256[2]"
        },
        {
          "indexed": false,
          "internalType": "uint256",
          "name": "invariant",
          "type": "uint256"
        },
        {
          "indexed": false,
          "internalType": "uint256",
          "name": "lpTokenSupply",
          "type": "uint256"
        }
      ],
      "name": "RemoveLiquidityImbalance",
      "type": "event"
    },
    {
      "anonymous": false,
      "inputs": [
        {
          "indexed": true,
          "internalType": "address",
          "name": "provider",
          "type": "address"
        },
        {
          "indexed": false,
          "internalType": "uint256",
          "name": "lpTokenAmount",
          "type": "uint256"
        },
        {
          "indexed": false,
          "internalType": "uint256",
          "name": "lpTokenSupply",
          "type": "uint256"
        },
        {
          "indexed": false,
          "internalType": "contract IERC20",
          "name": "tokenReceived",
          "type": "address"
        },
        {
          "indexed": false,
          "internalType": "uint256",
          "name": "receivedAmount",
          "type": "uint256"
        }
      ],
      "name": "RemoveLiquidityOne",
      "type": "event"
    },
    {
      "anonymous": false,
      "inputs": [
        {
          "indexed": false,
          "internalType": "uint256",
          "name": "currentA",
          "type": "uint256"
        },
        {
          "indexed": false,
          "internalType": "uint256",
          "name": "time",
          "type": "uint256"
        }
      ],
      "name": "StopRampA",
      "type": "event"
    },
    {
      "anonymous": false,
      "inputs": [
        {
          "indexed": true,
          "internalType": "address",
          "name": "buyer",
          "type": "address"
        },
        {
          "indexed": false,
          "internalType": "contract IERC20",
          "name": "tokenSold",
          "type": "address"
        },
        {
          "indexed": false,
          "internalType": "uint256",
          "name": "amountSold",
          "type": "uint256"
        },
        {
          "indexed": false,
          "internalType": "uint256",
          "name": "amountReceived",
          "type": "uint256"
        }
      ],
      "name": "Swap",
      "type": "event"
    },
    {
      "inputs": [
        {
          "internalType": "uint256[2]",
          "name": "_amounts",
          "type": "uint256[2]"
        },
        {
          "internalType": "uint256",
          "name": "_minToMint",
          "type": "uint256"
        },
        {
          "internalType": "uint256",
          "name": "_deadline",
          "type": "uint256"
        }
      ],
      "name": "addLiquidity",
      "outputs": [
        {
          "internalType": "uint256",
          "name": "",
          "type": "uint256"
        }
      ],
      "stateMutability": "nonpayable",
      "type": "function"
    },
    {
      "inputs": [],
      "name": "amplificationParams",
      "outputs": [
        {
          "internalType": "uint256",
          "name": "initialA",
          "type": "uint256"
        },
        {
          "internalType": "uint256",
          "name": "futureA",
          "type": "uint256"
        },
        {
          "internalType": "uint256",
          "name": "initialATime",
          "type": "uint256"
        },
        {
          "internalType": "uint256",
          "name": "futureATime",
          "type": "uint256"
        }
      ],
      "stateMutability": "view",
      "type": "function"
    },
    {
      "inputs": [
        {
          "internalType": "uint256",
          "name": "amount",
          "type": "uint256"
        }
      ],
      "name": "calculateRemoveLiquidity",
      "outputs": [
        {
          "internalType": "uint256[2]",
          "name": "",
          "type": "uint256[2]"
        }
      ],
      "stateMutability": "view",
      "type": "function"
    },
    {
      "inputs": [
        {
          "internalType": "uint256",
          "name": "tokenAmount",
          "type": "uint256"
        },
        {
          "internalType": "contract IERC20",
          "name": "tokenReceive",
          "type": "address"
        }
      ],
      "name": "calculateRemoveLiquidityOneToken",
      "outputs": [
        {
          "internalType": "uint256",
          "name": "",
          "type": "uint256"
        }
      ],
      "stateMutability": "view",
      "type": "function"
    },
    {
      "inputs": [
        {
          "internalType": "contract IERC20",
          "name": "_tokenFrom",
          "type": "address"
        },
        {
          "internalType": "uint256",
          "name": "_dx",
          "type": "uint256"
        }
      ],
      "name": "calculateSwap",
      "outputs": [
        {
          "internalType": "uint256",
          "name": "",
          "type": "uint256"
        }
      ],
      "stateMutability": "view",
      "type": "function"
    },
    {
      "inputs": [
        {
          "internalType": "uint256[]",
          "name": "amounts",
          "type": "uint256[]"
        },
        {
          "internalType": "bool",
          "name": "deposit",
          "type": "bool"
        }
      ],
      "name": "calculateTokenAmount",
      "outputs": [
        {
          "internalType": "uint256",
          "name": "",
          "type": "uint256"
        }
      ],
      "stateMutability": "view",
      "type": "function"
    },
    {
      "inputs": [],
      "name": "feeParams",
      "outputs": [
        {
          "internalType": "uint256",
          "name": "swapFee",
          "type": "uint256"
        },
        {
          "internalType": "uint256",
          "name": "adminFee",
          "type": "uint256"
        }
      ],
      "stateMutability": "view",
      "type": "function"
    },
    {
      "inputs": [],
      "name": "getA",
      "outputs": [
        {
          "internalType": "uint256",
          "name": "",
          "type": "uint256"
        }
      ],
      "stateMutability": "view",
      "type": "function"
    },
    {
      "inputs": [],
      "name": "getAPrecise",
      "outputs": [
        {
          "internalType": "uint256",
          "name": "",
          "type": "uint256"
        }
      ],
      "stateMutability": "view",
      "type": "function"
    },
    {
      "inputs": [],
      "name": "getToken0",
      "outputs": [
        {
          "internalType": "contract IERC20",
          "name": "",
          "type": "address"
        }
      ],
      "stateMutability": "view",
      "type": "function"
    },
    {
      "inputs": [],
      "name": "getToken0Balance",
      "outputs": [
        {
          "internalType": "uint256",
          "name": "",
          "type": "uint256"
        }
      ],
      "stateMutability": "view",
      "type": "function"
    },
    {
      "inputs": [],
      "name": "getToken1",
      "outputs": [
        {
          "internalType": "contract IERC20",
          "name": "",
          "type": "address"
        }
      ],
      "stateMutability": "view",
      "type": "function"
    },
    {
      "inputs": [],
      "name": "getToken1Balance",
      "outputs": [
        {
          "internalType": "uint256",
          "name": "",
          "type": "uint256"
        }
      ],
      "stateMutability": "view",
      "type": "function"
    },
    {
      "inputs": [],
      "name": "getVirtualPrice",
      "outputs": [
        {
          "internalType": "uint256",
          "name": "",
          "type": "uint256"
        }
      ],
      "stateMutability": "view",
      "type": "function"
    },
    {
      "inputs": [
        {
          "internalType": "contract IERC20",
          "name": "_token0",
          "type": "address"
        },
        {
          "internalType": "contract IERC20",
          "name": "_token1",
          "type": "address"
        },
        {
          "internalType": "string",
          "name": "lpTokenName",
          "type": "string"
        },
        {
          "internalType": "string",
          "name": "lpTokenSymbol",
          "type": "string"
        },
        {
          "internalType": "uint256",
          "name": "_a",
          "type": "uint256"
        },
        {
          "internalType": "uint256",
          "name": "_fee",
          "type": "uint256"
        },
        {
          "internalType": "uint256",
          "name": "_adminFee",
          "type": "uint256"
        },
        {
          "internalType": "contract LiquidityPoolToken",
          "name": "lpTokenTargetAddress",
          "type": "address"
        }
      ],
      "name": "initialize",
      "outputs": [
        {
          "internalType": "bool",
          "name": "",
          "type": "bool"
        }
      ],
      "stateMutability": "nonpayable",
      "type": "function"
    },
    {
      "inputs": [],
      "name": "lpToken",
      "outputs": [
        {
          "internalType": "contract LiquidityPoolToken",
          "name": "",
          "type": "address"
        }
      ],
      "stateMutability": "view",
      "type": "function"
    },
    {
      "inputs": [
        {
          "internalType": "bytes[]",
          "name": "_data",
          "type": "bytes[]"
        }
      ],
      "name": "multicall",
      "outputs": [
        {
          "internalType": "bytes[]",
          "name": "results",
          "type": "bytes[]"
        }
      ],
      "stateMutability": "payable",
      "type": "function"
    },
    {
      "inputs": [],
      "name": "owner",
      "outputs": [
        {
          "internalType": "address",
          "name": "",
          "type": "address"
        }
      ],
      "stateMutability": "view",
      "type": "function"
    },
    {
      "inputs": [
        {
          "internalType": "uint256",
          "name": "futureA",
          "type": "uint256"
        },
        {
          "internalType": "uint256",
          "name": "futureTime",
          "type": "uint256"
        }
      ],
      "name": "rampA",
      "outputs": [],
      "stateMutability": "nonpayable",
      "type": "function"
    },
    {
      "inputs": [
        {
          "internalType": "uint256",
          "name": "amount",
          "type": "uint256"
        },
        {
          "internalType": "uint256[2]",
          "name": "minAmounts",
          "type": "uint256[2]"
        },
        {
          "internalType": "uint256",
          "name": "deadline",
          "type": "uint256"
        }
      ],
      "name": "removeLiquidity",
      "outputs": [
        {
          "internalType": "uint256[2]",
          "name": "",
          "type": "uint256[2]"
        }
      ],
      "stateMutability": "nonpayable",
      "type": "function"
    },
    {
      "inputs": [
        {
          "internalType": "uint256[2]",
          "name": "_amounts",
          "type": "uint256[2]"
        },
        {
          "internalType": "uint256",
          "name": "_maxBurnAmount",
          "type": "uint256"
        },
        {
          "internalType": "uint256",
          "name": "_deadline",
          "type": "uint256"
        }
      ],
      "name": "removeLiquidityImbalance",
      "outputs": [
        {
          "internalType": "uint256",
          "name": "",
          "type": "uint256"
        }
      ],
      "stateMutability": "nonpayable",
      "type": "function"
    },
    {
      "inputs": [
        {
          "internalType": "uint256",
          "name": "_tokenAmount",
          "type": "uint256"
        },
        {
          "internalType": "contract IERC20",
          "name": "_tokenReceive",
          "type": "address"
        },
        {
          "internalType": "uint256",
          "name": "_minAmount",
          "type": "uint256"
        },
        {
          "internalType": "uint256",
          "name": "_deadline",
          "type": "uint256"
        }
      ],
      "name": "removeLiquidityOneToken",
      "outputs": [
        {
          "internalType": "uint256",
          "name": "",
          "type": "uint256"
        }
      ],
      "stateMutability": "nonpayable",
      "type": "function"
    },
    {
      "inputs": [],
      "name": "renounceOwnership",
      "outputs": [],
      "stateMutability": "nonpayable",
      "type": "function"
    },
    {
      "inputs": [
        {
          "internalType": "address",
          "name": "_token",
          "type": "address"
        },
        {
          "internalType": "uint256",
          "name": "_value",
          "type": "uint256"
        },
        {
          "internalType": "uint256",
          "name": "_deadline",
          "type": "uint256"
        },
        {
          "internalType": "uint8",
          "name": "_v",
          "type": "uint8"
        },
        {
          "internalType": "bytes32",
          "name": "_r",
          "type": "bytes32"
        },
        {
          "internalType": "bytes32",
          "name": "_s",
          "type": "bytes32"
        }
      ],
      "name": "selfPermit",
      "outputs": [],
      "stateMutability": "payable",
      "type": "function"
    },
    {
      "inputs": [
        {
          "internalType": "address",
          "name": "_token",
          "type": "address"
        },
        {
          "internalType": "uint256",
          "name": "_value",
          "type": "uint256"
        },
        {
          "internalType": "uint256",
          "name": "_deadline",
          "type": "uint256"
        },
        {
          "internalType": "uint8",
          "name": "_v",
          "type": "uint8"
        },
        {
          "internalType": "bytes32",
          "name": "_r",
          "type": "bytes32"
        },
        {
          "internalType": "bytes32",
          "name": "_s",
          "type": "bytes32"
        }
      ],
      "name": "selfPermitIfNecessary",
      "outputs": [],
      "stateMutability": "payable",
      "type": "function"
    },
    {
      "inputs": [
        {
          "internalType": "uint256",
          "name": "newAdminFee",
          "type": "uint256"
        }
      ],
      "name": "setAdminFee",
      "outputs": [],
      "stateMutability": "nonpayable",
      "type": "function"
    },
    {
      "inputs": [
        {
          "internalType": "uint256",
          "name": "newSwapFee",
          "type": "uint256"
        }
      ],
      "name": "setSwapFee",
      "outputs": [],
      "stateMutability": "nonpayable",
      "type": "function"
    },
    {
      "inputs": [],
      "name": "stopRampA",
      "outputs": [],
      "stateMutability": "nonpayable",
      "type": "function"
    },
    {
      "inputs": [
        {
          "internalType": "contract IERC20",
          "name": "_tokenFrom",
          "type": "address"
        },
        {
          "internalType": "uint256",
          "name": "_dx",
          "type": "uint256"
        },
        {
          "internalType": "uint256",
          "name": "_minDy",
          "type": "uint256"
        },
        {
          "internalType": "uint256",
          "name": "_deadline",
          "type": "uint256"
        }
      ],
      "name": "swap",
      "outputs": [
        {
          "internalType": "uint256",
          "name": "",
          "type": "uint256"
        }
      ],
      "stateMutability": "nonpayable",
      "type": "function"
    },
    {
      "inputs": [
        {
          "internalType": "address",
          "name": "_newOwnner",
          "type": "address"
        }
      ],
      "name": "transferOwnership",
      "outputs": [],
      "stateMutability": "nonpayable",
      "type": "function"
    }
  ],
  "bytecode": {
    "object": "0x608060405234801561001057600080fd5b50612fbc806100206000396000f3fe6080604052600436106101cd5760003560e01c8063afcd5f4b116100f7578063ce1fdb8b11610095578063e6ab280611610064578063e6ab28061461052f578063f2fad2b61461054f578063f2fde38b1461056f578063f3995c671461058f57600080fd5b8063ce1fdb8b146104b8578063d46300fd146104d8578063d6f0df62146104ed578063e25aa5fa1461051a57600080fd5b8063c2d9ecfa116100d1578063c2d9ecfa1461045b578063c2e3140a14610470578063c4db7fa014610483578063c9ec92481461049857600080fd5b8063afcd5f4b146103ed578063ba94a3151461041d578063bfc65c9b1461043b57600080fd5b80635fcbd2851161016f5780638beb60b61161013e5780638beb60b61461035f5780638da5cb5b1461037f5780639242164f1461039d578063ac9650d8146103cd57600080fd5b80635fcbd285146102d45780636f26a7101461030c578063715018a61461032a578063805d27661461033f57600080fd5b806334e19907116101ab57806334e199071461025d57806346eda7491461027f5780635153786b1461029f578063593d132c146102b457600080fd5b80630ba81959146101d25780631de8d8cb146101fa578063256967ac1461021a575b600080fd5b3480156101de57600080fd5b506101e76105a2565b6040519081526020015b60405180910390f35b34801561020657600080fd5b506101e76102153660046127e6565b61062e565b34801561022657600080fd5b50609954609a54609b54609c5461023d9392919084565b6040805194855260208501939093529183015260608201526080016101f1565b34801561026957600080fd5b5061027d6102783660046128bb565b610792565b005b34801561028b57600080fd5b506101e761029a3660046125fb565b610808565b3480156102ab57600080fd5b506101e7610910565b3480156102c057600080fd5b5061027d6102cf366004612990565b61094b565b3480156102e057600080fd5b5060a1546102f4906001600160a01b031681565b6040516001600160a01b0390911681526020016101f1565b34801561031857600080fd5b50609f546001600160a01b03166102f4565b34801561033657600080fd5b5061027d6109c8565b34801561034b57600080fd5b506101e761035a366004612923565b6109dc565b34801561036b57600080fd5b5061027d61037a3660046128bb565b610a3a565b34801561038b57600080fd5b506033546001600160a01b03166102f4565b3480156103a957600080fd5b506097546098546103b8919082565b604080519283526020830191909152016101f1565b6103e06103db3660046125b9565b610a81565b6040516101f19190612a43565b3480156103f957600080fd5b5061040d61040836600461272b565b610be2565b60405190151581526020016101f1565b34801561042957600080fd5b50609d546001600160a01b03166102f4565b34801561044757600080fd5b506101e76104563660046125fb565b6111c4565b34801561046757600080fd5b506101e7611267565b61027d61047e36600461255d565b6112a2565b34801561048f57600080fd5b5061027d61134c565b3480156104a457600080fd5b506101e76104b3366004612812565b6113b9565b3480156104c457600080fd5b506101e76104d3366004612953565b61154e565b3480156104e457600080fd5b506101e761161c565b3480156104f957600080fd5b5061050d6105083660046128ed565b611657565b6040516101f19190612b59565b34801561052657600080fd5b506101e7611746565b34801561053b57600080fd5b506101e761054a3660046126b7565b6117a2565b34801561055b57600080fd5b5061050d61056a3660046128bb565b611888565b34801561057b57600080fd5b5061027d61058a366004612540565b611966565b61027d61059d36600461255d565b61197a565b604051632eae27cb60e11b81526099600482015260009073__$cbcc74385362534c50df661ce3578a62af$__90635d5c4f96906024015b60206040518083038186803b1580156105f157600080fd5b505af4158015610605573d6000803e3d6000fd5b505050506040513d601f19601f8201168201806040525081019061062991906128d4565b905090565b609d546000906001600160a01b038481169116146106ea5760405163072a9be960e51b8152609f6004820152609d602482015260448101839052609960648201526097608482015273__$cbcc74385362534c50df661ce3578a62af$__9063e5537d209060a40160206040518083038186803b1580156106ad57600080fd5b505af41580156106c1573d6000803e3d6000fd5b505050506040513d601f19601f820116820180604052508101906106e591906128d4565b610789565b60405163072a9be960e51b8152609d6004820152609f602482015260448101839052609960648201526097608482015273__$cbcc74385362534c50df661ce3578a62af$__9063e5537d209060a40160206040518083038186803b15801561075157600080fd5b505af4158015610765573d6000803e3d6000fd5b505050506040513d601f19601f8201168201806040525081019061078991906128d4565b90505b92915050565b61079a611a06565b60405163112d146760e21b8152609760048201526024810182905273__$cbcc74385362534c50df661ce3578a62af$__906344b4519c906044015b60006040518083038186803b1580156107ed57600080fd5b505af4158015610801573d6000803e3d6000fd5b5050505050565b6000610812611a60565b8161081c81611aba565b60408051608081018252609d546001600160a01b03908116828401908152609e546060840152825282518084018452609f548216815260a05460208281019190915283015260a1549251632d5299f760e11b8152919273__$cbcc74385362534c50df661ce3578a62af$__92635aa533ee926108ab9286928c928c926099926097929190911690600401612aa5565b60206040518083038186803b1580156108c357600080fd5b505af41580156108d7573d6000803e3d6000fd5b505050506040513d601f19601f820116820180604052508101906108fb91906128d4565b925050506109096001606555565b9392505050565b60405163366318fd60e11b8152609f600482015260009073__$cbcc74385362534c50df661ce3578a62af$__90636cc631fa906024016105d9565b610953611a06565b6040516314f685c360e01b815260996004820152602481018390526044810182905273__$cbcc74385362534c50df661ce3578a62af$__906314f685c39060640160006040518083038186803b1580156109ac57600080fd5b505af41580156109c0573d6000803e3d6000fd5b505050505050565b6109d0611a06565b6109da6000611b04565b565b609d546000906001600160a01b03838116911614610a175760a1546106e5908490609f90609d906099906097906001600160a01b0316611b56565b60a154610789908490609d90609f906099906097906001600160a01b0316611b56565b610a42611a06565b6040516327d0477560e01b8152609760048201526024810182905273__$cbcc74385362534c50df661ce3578a62af$__906327d04775906044016107d5565b60608167ffffffffffffffff811115610a9c57610a9c612f3e565b604051908082528060200260200182016040528015610acf57816020015b6060815260200190600190039081610aba5790505b50905060005b82811015610bdb5760008030868685818110610af357610af3612f28565b9050602002810190610b059190612caa565b604051610b13929190612a33565b600060405180830381855af49150503d8060008114610b4e576040519150601f19603f3d011682016040523d82523d6000602084013e610b53565b606091505b509150915081610ba857604481511015610b6c57600080fd5b60048101905080806020019051810190610b86919061284d565b60405162461bcd60e51b8152600401610b9f9190612b8a565b60405180910390fd5b80848481518110610bbb57610bbb612f28565b602002602001018190525050508080610bd390612ef7565b915050610ad5565b5092915050565b60008054610100900460ff1615808015610c035750600054600160ff909116105b80610c1d5750303b158015610c1d575060005460ff166001145b610c805760405162461bcd60e51b815260206004820152602e60248201527f496e697469616c697a61626c653a20636f6e747261637420697320616c72656160448201526d191e481a5b9a5d1a585b1a5e995960921b6064820152608401610b9f565b6000805460ff191660011790558015610ca3576000805461ff0019166101001790555b610cab611bd7565b610cb3611bfe565b610cbb611c2e565b886001600160a01b03168a6001600160a01b03161415610d105760405162461bcd60e51b815260206004820152601060248201526f4455504c49434154455f544f4b454e5360801b6044820152606401610b9f565b6001600160a01b038a16610d5b5760405162461bcd60e51b8152602060048201526012602482015271544f4b454e305f5a45524f4144445245535360701b6044820152606401610b9f565b6001600160a01b038916610da65760405162461bcd60e51b8152602060048201526012602482015271544f4b454e315f5a45524f4144445245535360701b6044820152606401610b9f565b60008a6001600160a01b031663313ce5676040518163ffffffff1660e01b815260040160206040518083038186803b158015610de157600080fd5b505afa158015610df5573d6000803e3d6000fd5b505050506040513d601f19601f82011682018060405250810190610e1991906129b2565b905060008160ff1611610e2b57600080fd5b60405180604001604052808c6001600160a01b03168152602001826012610e529190612ea8565b610e5d90600a612dc7565b90528051609d80546001600160a01b0319166001600160a01b03928316179055602091820151609e556040805163313ce56760e01b81529051600093928e169263313ce5679260048082019391829003018186803b158015610ebe57600080fd5b505afa158015610ed2573d6000803e3d6000fd5b505050506040513d601f19601f82011682018060405250810190610ef691906129b2565b905060008160ff1611610f0857600080fd5b60405180604001604052808c6001600160a01b03168152602001826012610f2f9190612ea8565b610f3a90600a612dc7565b90528051609f80546001600160a01b0319166001600160a01b039092169190911790556020015160a055620f42408810610fab5760405162461bcd60e51b81526020600482015260126024820152715f612065786365656473206d6178696d756d60701b6044820152606401610b9f565b610fb6606489612e72565b609955610fc4606489612e72565b609a556305f5e10087106110115760405162461bcd60e51b81526020600482015260146024820152735f6665652065786365656473206d6178696d756d60601b6044820152606401610b9f565b6402540be40086106110655760405162461bcd60e51b815260206004820152601960248201527f5f61646d696e4665652065786365656473206d6178696d756d000000000000006044820152606401610b9f565b604080518082019091528781526020018690526097879055609886905561108b85611c55565b60a180546001600160a01b0319166001600160a01b0392909216918217905560405163266c45bb60e11b8152634cd88b76906110cd908d908d90600401612b9d565b602060405180830381600087803b1580156110e757600080fd5b505af11580156110fb573d6000803e3d6000fd5b505050506040513d601f19601f8201168201806040525081019061111f919061270e565b61116b5760405162461bcd60e51b815260206004820152601c60248201527f636f756c64206e6f7420696e6974206c70546f6b656e20636c6f6e65000000006044820152606401610b9f565b60019350505080156111b7576000805461ff0019169055604051600181527f7f26b83ff96e1f2b6a682f133852f6798a09c465da95921460cefb38474024989060200160405180910390a15b5098975050505050505050565b60006111ce611a60565b816111d881611aba565b60408051608081018252609d546001600160a01b03908116828401908152609e546060840152825282518084018452609f548216815260a05460208281019190915283015260a1549251630175961160e11b8152919273__$cbcc74385362534c50df661ce3578a62af$__926302eb2c22926108ab9286928c928c926099926097929190911690600401612aa5565b60405163366318fd60e11b8152609d600482015260009073__$cbcc74385362534c50df661ce3578a62af$__90636cc631fa906024016105d9565b604051636eb1769f60e11b81523360048201523060248201526000906001600160a01b0388169063dd62ed3e9060440160206040518083038186803b1580156112ea57600080fd5b505afa1580156112fe573d6000803e3d6000fd5b505050506040513d601f19601f8201168201806040525081019061132291906128d4565b905085811015611343576113438761133a8389612e91565b8787878761197a565b50505050505050565b611354611a06565b60405163b0845bc560e01b81526099600482015273__$cbcc74385362534c50df661ce3578a62af$__9063b0845bc59060240160006040518083038186803b15801561139f57600080fd5b505af41580156113b3573d6000803e3d6000fd5b50505050565b60006113c3611a60565b816113cd81611aba565b609d546001600160a01b03878116911614156114915760405163cbab294f60e01b8152609d6004820152609f6024820152604481018690526064810185905260996084820152609760a482015273__$cbcc74385362534c50df661ce3578a62af$__9063cbab294f9060c4015b60206040518083038186803b15801561145257600080fd5b505af4158015611466573d6000803e3d6000fd5b505050506040513d601f19601f8201168201806040525081019061148a91906128d4565b915061153b565b609f546001600160a01b03878116911614156115025760405163cbab294f60e01b8152609f6004820152609d6024820152604481018690526064810185905260996084820152609760a482015273__$cbcc74385362534c50df661ce3578a62af$__9063cbab294f9060c40161143a565b60405162461bcd60e51b815260206004820152600e60248201526d4241445f544f4b454e5f46524f4d60901b6044820152606401610b9f565b506115466001606555565b949350505050565b6000611558611a60565b8161156281611aba565b609d546001600160a01b03868116911614156115ca5760a1546040516353d5d9cb60e11b815273__$cbcc74385362534c50df661ce3578a62af$__9163a7abb3969161143a918a91609d91609f918b916099916097916001600160a01b031690600401612c71565b60a1546040516353d5d9cb60e11b815273__$cbcc74385362534c50df661ce3578a62af$__9163a7abb3969161143a918a91609f91609d918b916099916097916001600160a01b031690600401612c71565b604051633057705f60e21b81526099600482015260009073__$cbcc74385362534c50df661ce3578a62af$__9063c15dc17c906024016105d9565b61165f61246f565b611667611a60565b8161167181611aba565b60408051608081018252609d546001600160a01b03908116828401908152609e546060840152825282518084018452609f548216815260a05460208281019190915283015260a1549251632657942960e01b8152919273__$cbcc74385362534c50df661ce3578a62af$__926326579429926116f7928b9287928c921690600401612c0d565b604080518083038186803b15801561170e57600080fd5b505af4158015611722573d6000803e3d6000fd5b505050506040513d601f19601f820116820180604052508101906108fb919061262f565b60a154604051631013a0c960e31b8152609d6004820152609f6024820152609960448201526001600160a01b03909116606482015260009073__$cbcc74385362534c50df661ce3578a62af$__9063809d0648906084016105d9565b60408051608081018252609d546001600160a01b03908116828401908152609e546060840152825282518084018452609f548216815260a05460208281019190915283015260a154925163196d005960e31b815260009373__$cbcc74385362534c50df661ce3578a62af$__9263cb6802c89261182f9286928b928b928b92609992911690600401612aeb565b60206040518083038186803b15801561184757600080fd5b505af415801561185b573d6000803e3d6000fd5b505050506040513d601f19601f8201168201806040525081019061187f91906128d4565b95945050505050565b61189061246f565b60408051608081018252609d546001600160a01b03908116828401908152609e546060840152825282518084018452609f548216815260a05460208281019190915283015260a154925163296104cd60e01b8152919273__$cbcc74385362534c50df661ce3578a62af$__9263296104cd9261191792889287929190911690600401612c44565b604080518083038186803b15801561192e57600080fd5b505af4158015611942573d6000803e3d6000fd5b505050506040513d601f19601f82011682018060405250810190610909919061262f565b61196e611a06565b61197781611cef565b50565b60405163d505accf60e01b8152336004820152306024820152604481018690526064810185905260ff8416608482015260a4810183905260c481018290526001600160a01b0387169063d505accf9060e401600060405180830381600087803b1580156119e657600080fd5b505af11580156119fa573d6000803e3d6000fd5b50505050505050505050565b6033546001600160a01b031633146109da5760405162461bcd60e51b815260206004820181905260248201527f4f776e61626c653a2063616c6c6572206973206e6f7420746865206f776e65726044820152606401610b9f565b60026065541415611ab35760405162461bcd60e51b815260206004820152601f60248201527f5265656e7472616e637947756172643a207265656e7472616e742063616c6c006044820152606401610b9f565b6002606555565b804211156119775760405162461bcd60e51b815260206004820152601060248201526f111958591b1a5b99481b9bdd081b595d60821b6044820152606401610b9f565b6001606555565b603380546001600160a01b038381166001600160a01b0319831681179093556040519116919082907f8be0079c531659141344cd1fd0a4f28419497f9722a3daafe3b4186f6b6457e090600090a35050565b6000806111b7888888866001600160a01b03166318160ddd6040518163ffffffff1660e01b815260040160206040518083038186803b158015611b9857600080fd5b505afa158015611bac573d6000803e3d6000fd5b505050506040513d601f19601f82011682018060405250810190611bd091906128d4565b8989611d65565b600054610100900460ff166109da5760405162461bcd60e51b8152600401610b9f90612bc2565b600054610100900460ff16611c255760405162461bcd60e51b8152600401610b9f90612bc2565b6109da33611b04565b600054610100900460ff16611afd5760405162461bcd60e51b8152600401610b9f90612bc2565b6000763d602d80600a3d3981f3363d3d373d3d3d363d730000008260601b60e81c176000526e5af43d82803e903d91602b57fd5bf38260781b17602052603760096000f090506001600160a01b038116611cea5760405162461bcd60e51b8152602060048201526016602482015275115490cc4c4d8dce8818dc99585d194819985a5b195960521b6044820152606401610b9f565b919050565b611cf7611a06565b6001600160a01b038116611d5c5760405162461bcd60e51b815260206004820152602660248201527f4f776e61626c653a206e6577206f776e657220697320746865207a65726f206160448201526564647265737360d01b6064820152608401610b9f565b61197781611b04565b6000806000806000611d848b8b8b8b611d7d8c611dc7565b8b54611e6e565b60018d015492955090935091506000908490611da08585612e91565b611daa9190612d62565b611db49190612e91565b939c939b50929950505050505050505050565b600381015460018201546000919042821115610909576002840154845480831115611e3257611df68285612e91565b611e008342612e91565b611e0a8386612e91565b611e149190612e72565b611e1e9190612d62565b611e289082612d4a565b9695505050505050565b611e3c8285612e91565b611e468342612e91565b611e508584612e91565b611e5a9190612e72565b611e649190612d62565b611e289082612e91565b8454600090819081908190611e8b906001600160a01b03166120bb565b90506000611e9d828b60010154612135565b8954909150600090611eb7906001600160a01b03166120bb565b90506000611ec9828c60010154612135565b6040805160a0810182526000808252602082018190529181018290526060810191909152608081018b9052909150611f0282858c612141565b8160000181815250508a81600001518f611f1c9190612e72565b611f269190612d62565b8151611f329190612e91565b6020820152838e1115611f875760405162461bcd60e51b815260206004820152601860248201527f414d4f554e545f455843454544535f415641494c41424c4500000000000000006044820152606401610b9f565b611f9a81608001518383602001516122c5565b6040820152611fa889612426565b606082018190526040820151825160208401516000936402540be4009390929091611fd3908a612e72565b611fdd9190612d62565b611fe79190612e91565b611ff19190612e72565b611ffb9190612d62565b6120059086612e91565b905060006402540be400836060015184600001518560200151876120299190612e72565b6120339190612d62565b61203d9087612e91565b6120479190612e72565b6120519190612d62565b61205b9085612e91565b9050600061207284608001518386602001516122c5565b61207c9084612e91565b90508f600101546001826120909190612e91565b61209a9190612d62565b604090940151939a5092985094965050505050505096509650969350505050565b6040516370a0823160e01b81523060048201526000906001600160a01b038316906370a082319060240160206040518083038186803b1580156120fd57600080fd5b505afa158015612111573d6000803e3d6000fd5b505050506040513d601f19601f8201168201806040525081019061078c91906128d4565b60006107898284612e72565b60008061214e8486612d4a565b90508061215f576000915050610909565b6000818161216e600287612e72565b905060005b610100811015612286578261218960028b612e72565b6121938583612e72565b61219d9190612d62565b90506121aa60028a612e72565b6121b48583612e72565b6121be9190612d62565b90508394506000846002836121d39190612e72565b60646121df8a88612e72565b6121e99190612d62565b6121f39190612d4a565b6121fd9190612e72565b905060008261220e60026001612d4a565b6122189190612e72565b6064876122258289612e91565b61222f9190612e72565b6122399190612d62565b6122439190612d4a565b905061224f8183612d62565b955061225b8688612433565b15612270578598505050505050505050610909565b505050808061227e90612ef7565b915050612173565b5060405162461bcd60e51b81526020600482015260136024820152724420646f6573206e6f7420636f6e766572676560681b6044820152606401610b9f565b6000806122d3600285612e72565b6122dd8480612e72565b6122e79190612d62565b90508360006122f7600288612e72565b9050612304600282612e72565b60646123108786612e72565b61231a9190612e72565b6123249190612d62565b9250600081612334606488612e72565b61233e9190612d62565b6123489084612d4a565b9050600086815b6101008110156123dd57819250600087838461236b9190612e72565b6123759190612d4a565b905060008a86612386866002612e72565b6123909190612d4a565b61239a9190612e91565b90506123a68183612d62565b93506123b28486612433565b156123c857839950505050505050505050610909565b505080806123d590612ef7565b91505061234f565b5060405162461bcd60e51b815260206004820152601e60248201527f417070726f78696d6174696f6e20646964206e6f7420636f6e766572676500006044820152606401610b9f565b600061078c600283612d62565b60006001612441848461244a565b11159392505050565b6000818311156124655761245e8284612e91565b905061078c565b6107898383612e91565b60405180604001604052806002906020820280368337509192915050565b60008083601f84011261249f57600080fd5b50813567ffffffffffffffff8111156124b757600080fd5b6020830191508360208260051b85010111156124d257600080fd5b9250929050565b806040810183101561078c57600080fd5b600082601f8301126124fb57600080fd5b813561250e61250982612d22565b612cf1565b81815284602083860101111561252357600080fd5b816020850160208301376000918101602001919091529392505050565b60006020828403121561255257600080fd5b813561090981612f54565b60008060008060008060c0878903121561257657600080fd5b863561258181612f54565b95506020870135945060408701359350606087013561259f81612f77565b9598949750929560808101359460a0909101359350915050565b600080602083850312156125cc57600080fd5b823567ffffffffffffffff8111156125e357600080fd5b6125ef8582860161248d565b90969095509350505050565b60008060006080848603121561261057600080fd5b61261a85856124d9565b95604085013595506060909401359392505050565b60006040828403121561264157600080fd5b82601f83011261265057600080fd5b6040516040810181811067ffffffffffffffff8211171561267357612673612f3e565b806040525080838560408601111561268a57600080fd5b60005b60028110156126ac57815183526020928301929091019060010161268d565b509195945050505050565b6000806000604084860312156126cc57600080fd5b833567ffffffffffffffff8111156126e357600080fd5b6126ef8682870161248d565b909450925050602084013561270381612f69565b809150509250925092565b60006020828403121561272057600080fd5b815161090981612f69565b600080600080600080600080610100898b03121561274857600080fd5b883561275381612f54565b9750602089013561276381612f54565b9650604089013567ffffffffffffffff8082111561278057600080fd5b61278c8c838d016124ea565b975060608b01359150808211156127a257600080fd5b506127af8b828c016124ea565b9550506080890135935060a0890135925060c0890135915060e08901356127d581612f54565b809150509295985092959890939650565b600080604083850312156127f957600080fd5b823561280481612f54565b946020939093013593505050565b6000806000806080858703121561282857600080fd5b843561283381612f54565b966020860135965060408601359560600135945092505050565b60006020828403121561285f57600080fd5b815167ffffffffffffffff81111561287657600080fd5b8201601f8101841361288757600080fd5b805161289561250982612d22565b8181528560208385010111156128aa57600080fd5b61187f826020830160208601612ecb565b6000602082840312156128cd57600080fd5b5035919050565b6000602082840312156128e657600080fd5b5051919050565b60008060006080848603121561290257600080fd5b8335925061291385602086016124d9565b9150606084013590509250925092565b6000806040838503121561293657600080fd5b82359150602083013561294881612f54565b809150509250929050565b6000806000806080858703121561296957600080fd5b84359350602085013561297b81612f54565b93969395505050506040820135916060013590565b600080604083850312156129a357600080fd5b50508035926020909101359150565b6000602082840312156129c457600080fd5b815161090981612f77565b8060005b60028110156113b357815180516001600160a01b0316855260209081015181860152604090940193909101906001016129d3565b60008151808452612a1f816020860160208601612ecb565b601f01601f19169290920160200192915050565b8183823760009101908152919050565b6000602080830181845280855180835260408601915060408160051b870101925083870160005b82811015612a9857603f19888603018452612a86858351612a07565b94509285019290850190600101612a6a565b5092979650505050505050565b6101408101612ab482896129cf565b604087608084013760c082019590955260e08101939093526101008301919091526001600160a01b03166101209091015292915050565b6000610100612afa838a6129cf565b6080830181905282018690526101206001600160fb1b03871115612b1d57600080fd5b8660051b808983860137600090840190910190815294151560a08301525060c08101929092526001600160a01b031660e0909101529392505050565b60408101818360005b6002811015612b81578151835260209283019290910190600101612b62565b50505092915050565b6020815260006107896020830184612a07565b604081526000612bb06040830185612a07565b828103602084015261187f8185612a07565b6020808252602b908201527f496e697469616c697a61626c653a20636f6e7472616374206973206e6f74206960408201526a6e697469616c697a696e6760a81b606082015260800190565b8481526101008101612c2260208301866129cf565b60408460a08401376001600160a01b039290921660e091909101529392505050565b83815260c08101612c5860208301856129cf565b6001600160a01b039290921660a0919091015292915050565b968752602087019590955260408601939093526060850191909152608084015260a08301526001600160a01b031660c082015260e00190565b6000808335601e19843603018112612cc157600080fd5b83018035915067ffffffffffffffff821115612cdc57600080fd5b6020019150368190038213156124d257600080fd5b604051601f8201601f1916810167ffffffffffffffff81118282101715612d1a57612d1a612f3e565b604052919050565b600067ffffffffffffffff821115612d3c57612d3c612f3e565b50601f01601f191660200190565b60008219821115612d5d57612d5d612f12565b500190565b600082612d7f57634e487b7160e01b600052601260045260246000fd5b500490565b600181815b80851115612dbf578160001904821115612da557612da5612f12565b80851615612db257918102915b93841c9390800290612d89565b509250929050565b600061078960ff841683600082612de05750600161078c565b81612ded5750600061078c565b8160018114612e035760028114612e0d57612e29565b600191505061078c565b60ff841115612e1e57612e1e612f12565b50506001821b61078c565b5060208310610133831016604e8410600b8410161715612e4c575081810a61078c565b612e568383612d84565b8060001904821115612e6a57612e6a612f12565b029392505050565b6000816000190483118215151615612e8c57612e8c612f12565b500290565b600082821015612ea357612ea3612f12565b500390565b600060ff821660ff841680821015612ec257612ec2612f12565b90039392505050565b60005b83811015612ee6578181015183820152602001612ece565b838111156113b35750506000910152565b6000600019821415612f0b57612f0b612f12565b5060010190565b634e487b7160e01b600052601160045260246000fd5b634e487b7160e01b600052603260045260246000fd5b634e487b7160e01b600052604160045260246000fd5b6001600160a01b038116811461197757600080fd5b801515811461197757600080fd5b60ff8116811461197757600080fdfea26469706673582212202950cdc86cc3bae6a6c66aa941a42b775d747db5d4e530a17656992b03c1948e64736f6c63430008070033",
    "linkReferences": {
      "src/tenderswap/SwapUtils.sol": {
        "SwapUtils": [
          {
            "start": 1499,
            "length": 20
          },
          {
            "start": 1688,
            "length": 20
          },
          {
            "start": 1852,
            "length": 20
          },
          {
            "start": 2007,
            "length": 20
          },
          {
            "start": 2196,
            "length": 20
          },
          {
            "start": 2377,
            "length": 20
          },
          {
            "start": 2455,
            "length": 20
          },
          {
            "start": 2687,
            "length": 20
          },
          {
            "start": 4688,
            "length": 20
          },
          {
            "start": 4768,
            "length": 20
          },
          {
            "start": 5002,
            "length": 20
          },
          {
            "start": 5180,
            "length": 20
          },
          {
            "start": 5376,
            "length": 20
          },
          {
            "start": 5546,
            "length": 20
          },
          {
            "start": 5628,
            "length": 20
          },
          {
            "start": 5717,
            "length": 20
          },
          {
            "start": 5865,
            "length": 20
          },
          {
            "start": 6048,
            "length": 20
          },
          {
            "start": 6171,
            "length": 20
          },
          {
            "start": 6408,
            "length": 20
          }
        ]
      }
    }
  },
  "methodIdentifiers": {
    "addLiquidity(uint256[2],uint256,uint256)": "46eda749",
    "amplificationParams()": "256967ac",
    "calculateRemoveLiquidity(uint256)": "f2fad2b6",
    "calculateRemoveLiquidityOneToken(uint256,address)": "805d2766",
    "calculateSwap(address,uint256)": "1de8d8cb",
    "calculateTokenAmount(uint256[],bool)": "e6ab2806",
    "feeParams()": "9242164f",
    "getA()": "d46300fd",
    "getAPrecise()": "0ba81959",
    "getToken0()": "ba94a315",
    "getToken0Balance()": "c2d9ecfa",
    "getToken1()": "6f26a710",
    "getToken1Balance()": "5153786b",
    "getVirtualPrice()": "e25aa5fa",
    "initialize(address,address,string,string,uint256,uint256,uint256,address)": "afcd5f4b",
    "lpToken()": "5fcbd285",
    "multicall(bytes[])": "ac9650d8",
    "owner()": "8da5cb5b",
    "rampA(uint256,uint256)": "593d132c",
    "removeLiquidity(uint256,uint256[2],uint256)": "d6f0df62",
    "removeLiquidityImbalance(uint256[2],uint256,uint256)": "bfc65c9b",
    "removeLiquidityOneToken(uint256,address,uint256,uint256)": "ce1fdb8b",
    "renounceOwnership()": "715018a6",
    "selfPermit(address,uint256,uint256,uint8,bytes32,bytes32)": "f3995c67",
    "selfPermitIfNecessary(address,uint256,uint256,uint8,bytes32,bytes32)": "c2e3140a",
    "setAdminFee(uint256)": "8beb60b6",
    "setSwapFee(uint256)": "34e19907",
    "stopRampA()": "c4db7fa0",
    "swap(address,uint256,uint256,uint256)": "c9ec9248",
    "transferOwnership(address)": "f2fde38b"
  },
  "id": 50
}