{
  "abi": [
    {
      "anonymous": false,
      "inputs": [
        {
          "indexed": true,
          "internalType": "address",
          "name": "provider",
          "type": "address"
        },
        {
          "indexed": false,
          "internalType": "uint256[2]",
          "name": "tokenAmounts",
          "type": "uint256[2]"
        },
        {
          "indexed": false,
          "internalType": "uint256[2]",
          "name": "fees",
          "type": "uint256[2]"
        },
        {
          "indexed": false,
          "internalType": "uint256",
          "name": "invariant",
          "type": "uint256"
        },
        {
          "indexed": false,
          "internalType": "uint256",
          "name": "lpTokenSupply",
          "type": "uint256"
        }
      ],
      "name": "AddLiquidity",
      "type": "event"
    },
    {
      "anonymous": false,
      "inputs": [
        {
          "indexed": false,
          "internalType": "uint8",
          "name": "version",
          "type": "uint8"
        }
      ],
      "name": "Initialized",
      "type": "event"
    },
    {
      "anonymous": false,
      "inputs": [
        {
          "indexed": false,
          "internalType": "uint256",
          "name": "newAdminFee",
          "type": "uint256"
        }
      ],
      "name": "NewAdminFee",
      "type": "event"
    },
    {
      "anonymous": false,
      "inputs": [
        {
          "indexed": false,
          "internalType": "uint256",
          "name": "newSwapFee",
          "type": "uint256"
        }
      ],
      "name": "NewSwapFee",
      "type": "event"
    },
    {
      "anonymous": false,
      "inputs": [
        {
          "indexed": true,
          "internalType": "address",
          "name": "previousOwner",
          "type": "address"
        },
        {
          "indexed": true,
          "internalType": "address",
          "name": "newOwner",
          "type": "address"
        }
      ],
      "name": "OwnershipTransferred",
      "type": "event"
    },
    {
      "anonymous": false,
      "inputs": [
        {
          "indexed": false,
          "internalType": "uint256",
          "name": "oldA",
          "type": "uint256"
        },
        {
          "indexed": false,
          "internalType": "uint256",
          "name": "newA",
          "type": "uint256"
        },
        {
          "indexed": false,
          "internalType": "uint256",
          "name": "initialTime",
          "type": "uint256"
        },
        {
          "indexed": false,
          "internalType": "uint256",
          "name": "futureTime",
          "type": "uint256"
        }
      ],
      "name": "RampA",
      "type": "event"
    },
    {
      "anonymous": false,
      "inputs": [
        {
          "indexed": true,
          "internalType": "address",
          "name": "provider",
          "type": "address"
        },
        {
          "indexed": false,
          "internalType": "uint256[2]",
          "name": "tokenAmounts",
          "type": "uint256[2]"
        },
        {
          "indexed": false,
          "internalType": "uint256",
          "name": "lpTokenSupply",
          "type": "uint256"
        }
      ],
      "name": "RemoveLiquidity",
      "type": "event"
    },
    {
      "anonymous": false,
      "inputs": [
        {
          "indexed": true,
          "internalType": "address",
          "name": "provider",
          "type": "address"
        },
        {
          "indexed": false,
          "internalType": "uint256[2]",
          "name": "tokenAmounts",
          "type": "uint256[2]"
        },
        {
          "indexed": false,
          "internalType": "uint256[2]",
          "name": "fees",
          "type": "uint256[2]"
        },
        {
          "indexed": false,
          "internalType": "uint256",
          "name": "invariant",
          "type": "uint256"
        },
        {
          "indexed": false,
          "internalType": "uint256",
          "name": "lpTokenSupply",
          "type": "uint256"
        }
      ],
      "name": "RemoveLiquidityImbalance",
      "type": "event"
    },
    {
      "anonymous": false,
      "inputs": [
        {
          "indexed": true,
          "internalType": "address",
          "name": "provider",
          "type": "address"
        },
        {
          "indexed": false,
          "internalType": "uint256",
          "name": "lpTokenAmount",
          "type": "uint256"
        },
        {
          "indexed": false,
          "internalType": "uint256",
          "name": "lpTokenSupply",
          "type": "uint256"
        },
        {
          "indexed": false,
          "internalType": "contract IERC20",
          "name": "tokenReceived",
          "type": "address"
        },
        {
          "indexed": false,
          "internalType": "uint256",
          "name": "receivedAmount",
          "type": "uint256"
        }
      ],
      "name": "RemoveLiquidityOne",
      "type": "event"
    },
    {
      "anonymous": false,
      "inputs": [
        {
          "indexed": false,
          "internalType": "uint256",
          "name": "currentA",
          "type": "uint256"
        },
        {
          "indexed": false,
          "internalType": "uint256",
          "name": "time",
          "type": "uint256"
        }
      ],
      "name": "StopRampA",
      "type": "event"
    },
    {
      "anonymous": false,
      "inputs": [
        {
          "indexed": true,
          "internalType": "address",
          "name": "buyer",
          "type": "address"
        },
        {
          "indexed": false,
          "internalType": "contract IERC20",
          "name": "tokenSold",
          "type": "address"
        },
        {
          "indexed": false,
          "internalType": "uint256",
          "name": "amountSold",
          "type": "uint256"
        },
        {
          "indexed": false,
          "internalType": "uint256",
          "name": "amountReceived",
          "type": "uint256"
        }
      ],
      "name": "Swap",
      "type": "event"
    },
    {
      "inputs": [
        {
          "internalType": "uint256[2]",
          "name": "_amounts",
          "type": "uint256[2]"
        },
        {
          "internalType": "uint256",
          "name": "_minToMint",
          "type": "uint256"
        },
        {
          "internalType": "uint256",
          "name": "_deadline",
          "type": "uint256"
        }
      ],
      "name": "addLiquidity",
      "outputs": [
        {
          "internalType": "uint256",
          "name": "",
          "type": "uint256"
        }
      ],
      "stateMutability": "nonpayable",
      "type": "function"
    },
    {
      "inputs": [],
      "name": "amplificationParams",
      "outputs": [
        {
          "internalType": "uint256",
          "name": "initialA",
          "type": "uint256"
        },
        {
          "internalType": "uint256",
          "name": "futureA",
          "type": "uint256"
        },
        {
          "internalType": "uint256",
          "name": "initialATime",
          "type": "uint256"
        },
        {
          "internalType": "uint256",
          "name": "futureATime",
          "type": "uint256"
        }
      ],
      "stateMutability": "view",
      "type": "function"
    },
    {
      "inputs": [
        {
          "internalType": "uint256",
          "name": "amount",
          "type": "uint256"
        }
      ],
      "name": "calculateRemoveLiquidity",
      "outputs": [
        {
          "internalType": "uint256[2]",
          "name": "",
          "type": "uint256[2]"
        }
      ],
      "stateMutability": "view",
      "type": "function"
    },
    {
      "inputs": [
        {
          "internalType": "uint256",
          "name": "tokenAmount",
          "type": "uint256"
        },
        {
          "internalType": "contract IERC20",
          "name": "tokenReceive",
          "type": "address"
        }
      ],
      "name": "calculateRemoveLiquidityOneToken",
      "outputs": [
        {
          "internalType": "uint256",
          "name": "",
          "type": "uint256"
        }
      ],
      "stateMutability": "view",
      "type": "function"
    },
    {
      "inputs": [
        {
          "internalType": "contract IERC20",
          "name": "_tokenFrom",
          "type": "address"
        },
        {
          "internalType": "uint256",
          "name": "_dx",
          "type": "uint256"
        }
      ],
      "name": "calculateSwap",
      "outputs": [
        {
          "internalType": "uint256",
          "name": "",
          "type": "uint256"
        }
      ],
      "stateMutability": "view",
      "type": "function"
    },
    {
      "inputs": [
        {
          "internalType": "uint256[]",
          "name": "amounts",
          "type": "uint256[]"
        },
        {
          "internalType": "bool",
          "name": "deposit",
          "type": "bool"
        }
      ],
      "name": "calculateTokenAmount",
      "outputs": [
        {
          "internalType": "uint256",
          "name": "",
          "type": "uint256"
        }
      ],
      "stateMutability": "view",
      "type": "function"
    },
    {
      "inputs": [],
      "name": "feeParams",
      "outputs": [
        {
          "internalType": "uint256",
          "name": "swapFee",
          "type": "uint256"
        },
        {
          "internalType": "uint256",
          "name": "adminFee",
          "type": "uint256"
        }
      ],
      "stateMutability": "view",
      "type": "function"
    },
    {
      "inputs": [],
      "name": "getA",
      "outputs": [
        {
          "internalType": "uint256",
          "name": "",
          "type": "uint256"
        }
      ],
      "stateMutability": "view",
      "type": "function"
    },
    {
      "inputs": [],
      "name": "getAPrecise",
      "outputs": [
        {
          "internalType": "uint256",
          "name": "",
          "type": "uint256"
        }
      ],
      "stateMutability": "view",
      "type": "function"
    },
    {
      "inputs": [],
      "name": "getToken0",
      "outputs": [
        {
          "internalType": "contract IERC20",
          "name": "",
          "type": "address"
        }
      ],
      "stateMutability": "view",
      "type": "function"
    },
    {
      "inputs": [],
      "name": "getToken0Balance",
      "outputs": [
        {
          "internalType": "uint256",
          "name": "",
          "type": "uint256"
        }
      ],
      "stateMutability": "view",
      "type": "function"
    },
    {
      "inputs": [],
      "name": "getToken1",
      "outputs": [
        {
          "internalType": "contract IERC20",
          "name": "",
          "type": "address"
        }
      ],
      "stateMutability": "view",
      "type": "function"
    },
    {
      "inputs": [],
      "name": "getToken1Balance",
      "outputs": [
        {
          "internalType": "uint256",
          "name": "",
          "type": "uint256"
        }
      ],
      "stateMutability": "view",
      "type": "function"
    },
    {
      "inputs": [],
      "name": "getVirtualPrice",
      "outputs": [
        {
          "internalType": "uint256",
          "name": "",
          "type": "uint256"
        }
      ],
      "stateMutability": "view",
      "type": "function"
    },
    {
      "inputs": [
        {
          "internalType": "contract IERC20",
          "name": "_token0",
          "type": "address"
        },
        {
          "internalType": "contract IERC20",
          "name": "_token1",
          "type": "address"
        },
        {
          "internalType": "string",
          "name": "lpTokenName",
          "type": "string"
        },
        {
          "internalType": "string",
          "name": "lpTokenSymbol",
          "type": "string"
        },
        {
          "internalType": "uint256",
          "name": "_a",
          "type": "uint256"
        },
        {
          "internalType": "uint256",
          "name": "_fee",
          "type": "uint256"
        },
        {
          "internalType": "uint256",
          "name": "_adminFee",
          "type": "uint256"
        },
        {
          "internalType": "contract LiquidityPoolToken",
          "name": "lpTokenTargetAddress",
          "type": "address"
        }
      ],
      "name": "initialize",
      "outputs": [
        {
          "internalType": "bool",
          "name": "",
          "type": "bool"
        }
      ],
      "stateMutability": "nonpayable",
      "type": "function"
    },
    {
      "inputs": [],
      "name": "lpToken",
      "outputs": [
        {
          "internalType": "contract LiquidityPoolToken",
          "name": "",
          "type": "address"
        }
      ],
      "stateMutability": "view",
      "type": "function"
    },
    {
      "inputs": [
        {
          "internalType": "bytes[]",
          "name": "_data",
          "type": "bytes[]"
        }
      ],
      "name": "multicall",
      "outputs": [
        {
          "internalType": "bytes[]",
          "name": "results",
          "type": "bytes[]"
        }
      ],
      "stateMutability": "payable",
      "type": "function"
    },
    {
      "inputs": [],
      "name": "owner",
      "outputs": [
        {
          "internalType": "address",
          "name": "",
          "type": "address"
        }
      ],
      "stateMutability": "view",
      "type": "function"
    },
    {
      "inputs": [
        {
          "internalType": "uint256",
          "name": "futureA",
          "type": "uint256"
        },
        {
          "internalType": "uint256",
          "name": "futureTime",
          "type": "uint256"
        }
      ],
      "name": "rampA",
      "outputs": [],
      "stateMutability": "nonpayable",
      "type": "function"
    },
    {
      "inputs": [
        {
          "internalType": "uint256",
          "name": "amount",
          "type": "uint256"
        },
        {
          "internalType": "uint256[2]",
          "name": "minAmounts",
          "type": "uint256[2]"
        },
        {
          "internalType": "uint256",
          "name": "deadline",
          "type": "uint256"
        }
      ],
      "name": "removeLiquidity",
      "outputs": [
        {
          "internalType": "uint256[2]",
          "name": "",
          "type": "uint256[2]"
        }
      ],
      "stateMutability": "nonpayable",
      "type": "function"
    },
    {
      "inputs": [
        {
          "internalType": "uint256[2]",
          "name": "_amounts",
          "type": "uint256[2]"
        },
        {
          "internalType": "uint256",
          "name": "_maxBurnAmount",
          "type": "uint256"
        },
        {
          "internalType": "uint256",
          "name": "_deadline",
          "type": "uint256"
        }
      ],
      "name": "removeLiquidityImbalance",
      "outputs": [
        {
          "internalType": "uint256",
          "name": "",
          "type": "uint256"
        }
      ],
      "stateMutability": "nonpayable",
      "type": "function"
    },
    {
      "inputs": [
        {
          "internalType": "uint256",
          "name": "_tokenAmount",
          "type": "uint256"
        },
        {
          "internalType": "contract IERC20",
          "name": "_tokenReceive",
          "type": "address"
        },
        {
          "internalType": "uint256",
          "name": "_minAmount",
          "type": "uint256"
        },
        {
          "internalType": "uint256",
          "name": "_deadline",
          "type": "uint256"
        }
      ],
      "name": "removeLiquidityOneToken",
      "outputs": [
        {
          "internalType": "uint256",
          "name": "",
          "type": "uint256"
        }
      ],
      "stateMutability": "nonpayable",
      "type": "function"
    },
    {
      "inputs": [],
      "name": "renounceOwnership",
      "outputs": [],
      "stateMutability": "nonpayable",
      "type": "function"
    },
    {
      "inputs": [
        {
          "internalType": "address",
          "name": "_token",
          "type": "address"
        },
        {
          "internalType": "uint256",
          "name": "_value",
          "type": "uint256"
        },
        {
          "internalType": "uint256",
          "name": "_deadline",
          "type": "uint256"
        },
        {
          "internalType": "uint8",
          "name": "_v",
          "type": "uint8"
        },
        {
          "internalType": "bytes32",
          "name": "_r",
          "type": "bytes32"
        },
        {
          "internalType": "bytes32",
          "name": "_s",
          "type": "bytes32"
        }
      ],
      "name": "selfPermit",
      "outputs": [],
      "stateMutability": "payable",
      "type": "function"
    },
    {
      "inputs": [
        {
          "internalType": "address",
          "name": "_token",
          "type": "address"
        },
        {
          "internalType": "uint256",
          "name": "_value",
          "type": "uint256"
        },
        {
          "internalType": "uint256",
          "name": "_deadline",
          "type": "uint256"
        },
        {
          "internalType": "uint8",
          "name": "_v",
          "type": "uint8"
        },
        {
          "internalType": "bytes32",
          "name": "_r",
          "type": "bytes32"
        },
        {
          "internalType": "bytes32",
          "name": "_s",
          "type": "bytes32"
        }
      ],
      "name": "selfPermitIfNecessary",
      "outputs": [],
      "stateMutability": "payable",
      "type": "function"
    },
    {
      "inputs": [
        {
          "internalType": "uint256",
          "name": "newAdminFee",
          "type": "uint256"
        }
      ],
      "name": "setAdminFee",
      "outputs": [],
      "stateMutability": "nonpayable",
      "type": "function"
    },
    {
      "inputs": [
        {
          "internalType": "uint256",
          "name": "newSwapFee",
          "type": "uint256"
        }
      ],
      "name": "setSwapFee",
      "outputs": [],
      "stateMutability": "nonpayable",
      "type": "function"
    },
    {
      "inputs": [],
      "name": "stopRampA",
      "outputs": [],
      "stateMutability": "nonpayable",
      "type": "function"
    },
    {
      "inputs": [
        {
          "internalType": "contract IERC20",
          "name": "_tokenFrom",
          "type": "address"
        },
        {
          "internalType": "uint256",
          "name": "_dx",
          "type": "uint256"
        },
        {
          "internalType": "uint256",
          "name": "_minDy",
          "type": "uint256"
        },
        {
          "internalType": "uint256",
          "name": "_deadline",
          "type": "uint256"
        }
      ],
      "name": "swap",
      "outputs": [
        {
          "internalType": "uint256",
          "name": "",
          "type": "uint256"
        }
      ],
      "stateMutability": "nonpayable",
      "type": "function"
    },
    {
      "inputs": [
        {
          "internalType": "address",
          "name": "_newOwnner",
          "type": "address"
        }
      ],
      "name": "transferOwnership",
      "outputs": [],
      "stateMutability": "nonpayable",
      "type": "function"
    }
  ],
  "bytecode": {
    "object": "0x608060405234801561001057600080fd5b50612ebe806100206000396000f3fe6080604052600436106101cd5760003560e01c8063afcd5f4b116100f7578063ce1fdb8b11610095578063e6ab280611610064578063e6ab28061461052f578063f2fad2b61461054f578063f2fde38b1461056f578063f3995c671461058f57600080fd5b8063ce1fdb8b146104b8578063d46300fd146104d8578063d6f0df62146104ed578063e25aa5fa1461051a57600080fd5b8063c2d9ecfa116100d1578063c2d9ecfa1461045b578063c2e3140a14610470578063c4db7fa014610483578063c9ec92481461049857600080fd5b8063afcd5f4b146103ed578063ba94a3151461041d578063bfc65c9b1461043b57600080fd5b80635fcbd2851161016f5780638beb60b61161013e5780638beb60b61461035f5780638da5cb5b1461037f5780639242164f1461039d578063ac9650d8146103cd57600080fd5b80635fcbd285146102d45780636f26a7101461030c578063715018a61461032a578063805d27661461033f57600080fd5b806334e19907116101ab57806334e199071461025d57806346eda7491461027f5780635153786b1461029f578063593d132c146102b457600080fd5b80630ba81959146101d25780631de8d8cb146101fa578063256967ac1461021a575b600080fd5b3480156101de57600080fd5b506101e76105a2565b6040519081526020015b60405180910390f35b34801561020657600080fd5b506101e76102153660046123d1565b61061f565b34801561022657600080fd5b50609954609a54609b54609c5461023d9392919084565b6040805194855260208501939093529183015260608201526080016101f1565b34801561026957600080fd5b5061027d6102783660046123fd565b610765565b005b34801561028b57600080fd5b506101e761029a366004612427565b6107db565b3480156102ab57600080fd5b506101e76108d4565b3480156102c057600080fd5b5061027d6102cf36600461245b565b61090f565b3480156102e057600080fd5b5060a1546102f4906001600160a01b031681565b6040516001600160a01b0390911681526020016101f1565b34801561031857600080fd5b50609f546001600160a01b03166102f4565b34801561033657600080fd5b5061027d61098c565b34801561034b57600080fd5b506101e761035a36600461247d565b6109a0565b34801561036b57600080fd5b5061027d61037a3660046123fd565b6109fe565b34801561038b57600080fd5b506033546001600160a01b03166102f4565b3480156103a957600080fd5b506097546098546103b8919082565b604080519283526020830191909152016101f1565b6103e06103db3660046124f9565b610a45565b6040516101f1919061258b565b3480156103f957600080fd5b5061040d6104083660046126b2565b610ba6565b60405190151581526020016101f1565b34801561042957600080fd5b50609d546001600160a01b03166102f4565b34801561044757600080fd5b506101e7610456366004612427565b61115a565b34801561046757600080fd5b506101e76111fd565b61027d61047e36600461277c565b611238565b34801561048f57600080fd5b5061027d6112d3565b3480156104a457600080fd5b506101e76104b33660046127d8565b611340565b3480156104c457600080fd5b506101e76104d3366004612813565b6114c6565b3480156104e457600080fd5b506101e7611594565b3480156104f957600080fd5b5061050d610508366004612850565b6115cf565b6040516101f19190612886565b34801561052657600080fd5b506101e76116af565b34801561053b57600080fd5b506101e761054a3660046128c5565b61170b565b34801561055b57600080fd5b5061050d61056a3660046123fd565b6117e2565b34801561057b57600080fd5b5061027d61058a36600461291c565b6118b1565b61027d61059d36600461277c565b6118c5565b604051632eae27cb60e11b81526099600482015260009073__$cbcc74385362534c50df661ce3578a62af$__90635d5c4f96906024015b602060405180830381865af41580156105f6573d6000803e3d6000fd5b505050506040513d601f19601f8201168201806040525081019061061a9190612939565b905090565b609d546000906001600160a01b038481169116146106cc5760405163072a9be960e51b8152609f6004820152609d602482015260448101839052609960648201526097608482015273__$cbcc74385362534c50df661ce3578a62af$__9063e5537d209060a401602060405180830381865af41580156106a3573d6000803e3d6000fd5b505050506040513d601f19601f820116820180604052508101906106c79190612939565b61075c565b60405163072a9be960e51b8152609d6004820152609f602482015260448101839052609960648201526097608482015273__$cbcc74385362534c50df661ce3578a62af$__9063e5537d209060a401602060405180830381865af4158015610738573d6000803e3d6000fd5b505050506040513d601f19601f8201168201806040525081019061075c9190612939565b90505b92915050565b61076d611951565b60405163112d146760e21b8152609760048201526024810182905273__$cbcc74385362534c50df661ce3578a62af$__906344b4519c906044015b60006040518083038186803b1580156107c057600080fd5b505af41580156107d4573d6000803e3d6000fd5b5050505050565b60006107e56119ab565b816107ef81611a04565b60408051608081018252609d546001600160a01b03908116828401908152609e546060840152825282518084018452609f548216815260a05460208281019190915283015260a1549251632d5299f760e11b8152919273__$cbcc74385362534c50df661ce3578a62af$__92635aa533ee9261087e9286928c928c92609992609792919091169060040161298a565b602060405180830381865af415801561089b573d6000803e3d6000fd5b505050506040513d601f19601f820116820180604052508101906108bf9190612939565b925050506108cd6001606555565b9392505050565b60405163366318fd60e11b8152609f600482015260009073__$cbcc74385362534c50df661ce3578a62af$__90636cc631fa906024016105d9565b610917611951565b6040516314f685c360e01b815260996004820152602481018390526044810182905273__$cbcc74385362534c50df661ce3578a62af$__906314f685c39060640160006040518083038186803b15801561097057600080fd5b505af4158015610984573d6000803e3d6000fd5b505050505050565b610994611951565b61099e6000611a4e565b565b609d546000906001600160a01b038381169116146109db5760a1546106c7908490609f90609d906099906097906001600160a01b0316611aa0565b60a15461075c908490609d90609f906099906097906001600160a01b0316611aa0565b610a06611951565b6040516327d0477560e01b8152609760048201526024810182905273__$cbcc74385362534c50df661ce3578a62af$__906327d04775906044016107a8565b60608167ffffffffffffffff811115610a6057610a606125ed565b604051908082528060200260200182016040528015610a9357816020015b6060815260200190600190039081610a7e5790505b50905060005b82811015610b9f5760008030868685818110610ab757610ab76129d0565b9050602002810190610ac991906129e6565b604051610ad7929190612a2d565b600060405180830381855af49150503d8060008114610b12576040519150601f19603f3d011682016040523d82523d6000602084013e610b17565b606091505b509150915081610b6c57604481511015610b3057600080fd5b60048101905080806020019051810190610b4a9190612a3d565b60405162461bcd60e51b8152600401610b639190612aab565b60405180910390fd5b80848481518110610b7f57610b7f6129d0565b602002602001018190525050508080610b9790612ad4565b915050610a99565b5092915050565b60008054610100900460ff1615808015610bc75750600054600160ff909116105b80610be15750303b158015610be1575060005460ff166001145b610c445760405162461bcd60e51b815260206004820152602e60248201527f496e697469616c697a61626c653a20636f6e747261637420697320616c72656160448201526d191e481a5b9a5d1a585b1a5e995960921b6064820152608401610b63565b6000805460ff191660011790558015610c67576000805461ff0019166101001790555b610c6f611b12565b610c77611b39565b610c7f611b69565b886001600160a01b03168a6001600160a01b031603610cd35760405162461bcd60e51b815260206004820152601060248201526f4455504c49434154455f544f4b454e5360801b6044820152606401610b63565b6001600160a01b038a16610d1e5760405162461bcd60e51b8152602060048201526012602482015271544f4b454e305f5a45524f4144445245535360701b6044820152606401610b63565b6001600160a01b038916610d695760405162461bcd60e51b8152602060048201526012602482015271544f4b454e315f5a45524f4144445245535360701b6044820152606401610b63565b60008a6001600160a01b031663313ce5676040518163ffffffff1660e01b8152600401602060405180830381865afa158015610da9573d6000803e3d6000fd5b505050506040513d601f19601f82011682018060405250810190610dcd9190612aed565b905060008160ff1611610ddf57600080fd5b60405180604001604052808c6001600160a01b03168152602001826012610e069190612b0a565b610e1190600a612c07565b90528051609d80546001600160a01b0319166001600160a01b03928316179055602091820151609e556040805163313ce56760e01b81529051600093928e169263313ce56792600480820193918290030181865afa158015610e77573d6000803e3d6000fd5b505050506040513d601f19601f82011682018060405250810190610e9b9190612aed565b905060008160ff1611610ead57600080fd5b60405180604001604052808c6001600160a01b03168152602001826012610ed49190612b0a565b610edf90600a612c07565b90528051609f80546001600160a01b0319166001600160a01b039092169190911790556020015160a055620f42408810610f505760405162461bcd60e51b81526020600482015260126024820152715f612065786365656473206d6178696d756d60701b6044820152606401610b63565b610f5b606489612c16565b609955610f69606489612c16565b609a556305f5e1008710610fb65760405162461bcd60e51b81526020600482015260146024820152735f6665652065786365656473206d6178696d756d60601b6044820152606401610b63565b6402540be400861061100a5760405162461bcd60e51b815260206004820152601960248201527f5f61646d696e4665652065786365656473206d6178696d756d000000000000006044820152606401610b63565b604080518082019091528781526020018690526097879055609886905561103085611b90565b60a180546001600160a01b0319166001600160a01b0392909216918217905560405163266c45bb60e11b8152634cd88b7690611072908d908d90600401612c2d565b6020604051808303816000875af1158015611091573d6000803e3d6000fd5b505050506040513d601f19601f820116820180604052508101906110b59190612c52565b6111015760405162461bcd60e51b815260206004820152601c60248201527f636f756c64206e6f7420696e6974206c70546f6b656e20636c6f6e65000000006044820152606401610b63565b600193505050801561114d576000805461ff0019169055604051600181527f7f26b83ff96e1f2b6a682f133852f6798a09c465da95921460cefb38474024989060200160405180910390a15b5098975050505050505050565b60006111646119ab565b8161116e81611a04565b60408051608081018252609d546001600160a01b03908116828401908152609e546060840152825282518084018452609f548216815260a05460208281019190915283015260a1549251630175961160e11b8152919273__$cbcc74385362534c50df661ce3578a62af$__926302eb2c229261087e9286928c928c92609992609792919091169060040161298a565b60405163366318fd60e11b8152609d600482015260009073__$cbcc74385362534c50df661ce3578a62af$__90636cc631fa906024016105d9565b604051636eb1769f60e11b81523360048201523060248201526000906001600160a01b0388169063dd62ed3e90604401602060405180830381865afa158015611285573d6000803e3d6000fd5b505050506040513d601f19601f820116820180604052508101906112a99190612939565b9050858110156112ca576112ca876112c18389612c6f565b878787876118c5565b50505050505050565b6112db611951565b60405163b0845bc560e01b81526099600482015273__$cbcc74385362534c50df661ce3578a62af$__9063b0845bc59060240160006040518083038186803b15801561132657600080fd5b505af415801561133a573d6000803e3d6000fd5b50505050565b600061134a6119ab565b8161135481611a04565b609d546001600160a01b03908116908716036114095760405163cbab294f60e01b8152609d6004820152609f6024820152604481018690526064810185905260996084820152609760a482015273__$cbcc74385362534c50df661ce3578a62af$__9063cbab294f9060c4015b602060405180830381865af41580156113de573d6000803e3d6000fd5b505050506040513d601f19601f820116820180604052508101906114029190612939565b91506114b3565b609f546001600160a01b039081169087160361147a5760405163cbab294f60e01b8152609f6004820152609d6024820152604481018690526064810185905260996084820152609760a482015273__$cbcc74385362534c50df661ce3578a62af$__9063cbab294f9060c4016113c1565b60405162461bcd60e51b815260206004820152600e60248201526d4241445f544f4b454e5f46524f4d60901b6044820152606401610b63565b506114be6001606555565b949350505050565b60006114d06119ab565b816114da81611a04565b609d546001600160a01b03908116908616036115425760a1546040516353d5d9cb60e11b815273__$cbcc74385362534c50df661ce3578a62af$__9163a7abb396916113c1918a91609d91609f918b916099916097916001600160a01b031690600401612c82565b60a1546040516353d5d9cb60e11b815273__$cbcc74385362534c50df661ce3578a62af$__9163a7abb396916113c1918a91609f91609d918b916099916097916001600160a01b031690600401612c82565b604051633057705f60e21b81526099600482015260009073__$cbcc74385362534c50df661ce3578a62af$__9063c15dc17c906024016105d9565b6115d761239e565b6115df6119ab565b816115e981611a04565b60408051608081018252609d546001600160a01b03908116828401908152609e546060840152825282518084018452609f548216815260a05460208281019190915283015260a1549251632657942960e01b8152919273__$cbcc74385362534c50df661ce3578a62af$__9263265794299261166f928b9287928c921690600401612cbb565b6040805180830381865af415801561168b573d6000803e3d6000fd5b505050506040513d601f19601f820116820180604052508101906108bf9190612cf2565b60a154604051631013a0c960e31b8152609d6004820152609f6024820152609960448201526001600160a01b03909116606482015260009073__$cbcc74385362534c50df661ce3578a62af$__9063809d0648906084016105d9565b60408051608081018252609d546001600160a01b03908116828401908152609e546060840152825282518084018452609f548216815260a05460208281019190915283015260a154925163196d005960e31b815260009373__$cbcc74385362534c50df661ce3578a62af$__9263cb6802c8926117989286928b928b928b92609992911690600401612d72565b602060405180830381865af41580156117b5573d6000803e3d6000fd5b505050506040513d601f19601f820116820180604052508101906117d99190612939565b95945050505050565b6117ea61239e565b60408051608081018252609d546001600160a01b03908116828401908152609e546060840152825282518084018452609f548216815260a05460208281019190915283015260a154925163296104cd60e01b8152919273__$cbcc74385362534c50df661ce3578a62af$__9263296104cd9261187192889287929190911690600401612ddb565b6040805180830381865af415801561188d573d6000803e3d6000fd5b505050506040513d601f19601f820116820180604052508101906108cd9190612cf2565b6118b9611951565b6118c281611c2a565b50565b60405163d505accf60e01b8152336004820152306024820152604481018690526064810185905260ff8416608482015260a4810183905260c481018290526001600160a01b0387169063d505accf9060e401600060405180830381600087803b15801561193157600080fd5b505af1158015611945573d6000803e3d6000fd5b50505050505050505050565b6033546001600160a01b0316331461099e5760405162461bcd60e51b815260206004820181905260248201527f4f776e61626c653a2063616c6c6572206973206e6f7420746865206f776e65726044820152606401610b63565b6002606554036119fd5760405162461bcd60e51b815260206004820152601f60248201527f5265656e7472616e637947756172643a207265656e7472616e742063616c6c006044820152606401610b63565b6002606555565b804211156118c25760405162461bcd60e51b815260206004820152601060248201526f111958591b1a5b99481b9bdd081b595d60821b6044820152606401610b63565b6001606555565b603380546001600160a01b038381166001600160a01b0319831681179093556040519116919082907f8be0079c531659141344cd1fd0a4f28419497f9722a3daafe3b4186f6b6457e090600090a35050565b60008061114d888888866001600160a01b03166318160ddd6040518163ffffffff1660e01b8152600401602060405180830381865afa158015611ae7573d6000803e3d6000fd5b505050506040513d601f19601f82011682018060405250810190611b0b9190612939565b8989611ca0565b600054610100900460ff1661099e5760405162461bcd60e51b8152600401610b6390612e08565b600054610100900460ff16611b605760405162461bcd60e51b8152600401610b6390612e08565b61099e33611a4e565b600054610100900460ff16611a475760405162461bcd60e51b8152600401610b6390612e08565b6000763d602d80600a3d3981f3363d3d373d3d3d363d730000008260601b60e81c176000526e5af43d82803e903d91602b57fd5bf38260781b17602052603760096000f090506001600160a01b038116611c255760405162461bcd60e51b8152602060048201526016602482015275115490cc4c4d8dce8818dc99585d194819985a5b195960521b6044820152606401610b63565b919050565b611c32611951565b6001600160a01b038116611c975760405162461bcd60e51b815260206004820152602660248201527f4f776e61626c653a206e6577206f776e657220697320746865207a65726f206160448201526564647265737360d01b6064820152608401610b63565b6118c281611a4e565b6000806000806000611cbf8b8b8b8b611cb88c611d02565b8b54611da9565b60018d015492955090935091506000908490611cdb8585612c6f565b611ce59190612e53565b611cef9190612c6f565b939c939b50929950505050505050505050565b6003810154600182015460009190428211156108cd576002840154845480831115611d6d57611d318285612c6f565b611d3b8342612c6f565b611d458386612c6f565b611d4f9190612c16565b611d599190612e53565b611d639082612e75565b9695505050505050565b611d778285612c6f565b611d818342612c6f565b611d8b8584612c6f565b611d959190612c16565b611d9f9190612e53565b611d639082612c6f565b8454600090819081908190611dc6906001600160a01b0316611ff6565b90506000611dd8828b60010154612061565b8954909150600090611df2906001600160a01b0316611ff6565b90506000611e04828c60010154612061565b6040805160a0810182526000808252602082018190529181018290526060810191909152608081018b9052909150611e3d82858c61206d565b8160000181815250508a81600001518f611e579190612c16565b611e619190612e53565b8151611e6d9190612c6f565b6020820152838e1115611ec25760405162461bcd60e51b815260206004820152601860248201527f414d4f554e545f455843454544535f415641494c41424c4500000000000000006044820152606401610b63565b611ed581608001518383602001516121f4565b6040820152611ee389612355565b606082018190526040820151825160208401516000936402540be4009390929091611f0e908a612c16565b611f189190612e53565b611f229190612c6f565b611f2c9190612c16565b611f369190612e53565b611f409086612c6f565b905060006402540be40083606001518460000151856020015187611f649190612c16565b611f6e9190612e53565b611f789087612c6f565b611f829190612c16565b611f8c9190612e53565b611f969085612c6f565b90506000611fad84608001518386602001516121f4565b611fb79084612c6f565b90508f60010154600182611fcb9190612c6f565b611fd59190612e53565b604090940151939a5092985094965050505050505096509650969350505050565b6040516370a0823160e01b81523060048201526000906001600160a01b038316906370a0823190602401602060405180830381865afa15801561203d573d6000803e3d6000fd5b505050506040513d601f19601f8201168201806040525081019061075f9190612939565b600061075c8284612c16565b60008061207a8486612e75565b90508060000361208e5760009150506108cd565b6000818161209d600287612c16565b905060005b6101008110156121b557826120b860028b612c16565b6120c28583612c16565b6120cc9190612e53565b90506120d960028a612c16565b6120e38583612c16565b6120ed9190612e53565b90508394506000846002836121029190612c16565b606461210e8a88612c16565b6121189190612e53565b6121229190612e75565b61212c9190612c16565b905060008261213d60026001612e75565b6121479190612c16565b6064876121548289612c6f565b61215e9190612c16565b6121689190612e53565b6121729190612e75565b905061217e8183612e53565b955061218a8688612362565b1561219f5785985050505050505050506108cd565b50505080806121ad90612ad4565b9150506120a2565b5060405162461bcd60e51b81526020600482015260136024820152724420646f6573206e6f7420636f6e766572676560681b6044820152606401610b63565b600080612202600285612c16565b61220c8480612c16565b6122169190612e53565b9050836000612226600288612c16565b9050612233600282612c16565b606461223f8786612c16565b6122499190612c16565b6122539190612e53565b9250600081612263606488612c16565b61226d9190612e53565b6122779084612e75565b9050600086815b61010081101561230c57819250600087838461229a9190612c16565b6122a49190612e75565b905060008a866122b5866002612c16565b6122bf9190612e75565b6122c99190612c6f565b90506122d58183612e53565b93506122e18486612362565b156122f7578399505050505050505050506108cd565b5050808061230490612ad4565b91505061227e565b5060405162461bcd60e51b815260206004820152601e60248201527f417070726f78696d6174696f6e20646964206e6f7420636f6e766572676500006044820152606401610b63565b600061075f600283612e53565b600060016123708484612379565b11159392505050565b6000818311156123945761238d8284612c6f565b905061075f565b61075c8383612c6f565b60405180604001604052806002906020820280368337509192915050565b6001600160a01b03811681146118c257600080fd5b600080604083850312156123e457600080fd5b82356123ef816123bc565b946020939093013593505050565b60006020828403121561240f57600080fd5b5035919050565b806040810183101561075f57600080fd5b60008060006080848603121561243c57600080fd5b6124468585612416565b95604085013595506060909401359392505050565b6000806040838503121561246e57600080fd5b50508035926020909101359150565b6000806040838503121561249057600080fd5b8235915060208301356124a2816123bc565b809150509250929050565b60008083601f8401126124bf57600080fd5b50813567ffffffffffffffff8111156124d757600080fd5b6020830191508360208260051b85010111156124f257600080fd5b9250929050565b6000806020838503121561250c57600080fd5b823567ffffffffffffffff81111561252357600080fd5b61252f858286016124ad565b90969095509350505050565b60005b8381101561255657818101518382015260200161253e565b50506000910152565b6000815180845261257781602086016020860161253b565b601f01601f19169290920160200192915050565b6000602080830181845280855180835260408601915060408160051b870101925083870160005b828110156125e057603f198886030184526125ce85835161255f565b945092850192908501906001016125b2565b5092979650505050505050565b634e487b7160e01b600052604160045260246000fd5b604051601f8201601f1916810167ffffffffffffffff8111828210171561262c5761262c6125ed565b604052919050565b600067ffffffffffffffff82111561264e5761264e6125ed565b50601f01601f191660200190565b600082601f83011261266d57600080fd5b813561268061267b82612634565b612603565b81815284602083860101111561269557600080fd5b816020850160208301376000918101602001919091529392505050565b600080600080600080600080610100898b0312156126cf57600080fd5b88356126da816123bc565b975060208901356126ea816123bc565b9650604089013567ffffffffffffffff8082111561270757600080fd5b6127138c838d0161265c565b975060608b013591508082111561272957600080fd5b506127368b828c0161265c565b9550506080890135935060a0890135925060c0890135915060e089013561275c816123bc565b809150509295985092959890939650565b60ff811681146118c257600080fd5b60008060008060008060c0878903121561279557600080fd5b86356127a0816123bc565b9550602087013594506040870135935060608701356127be8161276d565b9598949750929560808101359460a0909101359350915050565b600080600080608085870312156127ee57600080fd5b84356127f9816123bc565b966020860135965060408601359560600135945092505050565b6000806000806080858703121561282957600080fd5b84359350602085013561283b816123bc565b93969395505050506040820135916060013590565b60008060006080848603121561286557600080fd5b833592506128768560208601612416565b9150606084013590509250925092565b60408101818360005b60028110156128ae57815183526020928301929091019060010161288f565b50505092915050565b80151581146118c257600080fd5b6000806000604084860312156128da57600080fd5b833567ffffffffffffffff8111156128f157600080fd5b6128fd868287016124ad565b9094509250506020840135612911816128b7565b809150509250925092565b60006020828403121561292e57600080fd5b81356108cd816123bc565b60006020828403121561294b57600080fd5b5051919050565b8060005b600281101561133a57815180516001600160a01b031685526020908101518186015260409094019390910190600101612956565b61014081016129998289612952565b604087608084013760c082019590955260e08101939093526101008301919091526001600160a01b03166101209091015292915050565b634e487b7160e01b600052603260045260246000fd5b6000808335601e198436030181126129fd57600080fd5b83018035915067ffffffffffffffff821115612a1857600080fd5b6020019150368190038213156124f257600080fd5b8183823760009101908152919050565b600060208284031215612a4f57600080fd5b815167ffffffffffffffff811115612a6657600080fd5b8201601f81018413612a7757600080fd5b8051612a8561267b82612634565b818152856020838501011115612a9a57600080fd5b6117d982602083016020860161253b565b60208152600061075c602083018461255f565b634e487b7160e01b600052601160045260246000fd5b600060018201612ae657612ae6612abe565b5060010190565b600060208284031215612aff57600080fd5b81516108cd8161276d565b60ff828116828216039081111561075f5761075f612abe565b600181815b80851115612b5e578160001904821115612b4457612b44612abe565b80851615612b5157918102915b93841c9390800290612b28565b509250929050565b600082612b755750600161075f565b81612b825750600061075f565b8160018114612b985760028114612ba257612bbe565b600191505061075f565b60ff841115612bb357612bb3612abe565b50506001821b61075f565b5060208310610133831016604e8410600b8410161715612be1575081810a61075f565b612beb8383612b23565b8060001904821115612bff57612bff612abe565b029392505050565b600061075c60ff841683612b66565b808202811582820484141761075f5761075f612abe565b604081526000612c40604083018561255f565b82810360208401526117d9818561255f565b600060208284031215612c6457600080fd5b81516108cd816128b7565b8181038181111561075f5761075f612abe565b968752602087019590955260408601939093526060850191909152608084015260a08301526001600160a01b031660c082015260e00190565b8481526101008101612cd06020830186612952565b60408460a08401376001600160a01b039290921660e091909101529392505050565b600060408284031215612d0457600080fd5b82601f830112612d1357600080fd5b6040516040810181811067ffffffffffffffff82111715612d3657612d366125ed565b8060405250806040840185811115612d4d57600080fd5b845b81811015612d67578051835260209283019201612d4f565b509195945050505050565b6000610100612d81838a612952565b6080830181905282018690526101206001600160fb1b03871115612da457600080fd5b8660051b80898386013795151560a084015260c0830194909452506001600160a01b039190911660e0820152909101019392505050565b83815260c08101612def6020830185612952565b6001600160a01b039290921660a0919091015292915050565b6020808252602b908201527f496e697469616c697a61626c653a20636f6e7472616374206973206e6f74206960408201526a6e697469616c697a696e6760a81b606082015260800190565b600082612e7057634e487b7160e01b600052601260045260246000fd5b500490565b8082018082111561075f5761075f612abe56fea26469706673582212208ad30bcfbd1031906bdc14ade4b65d25086b44e5878873a704eb82b05bf83aaf64736f6c63430008130033",
    "linkReferences": {
      "src/tenderswap/SwapUtils.sol": {
        "SwapUtils": [
          {
            "start": 1499,
            "length": 20
          },
          {
            "start": 1673,
            "length": 20
          },
          {
            "start": 1822,
            "length": 20
          },
          {
            "start": 1962,
            "length": 20
          },
          {
            "start": 2151,
            "length": 20
          },
          {
            "start": 2317,
            "length": 20
          },
          {
            "start": 2395,
            "length": 20
          },
          {
            "start": 2627,
            "length": 20
          },
          {
            "start": 4582,
            "length": 20
          },
          {
            "start": 4662,
            "length": 20
          },
          {
            "start": 4881,
            "length": 20
          },
          {
            "start": 5059,
            "length": 20
          },
          {
            "start": 5240,
            "length": 20
          },
          {
            "start": 5410,
            "length": 20
          },
          {
            "start": 5492,
            "length": 20
          },
          {
            "start": 5581,
            "length": 20
          },
          {
            "start": 5729,
            "length": 20
          },
          {
            "start": 5897,
            "length": 20
          },
          {
            "start": 6020,
            "length": 20
          },
          {
            "start": 6242,
            "length": 20
          }
        ]
      }
    }
  },
  "methodIdentifiers": {
    "addLiquidity(uint256[2],uint256,uint256)": "46eda749",
    "amplificationParams()": "256967ac",
    "calculateRemoveLiquidity(uint256)": "f2fad2b6",
    "calculateRemoveLiquidityOneToken(uint256,address)": "805d2766",
    "calculateSwap(address,uint256)": "1de8d8cb",
    "calculateTokenAmount(uint256[],bool)": "e6ab2806",
    "feeParams()": "9242164f",
    "getA()": "d46300fd",
    "getAPrecise()": "0ba81959",
    "getToken0()": "ba94a315",
    "getToken0Balance()": "c2d9ecfa",
    "getToken1()": "6f26a710",
    "getToken1Balance()": "5153786b",
    "getVirtualPrice()": "e25aa5fa",
    "initialize(address,address,string,string,uint256,uint256,uint256,address)": "afcd5f4b",
    "lpToken()": "5fcbd285",
    "multicall(bytes[])": "ac9650d8",
    "owner()": "8da5cb5b",
    "rampA(uint256,uint256)": "593d132c",
    "removeLiquidity(uint256,uint256[2],uint256)": "d6f0df62",
    "removeLiquidityImbalance(uint256[2],uint256,uint256)": "bfc65c9b",
    "removeLiquidityOneToken(uint256,address,uint256,uint256)": "ce1fdb8b",
    "renounceOwnership()": "715018a6",
    "selfPermit(address,uint256,uint256,uint8,bytes32,bytes32)": "f3995c67",
    "selfPermitIfNecessary(address,uint256,uint256,uint8,bytes32,bytes32)": "c2e3140a",
    "setAdminFee(uint256)": "8beb60b6",
    "setSwapFee(uint256)": "34e19907",
    "stopRampA()": "c4db7fa0",
    "swap(address,uint256,uint256,uint256)": "c9ec9248",
    "transferOwnership(address)": "f2fde38b"
  },
  "id": 40
}