{
  "abi": [
    {
      "inputs": [
        {
          "internalType": "address",
          "name": "minter_",
          "type": "address"
        },
        {
          "internalType": "address",
          "name": "burner_",
          "type": "address"
        },
        {
          "internalType": "address",
          "name": "liquidityPool_",
          "type": "address"
        },
        {
          "internalType": "address",
          "name": "stflip_",
          "type": "address"
        },
        {
          "internalType": "address",
          "name": "flip_",
          "type": "address"
        }
      ],
      "stateMutability": "nonpayable",
      "type": "constructor"
    },
    {
      "anonymous": false,
      "inputs": [
        {
          "indexed": false,
          "internalType": "uint256",
          "name": "total",
          "type": "uint256"
        },
        {
          "indexed": false,
          "internalType": "uint256",
          "name": "swapped",
          "type": "uint256"
        },
        {
          "indexed": false,
          "internalType": "uint256",
          "name": "minted",
          "type": "uint256"
        }
      ],
      "name": "Aggregation",
      "type": "event"
    },
    {
      "anonymous": false,
      "inputs": [
        {
          "indexed": false,
          "internalType": "uint256",
          "name": "amountInstantBurn",
          "type": "uint256"
        },
        {
          "indexed": false,
          "internalType": "uint256",
          "name": "amountBurn",
          "type": "uint256"
        },
        {
          "indexed": false,
          "internalType": "uint256",
          "name": "received",
          "type": "uint256"
        }
      ],
      "name": "BurnAggregation",
      "type": "event"
    },
    {
      "inputs": [],
      "name": "burner",
      "outputs": [
        {
          "internalType": "contract Burner",
          "name": "",
          "type": "address"
        }
      ],
      "stateMutability": "view",
      "type": "function"
    },
    {
      "inputs": [
        {
          "internalType": "uint256",
          "name": "targetPrice",
          "type": "uint256"
        },
        {
          "internalType": "uint256",
          "name": "targetError",
          "type": "uint256"
        },
        {
          "internalType": "uint256",
          "name": "attempts",
          "type": "uint256"
        }
      ],
      "name": "calculatePurchasable",
      "outputs": [
        {
          "internalType": "uint256",
          "name": "",
          "type": "uint256"
        }
      ],
      "stateMutability": "view",
      "type": "function"
    },
    {
      "inputs": [],
      "name": "flip",
      "outputs": [
        {
          "internalType": "contract IERC20",
          "name": "",
          "type": "address"
        }
      ],
      "stateMutability": "view",
      "type": "function"
    },
    {
      "inputs": [
        {
          "internalType": "uint256",
          "name": "amount",
          "type": "uint256"
        }
      ],
      "name": "marginalCost",
      "outputs": [
        {
          "internalType": "uint256",
          "name": "",
          "type": "uint256"
        }
      ],
      "stateMutability": "view",
      "type": "function"
    },
    {
      "inputs": [],
      "name": "minter",
      "outputs": [
        {
          "internalType": "contract Minter",
          "name": "",
          "type": "address"
        }
      ],
      "stateMutability": "view",
      "type": "function"
    },
    {
      "inputs": [
        {
          "internalType": "uint256",
          "name": "amountTotal",
          "type": "uint256"
        },
        {
          "internalType": "uint256",
          "name": "amountSwap",
          "type": "uint256"
        },
        {
          "internalType": "uint256",
          "name": "minimumAmountSwapOut",
          "type": "uint256"
        },
        {
          "internalType": "uint256",
          "name": "_deadline",
          "type": "uint256"
        }
      ],
      "name": "stakeAggregate",
      "outputs": [
        {
          "internalType": "uint256",
          "name": "",
          "type": "uint256"
        }
      ],
      "stateMutability": "nonpayable",
      "type": "function"
    },
    {
      "inputs": [],
      "name": "stflip",
      "outputs": [
        {
          "internalType": "contract IERC20",
          "name": "",
          "type": "address"
        }
      ],
      "stateMutability": "view",
      "type": "function"
    },
    {
      "inputs": [],
      "name": "tenderSwap",
      "outputs": [
        {
          "internalType": "contract TenderSwap",
          "name": "",
          "type": "address"
        }
      ],
      "stateMutability": "view",
      "type": "function"
    },
    {
      "inputs": [
        {
          "internalType": "uint256",
          "name": "amountInstantBurn",
          "type": "uint256"
        },
        {
          "internalType": "uint256",
          "name": "amountBurn",
          "type": "uint256"
        },
        {
          "internalType": "uint256",
          "name": "amountSwap",
          "type": "uint256"
        },
        {
          "internalType": "uint256",
          "name": "minimumAmountSwapOut",
          "type": "uint256"
        },
        {
          "internalType": "uint256",
          "name": "deadline",
          "type": "uint256"
        }
      ],
      "name": "unstakeAggregate",
      "outputs": [
        {
          "internalType": "uint256",
          "name": "",
          "type": "uint256"
        }
      ],
      "stateMutability": "nonpayable",
      "type": "function"
    }
  ],
  "bytecode": {
    "object": "0x60806040523480156200001157600080fd5b5060405162001bdc38038062001bdc8339810160408190526200003491620002e1565b600280546001600160a01b038781166001600160a01b03199283161790925560038054878416908316179055600480548684169083168117825560018054868616908516811790915560008054958816959094169490941790925560405163095ea7b360e01b815290810191909152600019602482015263095ea7b390604401602060405180830381600087803b158015620000cf57600080fd5b505af1158015620000e4573d6000803e3d6000fd5b505050506040513d601f19601f820116820180604052508101906200010a919062000351565b5060015460025460405163095ea7b360e01b81526001600160a01b039182166004820152600019602482015291169063095ea7b390604401602060405180830381600087803b1580156200015d57600080fd5b505af115801562000172573d6000803e3d6000fd5b505050506040513d601f19601f8201168201806040525081019062000198919062000351565b5060005460035460405163095ea7b360e01b81526001600160a01b039182166004820152600019602482015291169063095ea7b390604401602060405180830381600087803b158015620001eb57600080fd5b505af115801562000200573d6000803e3d6000fd5b505050506040513d601f19601f8201168201806040525081019062000226919062000351565b506000546004805460405163095ea7b360e01b81526001600160a01b039182169281019290925260001960248301529091169063095ea7b390604401602060405180830381600087803b1580156200027d57600080fd5b505af115801562000292573d6000803e3d6000fd5b505050506040513d601f19601f82011682018060405250810190620002b8919062000351565b5050505050506200037c565b80516001600160a01b0381168114620002dc57600080fd5b919050565b600080600080600060a08688031215620002fa57600080fd5b6200030586620002c4565b94506200031560208701620002c4565b93506200032560408701620002c4565b92506200033560608701620002c4565b91506200034560808701620002c4565b90509295509295909350565b6000602082840312156200036457600080fd5b815180151581146200037557600080fd5b9392505050565b611850806200038c6000396000f3fe608060405234801561001057600080fd5b50600436106100935760003560e01c8063a26a546b11610066578063a26a546b1461010f578063ad9f98ab14610122578063b27c6de014610135578063cde4efa914610148578063f025b2091461015b57600080fd5b8063075461721461009857806327810b6e146100c85780634e50b557146100db5780636660d15c146100fc575b600080fd5b6002546100ab906001600160a01b031681565b6040516001600160a01b0390911681526020015b60405180910390f35b6003546100ab906001600160a01b031681565b6100ee6100e93660046114b2565b61016e565b6040519081526020016100bf565b6100ee61010a366004611510565b61017f565b6004546100ab906001600160a01b031681565b6100ee6101303660046114e4565b6106f8565b6100ee610143366004611542565b610a28565b6001546100ab906001600160a01b031681565b6000546100ab906001600160a01b031681565b600061017982611069565b92915050565b60006101c86040518060400160405280601981526020017f7472616e7366657272696e6720746f20636f6e747261637420000000000000008152506101c3876111d7565b611300565b6001546040516323b872dd60e01b8152336004820152306024820152604481018790526001600160a01b03909116906323b872dd90606401602060405180830381600087803b15801561021a57600080fd5b505af115801561022e573d6000803e3d6000fd5b505050506040513d601f19601f820116820180604052508101906102529190611490565b506000806102608688611731565b905085156103625761029660405180604001604052806009815260200168039bbb0b83834b733960bd1b8152506101c3886111d7565b6004805460015460405163193d924960e31b81526001600160a01b0391821693810193909352602483018990526044830188905260648301879052169063c9ec924890608401602060405180830381600087803b1580156102f657600080fd5b505af115801561030a573d6000803e3d6000fd5b505050506040513d601f19601f8201168201806040525081019061032e91906114cb565b915061035d604051806040016040528060088152602001671c9958d95a5d995960c21b8152506101c3846111d7565b610367565b600091505b80156104535761039a60405180604001604052806008815260200167036b4b73a34b733960c51b8152506101c3836111d7565b6002546040516340c10f1960e01b8152306004820152602481018390526001600160a01b03909116906340c10f1990604401602060405180830381600087803b1580156103e657600080fd5b505af11580156103fa573d6000803e3d6000fd5b505050506040513d601f19601f8201168201806040525081019061041e9190611490565b50610453604051806040016040528060138152602001721cdd58d8d95cdcd99d5b1b1e481b5a5b9d1959606a1b815250611349565b60408051808201909152601a81527f7472616e7366657272696e67206261636b20746f20757365722000000000000060208201526104a9906101c3600161049a86866116b3565b6104a49190611731565b6111d7565b6104d86040518060400160405280600a815260200169135a5b9d185b5bdd5b9d60b21b8152506101c3836111d7565b61050560405180604001604052806008815260200167149958d95a5d995960c21b8152506101c3846111d7565b604080518082018252600e81526d61637475616c2062616c616e636560901b602082015260005491516370a0823160e01b81523060048201526105ab926001600160a01b0316906370a08231906024015b60206040518083038186803b15801561056e57600080fd5b505afa158015610582573d6000803e3d6000fd5b505050506040513d601f19601f820116820180604052508101906105a691906114cb565b61138f565b6000546001600160a01b031663a9059cbb3360016105c986866116b3565b6105d39190611731565b6040516001600160e01b031960e085901b1681526001600160a01b0390921660048301526024820152604401602060405180830381600087803b15801561061957600080fd5b505af115801561062d573d6000803e3d6000fd5b505050506040513d601f19601f820116820180604052508101906106519190611490565b507f1b73f5bc374f0e469157f975ae4657fac9870ecc4509804a4b86694558331e7f61067d83836116b3565b6040805191825260208201859052810183905260600160405180910390a16106bc6040518060600160405280603181526020016117ea60319139611349565b6106e36106cc6104a484846116b3565b6106d5846111d7565b6106de846111d7565b6113d4565b6106ed82826116b3565b979650505050505050565b60008054600480546040516370a0823160e01b81526001600160a01b0391821692810192909252839283928392909116906370a082319060240160206040518083038186803b15801561074a57600080fd5b505afa15801561075e573d6000803e3d6000fd5b505050506040513d601f19601f8201168201806040525081019061078291906114cb565b905067016345785d8a00008660006107a1670de0b6b3a7640000611069565b905089811015610833576108246107b7826111d7565b6040518060400160405280601e81526020017f206c657373207468616e20746865207461726765745072696365206f662000008152506107f68d6111d7565b6040518060400160405280601081526020016f0103932ba3ab93734b733903d32b937960851b815250611420565b60009650505050505050610a21565b61086f6040518060600160405280602281526020016117c8602291396108588c6111d7565b6108618c6111d7565b61086a8c6111d7565b611420565b6108ad6040518060400160405280601b81526020017f616d742c2070726963652c206572726f722c20617474656d7074730000000000815250611349565b600088116108f45760405162461bcd60e51b815260206004820152601060248201526f1b9bc8185d1d195b5c1d1cc81b19599d60821b604482015260640160405180910390fd5b600261090087866116b3565b61090a91906116f0565b945061091585611069565b9250898311156109315761092a8560016116b3565b955061093f565b61093c600186611731565b93505b61094a600189611731565b97508983101561098a578961096784670de0b6b3a7640000611712565b61097191906116f0565b61098390670de0b6b3a7640000611731565b91506109b5565b670de0b6b3a76400008a61099e8583611712565b6109a891906116f0565b6109b29190611731565b91505b6109d36109c1866111d7565b6109ca856111d7565b610861856111d7565b88821015610a1c57610a0e6040518060400160405280600e81526020016d03932ba3ab93734b733903b30b6160951b8152506101c3876111d7565b849650505050505050610a21565b6108ad565b9392505050565b60008084610a3687896116b3565b610a4091906116b3565b90506000610a666040518060600160405280602281526020016117a6602291398361138f565b6000546040516323b872dd60e01b8152336004820152306024820152604481018490526001600160a01b03909116906323b872dd90606401602060405180830381600087803b158015610ab857600080fd5b505af1158015610acc573d6000803e3d6000fd5b505050506040513d601f19601f82011682018060405250810190610af09190611490565b5060408051808201825260198152780232624a8103130b630b731b29037b31031b7b73a3930b1ba1603d1b602082015260015491516370a0823160e01b8152306004820152610b51926001600160a01b0316906370a0823190602401610556565b604080518082018252601b81527f7374464c49502062616c616e6365206f6620636f6e7472616374200000000000602082015260005491516370a0823160e01b8152306004820152610bb5926001600160a01b0316906370a0823190602401610556565b8715610ce657610bfa6040518060400160405280601c81526020017f706572666f726d696e6720696e7374616e74206275726e20666f7220000000008152508961138f565b600354604051632770a7eb60e21b8152336004820152602481018a90526000916001600160a01b031690639dc29fac90604401602060405180830381600087803b158015610c4757600080fd5b505af1158015610c5b573d6000803e3d6000fd5b505050506040513d601f19601f82011682018060405250810190610c7f91906114cb565b6003546040516301e9a69560e41b8152336004820152602481018390529192506001600160a01b031690631e9a695090604401600060405180830381600087803b158015610ccc57600080fd5b505af1158015610ce0573d6000803e3d6000fd5b50505050505b8615610db357610d2b6040518060400160405280601b81526020017f706572666f726d696e67206e6f726d616c206275726e20666f722000000000008152508861138f565b600354604051632770a7eb60e21b8152336004820152602481018990526000916001600160a01b031690639dc29fac90604401602060405180830381600087803b158015610d7857600080fd5b505af1158015610d8c573d6000803e3d6000fd5b505050506040513d601f19601f82011682018060405250810190610db091906114cb565b50505b851561101257610def6040518060400160405280601481526020017303832b93337b936b4b7339039bbb0b8103337b9160651b8152508761138f565b6004805460005460405163193d924960e31b81526001600160a01b0391821693810193909352602483018990526044830188905260648301879052169063c9ec924890608401602060405180830381600087803b158015610e4f57600080fd5b505af1158015610e63573d6000803e3d6000fd5b505050506040513d601f19601f82011682018060405250810190610e8791906114cb565b9050610ec86040518060400160405280601f81526020017f7472616e7366657272696e6720464c4950206261636b20746f207573657220008152508261138f565b60408051808201825260198152780232624a8103130b630b731b29037b31031b7b73a3930b1ba1603d1b602082015260015491516370a0823160e01b8152306004820152610f28926001600160a01b0316906370a0823190602401610556565b604080518082018252601b81527f7374464c49502062616c616e6365206f6620636f6e7472616374200000000000602082015260005491516370a0823160e01b8152306004820152610f8c926001600160a01b0316906370a0823190602401610556565b60015460405163a9059cbb60e01b8152336004820152602481018390526001600160a01b039091169063a9059cbb90604401602060405180830381600087803b158015610fd857600080fd5b505af1158015610fec573d6000803e3d6000fd5b505050506040513d601f19601f820116820180604052508101906110109190611490565b505b60408051898152602081018990529081018290527fbc584791848fa3b86f806f0676669fa38442f27a97e9f148352eacf090e42c859060600160405180910390a161105d81896116b3565b98975050505050505050565b6000818161107f82670de0b6b3a76400006116b3565b60048054600154604051631de8d8cb60e01b81526001600160a01b0391821693810193909352602483018690529293506000921690631de8d8cb9060440160206040518083038186803b1580156110d557600080fd5b505afa1580156110e9573d6000803e3d6000fd5b505050506040513d601f19601f8201168201806040525081019061110d91906114cb565b60048054600154604051631de8d8cb60e01b81526001600160a01b0391821693810193909352602483018690529293506000921690631de8d8cb9060440160206040518083038186803b15801561116357600080fd5b505afa158015611177573d6000803e3d6000fd5b505050506040513d601f19601f8201168201806040525081019061119b91906114cb565b90506111a78484611731565b6111b18383611731565b6111c390670de0b6b3a7640000611712565b6111cd91906116f0565b9695505050505050565b6060816111fb5750506040805180820190915260018152600360fc1b602082015290565b8160005b8115611225578061120f81611748565b915061121e9050600a836116f0565b91506111ff565b60008167ffffffffffffffff8111156112405761124061178f565b6040519080825280601f01601f19166020018201604052801561126a576020820181803683370190505b509050815b85156112f757611280600182611731565b9050600061128f600a886116f0565b61129a90600a611712565b6112a49088611731565b6112af9060306116cb565b905060008160f81b9050808484815181106112cc576112cc611779565b60200101906001600160f81b031916908160001a9053506112ee600a896116f0565b9750505061126f565b50949350505050565b61134582826040516024016113169291906115dd565b60408051601f198184030181529190526020810180516001600160e01b0316634b5c427760e01b17905261146f565b5050565b61138c8160405160240161135d91906115ca565b60408051601f198184030181529190526020810180516001600160e01b031663104c13eb60e21b17905261146f565b50565b61134582826040516024016113a5929190611691565b60408051601f198184030181529190526020810180516001600160e01b03166309710a9d60e41b17905261146f565b61141b8383836040516024016113ec9392919061160b565b60408051601f198184030181529190526020810180516001600160e01b0316632ced7cef60e01b17905261146f565b505050565b6114698484848460405160240161143a9493929190611644565b60408051601f198184030181529190526020810180516001600160e01b0316636f34790560e11b17905261146f565b50505050565b80516a636f6e736f6c652e6c6f67602083016000808483855afa5050505050565b6000602082840312156114a257600080fd5b81518015158114610a2157600080fd5b6000602082840312156114c457600080fd5b5035919050565b6000602082840312156114dd57600080fd5b5051919050565b6000806000606084860312156114f957600080fd5b505081359360208301359350604090920135919050565b6000806000806080858703121561152657600080fd5b5050823594602084013594506040840135936060013592509050565b600080600080600060a0868803121561155a57600080fd5b505083359560208501359550604085013594606081013594506080013592509050565b6000815180845260005b818110156115a357602081850181015186830182015201611587565b818111156115b5576000602083870101525b50601f01601f19169290920160200192915050565b602081526000610a21602083018461157d565b6040815260006115f0604083018561157d565b8281036020840152611602818561157d565b95945050505050565b60608152600061161e606083018661157d565b8281036020840152611630818661157d565b905082810360408401526111cd818561157d565b608081526000611657608083018761157d565b8281036020840152611669818761157d565b9050828103604084015261167d818661157d565b905082810360608401526106ed818561157d565b6040815260006116a4604083018561157d565b90508260208301529392505050565b600082198211156116c6576116c6611763565b500190565b600060ff821660ff84168060ff038211156116e8576116e8611763565b019392505050565b60008261170d57634e487b7160e01b600052601260045260246000fd5b500490565b600081600019048311821515161561172c5761172c611763565b500290565b60008282101561174357611743611763565b500390565b600060001982141561175c5761175c611763565b5060010190565b634e487b7160e01b600052601160045260246000fd5b634e487b7160e01b600052603260045260246000fd5b634e487b7160e01b600052604160045260246000fdfe7472616e7366657272696e672066726f6d207573657220746f20636f6e747261637474617267657450726963652c207461726765744572726f722c20617474656d7074736167677265676174696f6e20636f6d706c6574652e20746f74616c2c2072656365697665642c206d696e74416d6f756e74a26469706673582212204202c05ed427389d11de83f4cf269d9ce4a0410e9b2f6fb5d529e5140d2b2f9464736f6c63430008070033",
    "linkReferences": {}
  },
  "methodIdentifiers": {
    "burner()": "27810b6e",
    "calculatePurchasable(uint256,uint256,uint256)": "ad9f98ab",
    "flip()": "cde4efa9",
    "marginalCost(uint256)": "4e50b557",
    "minter()": "07546172",
    "stakeAggregate(uint256,uint256,uint256,uint256)": "6660d15c",
    "stflip()": "f025b209",
    "tenderSwap()": "a26a546b",
    "unstakeAggregate(uint256,uint256,uint256,uint256,uint256)": "b27c6de0"
  },
  "id": 55
}