{
  "abi": [
    {
      "inputs": [
        {
          "internalType": "address",
          "name": "minter_",
          "type": "address"
        },
        {
          "internalType": "address",
          "name": "burner_",
          "type": "address"
        },
        {
          "internalType": "address",
          "name": "liquidityPool_",
          "type": "address"
        },
        {
          "internalType": "address",
          "name": "stflip_",
          "type": "address"
        },
        {
          "internalType": "address",
          "name": "flip_",
          "type": "address"
        }
      ],
      "stateMutability": "nonpayable",
      "type": "constructor"
    },
    {
      "anonymous": false,
      "inputs": [
        {
          "indexed": false,
          "internalType": "uint256",
          "name": "total",
          "type": "uint256"
        },
        {
          "indexed": false,
          "internalType": "uint256",
          "name": "swapped",
          "type": "uint256"
        },
        {
          "indexed": false,
          "internalType": "uint256",
          "name": "minted",
          "type": "uint256"
        }
      ],
      "name": "Aggregation",
      "type": "event"
    },
    {
      "anonymous": false,
      "inputs": [
        {
          "indexed": false,
          "internalType": "uint256",
          "name": "amountInstantBurn",
          "type": "uint256"
        },
        {
          "indexed": false,
          "internalType": "uint256",
          "name": "amountBurn",
          "type": "uint256"
        },
        {
          "indexed": false,
          "internalType": "uint256",
          "name": "received",
          "type": "uint256"
        }
      ],
      "name": "BurnAggregation",
      "type": "event"
    },
    {
      "inputs": [],
      "name": "burner",
      "outputs": [
        {
          "internalType": "contract Burner",
          "name": "",
          "type": "address"
        }
      ],
      "stateMutability": "view",
      "type": "function"
    },
    {
      "inputs": [
        {
          "internalType": "uint256",
          "name": "targetPrice",
          "type": "uint256"
        },
        {
          "internalType": "uint256",
          "name": "targetError",
          "type": "uint256"
        },
        {
          "internalType": "uint256",
          "name": "attempts",
          "type": "uint256"
        }
      ],
      "name": "calculatePurchasable",
      "outputs": [
        {
          "internalType": "uint256",
          "name": "",
          "type": "uint256"
        }
      ],
      "stateMutability": "view",
      "type": "function"
    },
    {
      "inputs": [],
      "name": "flip",
      "outputs": [
        {
          "internalType": "contract IERC20",
          "name": "",
          "type": "address"
        }
      ],
      "stateMutability": "view",
      "type": "function"
    },
    {
      "inputs": [
        {
          "internalType": "uint256",
          "name": "amount",
          "type": "uint256"
        }
      ],
      "name": "marginalCost",
      "outputs": [
        {
          "internalType": "uint256",
          "name": "",
          "type": "uint256"
        }
      ],
      "stateMutability": "view",
      "type": "function"
    },
    {
      "inputs": [],
      "name": "minter",
      "outputs": [
        {
          "internalType": "contract Minter",
          "name": "",
          "type": "address"
        }
      ],
      "stateMutability": "view",
      "type": "function"
    },
    {
      "inputs": [
        {
          "internalType": "uint256",
          "name": "amountTotal",
          "type": "uint256"
        },
        {
          "internalType": "uint256",
          "name": "amountSwap",
          "type": "uint256"
        },
        {
          "internalType": "uint256",
          "name": "minimumAmountSwapOut",
          "type": "uint256"
        },
        {
          "internalType": "uint256",
          "name": "_deadline",
          "type": "uint256"
        }
      ],
      "name": "stakeAggregate",
      "outputs": [
        {
          "internalType": "uint256",
          "name": "",
          "type": "uint256"
        }
      ],
      "stateMutability": "nonpayable",
      "type": "function"
    },
    {
      "inputs": [],
      "name": "stflip",
      "outputs": [
        {
          "internalType": "contract IERC20",
          "name": "",
          "type": "address"
        }
      ],
      "stateMutability": "view",
      "type": "function"
    },
    {
      "inputs": [],
      "name": "tenderSwap",
      "outputs": [
        {
          "internalType": "contract TenderSwap",
          "name": "",
          "type": "address"
        }
      ],
      "stateMutability": "view",
      "type": "function"
    },
    {
      "inputs": [
        {
          "internalType": "uint256",
          "name": "amountInstantBurn",
          "type": "uint256"
        },
        {
          "internalType": "uint256",
          "name": "amountBurn",
          "type": "uint256"
        },
        {
          "internalType": "uint256",
          "name": "amountSwap",
          "type": "uint256"
        },
        {
          "internalType": "uint256",
          "name": "minimumAmountSwapOut",
          "type": "uint256"
        },
        {
          "internalType": "uint256",
          "name": "deadline",
          "type": "uint256"
        }
      ],
      "name": "unstakeAggregate",
      "outputs": [
        {
          "internalType": "uint256",
          "name": "",
          "type": "uint256"
        }
      ],
      "stateMutability": "nonpayable",
      "type": "function"
    }
  ],
  "bytecode": {
    "object": "0x60806040523480156200001157600080fd5b5060405162001bd638038062001bd68339810160408190526200003491620002e1565b600280546001600160a01b038781166001600160a01b03199283161790925560038054878416908316179055600480548684169083168117825560018054868616908516811790915560008054958816959094169490941790925560405163095ea7b360e01b815290810191909152600019602482015263095ea7b390604401602060405180830381600087803b158015620000cf57600080fd5b505af1158015620000e4573d6000803e3d6000fd5b505050506040513d601f19601f820116820180604052508101906200010a919062000351565b5060015460025460405163095ea7b360e01b81526001600160a01b039182166004820152600019602482015291169063095ea7b390604401602060405180830381600087803b1580156200015d57600080fd5b505af115801562000172573d6000803e3d6000fd5b505050506040513d601f19601f8201168201806040525081019062000198919062000351565b5060005460035460405163095ea7b360e01b81526001600160a01b039182166004820152600019602482015291169063095ea7b390604401602060405180830381600087803b158015620001eb57600080fd5b505af115801562000200573d6000803e3d6000fd5b505050506040513d601f19601f8201168201806040525081019062000226919062000351565b506000546004805460405163095ea7b360e01b81526001600160a01b039182169281019290925260001960248301529091169063095ea7b390604401602060405180830381600087803b1580156200027d57600080fd5b505af115801562000292573d6000803e3d6000fd5b505050506040513d601f19601f82011682018060405250810190620002b8919062000351565b5050505050506200037c565b80516001600160a01b0381168114620002dc57600080fd5b919050565b600080600080600060a08688031215620002fa57600080fd5b6200030586620002c4565b94506200031560208701620002c4565b93506200032560408701620002c4565b92506200033560608701620002c4565b91506200034560808701620002c4565b90509295509295909350565b6000602082840312156200036457600080fd5b815180151581146200037557600080fd5b9392505050565b61184a806200038c6000396000f3fe608060405234801561001057600080fd5b50600436106100935760003560e01c8063a26a546b11610066578063a26a546b1461010f578063ad9f98ab14610122578063b27c6de014610135578063cde4efa914610148578063f025b2091461015b57600080fd5b8063075461721461009857806327810b6e146100c85780634e50b557146100db5780636660d15c146100fc575b600080fd5b6002546100ab906001600160a01b031681565b6040516001600160a01b0390911681526020015b60405180910390f35b6003546100ab906001600160a01b031681565b6100ee6100e93660046114ac565b61016e565b6040519081526020016100bf565b6100ee61010a36600461150a565b61017f565b6004546100ab906001600160a01b031681565b6100ee6101303660046114de565b6106f8565b6100ee61014336600461153c565b610a28565b6001546100ab906001600160a01b031681565b6000546100ab906001600160a01b031681565b600061017982611063565b92915050565b60006101c86040518060400160405280601981526020017f7472616e7366657272696e6720746f20636f6e747261637420000000000000008152506101c3876111d1565b6112fa565b6001546040516323b872dd60e01b8152336004820152306024820152604481018790526001600160a01b03909116906323b872dd90606401602060405180830381600087803b15801561021a57600080fd5b505af115801561022e573d6000803e3d6000fd5b505050506040513d601f19601f82011682018060405250810190610252919061148a565b50600080610260868861172b565b905085156103625761029660405180604001604052806009815260200168039bbb0b83834b733960bd1b8152506101c3886111d1565b6004805460015460405163193d924960e31b81526001600160a01b0391821693810193909352602483018990526044830188905260648301879052169063c9ec924890608401602060405180830381600087803b1580156102f657600080fd5b505af115801561030a573d6000803e3d6000fd5b505050506040513d601f19601f8201168201806040525081019061032e91906114c5565b915061035d604051806040016040528060088152602001671c9958d95a5d995960c21b8152506101c3846111d1565b610367565b600091505b80156104535761039a60405180604001604052806008815260200167036b4b73a34b733960c51b8152506101c3836111d1565b6002546040516340c10f1960e01b8152306004820152602481018390526001600160a01b03909116906340c10f1990604401602060405180830381600087803b1580156103e657600080fd5b505af11580156103fa573d6000803e3d6000fd5b505050506040513d601f19601f8201168201806040525081019061041e919061148a565b50610453604051806040016040528060138152602001721cdd58d8d95cdcd99d5b1b1e481b5a5b9d1959606a1b815250611343565b60408051808201909152601a81527f7472616e7366657272696e67206261636b20746f20757365722000000000000060208201526104a9906101c3600161049a86866116ad565b6104a4919061172b565b6111d1565b6104d86040518060400160405280600a815260200169135a5b9d185b5bdd5b9d60b21b8152506101c3836111d1565b61050560405180604001604052806008815260200167149958d95a5d995960c21b8152506101c3846111d1565b604080518082018252600e81526d61637475616c2062616c616e636560901b602082015260005491516370a0823160e01b81523060048201526105ab926001600160a01b0316906370a08231906024015b60206040518083038186803b15801561056e57600080fd5b505afa158015610582573d6000803e3d6000fd5b505050506040513d601f19601f820116820180604052508101906105a691906114c5565b611389565b6000546001600160a01b031663a9059cbb3360016105c986866116ad565b6105d3919061172b565b6040516001600160e01b031960e085901b1681526001600160a01b0390921660048301526024820152604401602060405180830381600087803b15801561061957600080fd5b505af115801561062d573d6000803e3d6000fd5b505050506040513d601f19601f82011682018060405250810190610651919061148a565b507f1b73f5bc374f0e469157f975ae4657fac9870ecc4509804a4b86694558331e7f61067d83836116ad565b6040805191825260208201859052810183905260600160405180910390a16106bc6040518060600160405280603181526020016117e460319139611343565b6106e36106cc6104a484846116ad565b6106d5846111d1565b6106de846111d1565b6113ce565b6106ed82826116ad565b979650505050505050565b60008054600480546040516370a0823160e01b81526001600160a01b0391821692810192909252839283928392909116906370a082319060240160206040518083038186803b15801561074a57600080fd5b505afa15801561075e573d6000803e3d6000fd5b505050506040513d601f19601f8201168201806040525081019061078291906114c5565b905067016345785d8a00008660006107a1670de0b6b3a7640000611063565b905089811015610833576108246107b7826111d1565b6040518060400160405280601e81526020017f206c657373207468616e20746865207461726765745072696365206f662000008152506107f68d6111d1565b6040518060400160405280601081526020016f0103932ba3ab93734b733903d32b937960851b81525061141a565b60009650505050505050610a21565b61086f6040518060600160405280602281526020016117c2602291396108588c6111d1565b6108618c6111d1565b61086a8c6111d1565b61141a565b6108ad6040518060400160405280601b81526020017f616d742c2070726963652c206572726f722c20617474656d7074730000000000815250611343565b600088116108f45760405162461bcd60e51b815260206004820152601060248201526f1b9bc8185d1d195b5c1d1cc81b19599d60821b604482015260640160405180910390fd5b600261090087866116ad565b61090a91906116ea565b945061091585611063565b9250898311156109315761092a8560016116ad565b955061093f565b61093c60018661172b565b93505b61094a60018961172b565b97508983101561098a578961096784670de0b6b3a764000061170c565b61097191906116ea565b61098390670de0b6b3a764000061172b565b91506109b5565b670de0b6b3a76400008a61099e858361170c565b6109a891906116ea565b6109b2919061172b565b91505b6109d36109c1866111d1565b6109ca856111d1565b610861856111d1565b88821015610a1c57610a0e6040518060400160405280600e81526020016d03932ba3ab93734b733903b30b6160951b8152506101c3876111d1565b849650505050505050610a21565b6108ad565b9392505050565b60008084610a3687896116ad565b610a4091906116ad565b90506000610a666040518060600160405280602281526020016117a06022913983611389565b6000546040516323b872dd60e01b8152336004820152306024820152604481018490526001600160a01b03909116906323b872dd90606401602060405180830381600087803b158015610ab857600080fd5b505af1158015610acc573d6000803e3d6000fd5b505050506040513d601f19601f82011682018060405250810190610af0919061148a565b5060408051808201825260198152780232624a8103130b630b731b29037b31031b7b73a3930b1ba1603d1b602082015260015491516370a0823160e01b8152306004820152610b51926001600160a01b0316906370a0823190602401610556565b604080518082018252601b81527f7374464c49502062616c616e6365206f6620636f6e7472616374200000000000602082015260005491516370a0823160e01b8152306004820152610bb5926001600160a01b0316906370a0823190602401610556565b8715610ce057610bfa6040518060400160405280601c81526020017f706572666f726d696e6720696e7374616e74206275726e20666f72200000000081525089611389565b600354604051632770a7eb60e21b8152336004820152602481018a90526000916001600160a01b031690639dc29fac90604401602060405180830381600087803b158015610c4757600080fd5b505af1158015610c5b573d6000803e3d6000fd5b505050506040513d601f19601f82011682018060405250810190610c7f91906114c5565b60035460405163db006a7560e01b8152600481018390529192506001600160a01b03169063db006a7590602401600060405180830381600087803b158015610cc657600080fd5b505af1158015610cda573d6000803e3d6000fd5b50505050505b8615610dad57610d256040518060400160405280601b81526020017f706572666f726d696e67206e6f726d616c206275726e20666f7220000000000081525088611389565b600354604051632770a7eb60e21b8152336004820152602481018990526000916001600160a01b031690639dc29fac90604401602060405180830381600087803b158015610d7257600080fd5b505af1158015610d86573d6000803e3d6000fd5b505050506040513d601f19601f82011682018060405250810190610daa91906114c5565b50505b851561100c57610de96040518060400160405280601481526020017303832b93337b936b4b7339039bbb0b8103337b9160651b81525087611389565b6004805460005460405163193d924960e31b81526001600160a01b0391821693810193909352602483018990526044830188905260648301879052169063c9ec924890608401602060405180830381600087803b158015610e4957600080fd5b505af1158015610e5d573d6000803e3d6000fd5b505050506040513d601f19601f82011682018060405250810190610e8191906114c5565b9050610ec26040518060400160405280601f81526020017f7472616e7366657272696e6720464c4950206261636b20746f2075736572200081525082611389565b60408051808201825260198152780232624a8103130b630b731b29037b31031b7b73a3930b1ba1603d1b602082015260015491516370a0823160e01b8152306004820152610f22926001600160a01b0316906370a0823190602401610556565b604080518082018252601b81527f7374464c49502062616c616e6365206f6620636f6e7472616374200000000000602082015260005491516370a0823160e01b8152306004820152610f86926001600160a01b0316906370a0823190602401610556565b60015460405163a9059cbb60e01b8152336004820152602481018390526001600160a01b039091169063a9059cbb90604401602060405180830381600087803b158015610fd257600080fd5b505af1158015610fe6573d6000803e3d6000fd5b505050506040513d601f19601f8201168201806040525081019061100a919061148a565b505b60408051898152602081018990529081018290527fbc584791848fa3b86f806f0676669fa38442f27a97e9f148352eacf090e42c859060600160405180910390a161105781896116ad565b98975050505050505050565b6000818161107982670de0b6b3a76400006116ad565b60048054600154604051631de8d8cb60e01b81526001600160a01b0391821693810193909352602483018690529293506000921690631de8d8cb9060440160206040518083038186803b1580156110cf57600080fd5b505afa1580156110e3573d6000803e3d6000fd5b505050506040513d601f19601f8201168201806040525081019061110791906114c5565b60048054600154604051631de8d8cb60e01b81526001600160a01b0391821693810193909352602483018690529293506000921690631de8d8cb9060440160206040518083038186803b15801561115d57600080fd5b505afa158015611171573d6000803e3d6000fd5b505050506040513d601f19601f8201168201806040525081019061119591906114c5565b90506111a1848461172b565b6111ab838361172b565b6111bd90670de0b6b3a764000061170c565b6111c791906116ea565b9695505050505050565b6060816111f55750506040805180820190915260018152600360fc1b602082015290565b8160005b811561121f578061120981611742565b91506112189050600a836116ea565b91506111f9565b60008167ffffffffffffffff81111561123a5761123a611789565b6040519080825280601f01601f191660200182016040528015611264576020820181803683370190505b509050815b85156112f15761127a60018261172b565b90506000611289600a886116ea565b61129490600a61170c565b61129e908861172b565b6112a99060306116c5565b905060008160f81b9050808484815181106112c6576112c6611773565b60200101906001600160f81b031916908160001a9053506112e8600a896116ea565b97505050611269565b50949350505050565b61133f82826040516024016113109291906115d7565b60408051601f198184030181529190526020810180516001600160e01b0316634b5c427760e01b179052611469565b5050565b6113868160405160240161135791906115c4565b60408051601f198184030181529190526020810180516001600160e01b031663104c13eb60e21b179052611469565b50565b61133f828260405160240161139f92919061168b565b60408051601f198184030181529190526020810180516001600160e01b03166309710a9d60e41b179052611469565b6114158383836040516024016113e693929190611605565b60408051601f198184030181529190526020810180516001600160e01b0316632ced7cef60e01b179052611469565b505050565b61146384848484604051602401611434949392919061163e565b60408051601f198184030181529190526020810180516001600160e01b0316636f34790560e11b179052611469565b50505050565b80516a636f6e736f6c652e6c6f67602083016000808483855afa5050505050565b60006020828403121561149c57600080fd5b81518015158114610a2157600080fd5b6000602082840312156114be57600080fd5b5035919050565b6000602082840312156114d757600080fd5b5051919050565b6000806000606084860312156114f357600080fd5b505081359360208301359350604090920135919050565b6000806000806080858703121561152057600080fd5b5050823594602084013594506040840135936060013592509050565b600080600080600060a0868803121561155457600080fd5b505083359560208501359550604085013594606081013594506080013592509050565b6000815180845260005b8181101561159d57602081850181015186830182015201611581565b818111156115af576000602083870101525b50601f01601f19169290920160200192915050565b602081526000610a216020830184611577565b6040815260006115ea6040830185611577565b82810360208401526115fc8185611577565b95945050505050565b6060815260006116186060830186611577565b828103602084015261162a8186611577565b905082810360408401526111c78185611577565b6080815260006116516080830187611577565b82810360208401526116638187611577565b905082810360408401526116778186611577565b905082810360608401526106ed8185611577565b60408152600061169e6040830185611577565b90508260208301529392505050565b600082198211156116c0576116c061175d565b500190565b600060ff821660ff84168060ff038211156116e2576116e261175d565b019392505050565b60008261170757634e487b7160e01b600052601260045260246000fd5b500490565b60008160001904831182151516156117265761172661175d565b500290565b60008282101561173d5761173d61175d565b500390565b60006000198214156117565761175661175d565b5060010190565b634e487b7160e01b600052601160045260246000fd5b634e487b7160e01b600052603260045260246000fd5b634e487b7160e01b600052604160045260246000fdfe7472616e7366657272696e672066726f6d207573657220746f20636f6e747261637474617267657450726963652c207461726765744572726f722c20617474656d7074736167677265676174696f6e20636f6d706c6574652e20746f74616c2c2072656365697665642c206d696e74416d6f756e74a264697066735822122077d15c04db213e754f12dc8a99460caac6db328af2ef6fabfe539403224febb564736f6c63430008070033",
    "linkReferences": {}
  },
  "methodIdentifiers": {
    "burner()": "27810b6e",
    "calculatePurchasable(uint256,uint256,uint256)": "ad9f98ab",
    "flip()": "cde4efa9",
    "marginalCost(uint256)": "4e50b557",
    "minter()": "07546172",
    "stakeAggregate(uint256,uint256,uint256,uint256)": "6660d15c",
    "stflip()": "f025b209",
    "tenderSwap()": "a26a546b",
    "unstakeAggregate(uint256,uint256,uint256,uint256,uint256)": "b27c6de0"
  },
  "id": 55
}