{
  "abi": [
    {
      "inputs": [
        {
          "internalType": "address",
          "name": "flip_",
          "type": "address"
        },
        {
          "internalType": "address",
          "name": "burner_",
          "type": "address"
        }
      ],
      "stateMutability": "nonpayable",
      "type": "constructor"
    },
    {
      "inputs": [],
      "name": "burner",
      "outputs": [
        {
          "internalType": "contract Burner",
          "name": "",
          "type": "address"
        }
      ],
      "stateMutability": "view",
      "type": "function"
    },
    {
      "inputs": [
        {
          "internalType": "address[]",
          "name": "recipients",
          "type": "address[]"
        },
        {
          "internalType": "uint256[]",
          "name": "values",
          "type": "uint256[]"
        },
        {
          "internalType": "uint256",
          "name": "deposit",
          "type": "uint256"
        }
      ],
      "name": "disperseToken",
      "outputs": [],
      "stateMutability": "nonpayable",
      "type": "function"
    },
    {
      "inputs": [],
      "name": "flip",
      "outputs": [
        {
          "internalType": "contract IERC20",
          "name": "",
          "type": "address"
        }
      ],
      "stateMutability": "view",
      "type": "function"
    }
  ],
  "bytecode": {
    "object": "0x608060405234801561001057600080fd5b5060405161066b38038061066b83398101604081905261002f916100fb565b600080546001600160a01b038481166001600160a01b031992831681179093556001805491851691909216811790915560405163095ea7b360e01b81526004810191909152600019602482015263095ea7b390604401602060405180830381600087803b15801561009f57600080fd5b505af11580156100b3573d6000803e3d6000fd5b505050506040513d601f19601f820116820180604052508101906100d7919061012e565b505050610157565b80516001600160a01b03811681146100f657600080fd5b919050565b6000806040838503121561010e57600080fd5b610117836100df565b9150610125602084016100df565b90509250929050565b60006020828403121561014057600080fd5b8151801515811461015057600080fd5b9392505050565b610505806101666000396000f3fe608060405234801561001057600080fd5b50600436106100415760003560e01c806327810b6e1461004657806371ef377c14610075578063cde4efa91461008a575b600080fd5b600154610059906001600160a01b031681565b6040516001600160a01b03909116815260200160405180910390f35b6100886100833660046103da565b61009d565b005b600054610059906001600160a01b031681565b8060005b858110156100e1578484828181106100bb576100bb6104b9565b90506020020135826100cd9190610470565b9150806100d981610488565b9150506100a1565b506000546040516323b872dd60e01b8152336004820152306024820152604481018390526001600160a01b03909116906323b872dd90606401602060405180830381600087803b15801561013457600080fd5b505af1158015610148573d6000803e3d6000fd5b505050506040513d601f19601f8201168201806040525081019061016c919061044e565b61017557600080fd5b60005b8581101561026c576000546001600160a01b031663a9059cbb8888848181106101a3576101a36104b9565b90506020020160208101906101b891906103aa565b8787858181106101ca576101ca6104b9565b6040516001600160e01b031960e087901b1681526001600160a01b0390941660048501526020029190910135602483015250604401602060405180830381600087803b15801561021957600080fd5b505af115801561022d573d6000803e3d6000fd5b505050506040513d601f19601f82011682018060405250810190610251919061044e565b61025a57600080fd5b8061026481610488565b915050610178565b506000546040516323b872dd60e01b8152336004820152306024820152604481018490526001600160a01b03909116906323b872dd90606401602060405180830381600087803b1580156102bf57600080fd5b505af11580156102d3573d6000803e3d6000fd5b505050506040513d601f19601f820116820180604052508101906102f7919061044e565b5060015460405163b6b55f2560e01b8152600481018490526001600160a01b039091169063b6b55f2590602401600060405180830381600087803b15801561033e57600080fd5b505af1158015610352573d6000803e3d6000fd5b50505050505050505050565b60008083601f84011261037057600080fd5b50813567ffffffffffffffff81111561038857600080fd5b6020830191508360208260051b85010111156103a357600080fd5b9250929050565b6000602082840312156103bc57600080fd5b81356001600160a01b03811681146103d357600080fd5b9392505050565b6000806000806000606086880312156103f257600080fd5b853567ffffffffffffffff8082111561040a57600080fd5b61041689838a0161035e565b9097509550602088013591508082111561042f57600080fd5b5061043c8882890161035e565b96999598509660400135949350505050565b60006020828403121561046057600080fd5b815180151581146103d357600080fd5b60008219821115610483576104836104a3565b500190565b600060001982141561049c5761049c6104a3565b5060010190565b634e487b7160e01b600052601160045260246000fd5b634e487b7160e01b600052603260045260246000fdfea2646970667358221220377c0c2c1e351355b41c76421a961255e6bef6a85a035cb7e962532360574b7464736f6c63430008070033",
    "linkReferences": {}
  },
  "methodIdentifiers": {
    "burner()": "27810b6e",
    "disperseToken(address[],uint256[],uint256)": "71ef377c",
    "flip()": "cde4efa9"
  },
  "id": 59
}