{
  "abi": [
    {
      "inputs": [
        {
          "internalType": "address",
          "name": "flip_",
          "type": "address"
        },
        {
          "internalType": "address",
          "name": "burner_",
          "type": "address"
        }
      ],
      "stateMutability": "nonpayable",
      "type": "constructor"
    },
    {
      "inputs": [],
      "name": "burner",
      "outputs": [
        {
          "internalType": "contract Burner",
          "name": "",
          "type": "address"
        }
      ],
      "stateMutability": "view",
      "type": "function"
    },
    {
      "inputs": [
        {
          "internalType": "address[]",
          "name": "recipients",
          "type": "address[]"
        },
        {
          "internalType": "uint256[]",
          "name": "values",
          "type": "uint256[]"
        },
        {
          "internalType": "uint256",
          "name": "deposit",
          "type": "uint256"
        }
      ],
      "name": "disperseToken",
      "outputs": [],
      "stateMutability": "nonpayable",
      "type": "function"
    },
    {
      "inputs": [],
      "name": "flip",
      "outputs": [
        {
          "internalType": "contract IERC20",
          "name": "",
          "type": "address"
        }
      ],
      "stateMutability": "view",
      "type": "function"
    }
  ],
  "bytecode": {
    "object": "0x608060405234801561001057600080fd5b5060405161064c38038061064c83398101604081905261002f9161007c565b600080546001600160a01b039384166001600160a01b031991821617909155600180549290931691161790556100af565b80516001600160a01b038116811461007757600080fd5b919050565b6000806040838503121561008f57600080fd5b61009883610060565b91506100a660208401610060565b90509250929050565b61058e806100be6000396000f3fe608060405234801561001057600080fd5b50600436106100415760003560e01c806327810b6e1461004657806371ef377c14610075578063cde4efa91461008a575b600080fd5b600154610059906001600160a01b031681565b6040516001600160a01b03909116815260200160405180910390f35b610088610083366004610463565b61009d565b005b600054610059906001600160a01b031681565b6000805b858110156100e1578484828181106100bb576100bb610542565b90506020020135826100cd91906104f9565b9150806100d981610511565b9150506100a1565b506000546040516323b872dd60e01b8152336004820152306024820152604481018390526001600160a01b03909116906323b872dd90606401602060405180830381600087803b15801561013457600080fd5b505af1158015610148573d6000803e3d6000fd5b505050506040513d601f19601f8201168201806040525081019061016c91906104d7565b61017557600080fd5b60005b8581101561026c576000546001600160a01b031663a9059cbb8888848181106101a3576101a3610542565b90506020020160208101906101b89190610433565b8787858181106101ca576101ca610542565b6040516001600160e01b031960e087901b1681526001600160a01b0390941660048501526020029190910135602483015250604401602060405180830381600087803b15801561021957600080fd5b505af115801561022d573d6000803e3d6000fd5b505050506040513d601f19601f8201168201806040525081019061025191906104d7565b61025a57600080fd5b8061026481610511565b915050610178565b506000546040516323b872dd60e01b8152336004820152306024820152604481018490526001600160a01b03909116906323b872dd90606401602060405180830381600087803b1580156102bf57600080fd5b505af11580156102d3573d6000803e3d6000fd5b505050506040513d601f19601f820116820180604052508101906102f791906104d7565b5060005460015460405163095ea7b360e01b81526001600160a01b0391821660048201526024810185905291169063095ea7b390604401602060405180830381600087803b15801561034857600080fd5b505af115801561035c573d6000803e3d6000fd5b505050506040513d601f19601f8201168201806040525081019061038091906104d7565b5060015460405163b6b55f2560e01b8152600481018490526001600160a01b039091169063b6b55f2590602401600060405180830381600087803b1580156103c757600080fd5b505af11580156103db573d6000803e3d6000fd5b50505050505050505050565b60008083601f8401126103f957600080fd5b50813567ffffffffffffffff81111561041157600080fd5b6020830191508360208260051b850101111561042c57600080fd5b9250929050565b60006020828403121561044557600080fd5b81356001600160a01b038116811461045c57600080fd5b9392505050565b60008060008060006060868803121561047b57600080fd5b853567ffffffffffffffff8082111561049357600080fd5b61049f89838a016103e7565b909750955060208801359150808211156104b857600080fd5b506104c5888289016103e7565b96999598509660400135949350505050565b6000602082840312156104e957600080fd5b8151801515811461045c57600080fd5b6000821982111561050c5761050c61052c565b500190565b60006000198214156105255761052561052c565b5060010190565b634e487b7160e01b600052601160045260246000fd5b634e487b7160e01b600052603260045260246000fdfea26469706673582212205519b9b7ea5684945f6e87f630d78546a9ec5f6d23058d9315ab2374900a269a64736f6c63430008070033",
    "linkReferences": {}
  },
  "methodIdentifiers": {
    "burner()": "27810b6e",
    "disperseToken(address[],uint256[],uint256)": "71ef377c",
    "flip()": "cde4efa9"
  },
  "id": 58
}