{
  "abi": [
    {
      "inputs": [
        {
          "internalType": "address",
          "name": "flip_",
          "type": "address"
        },
        {
          "internalType": "address",
          "name": "burner_",
          "type": "address"
        },
        {
          "internalType": "address",
          "name": "staker_",
          "type": "address"
        }
      ],
      "stateMutability": "nonpayable",
      "type": "constructor"
    },
    {
      "inputs": [],
      "name": "burner",
      "outputs": [
        {
          "internalType": "contract Burner",
          "name": "",
          "type": "address"
        }
      ],
      "stateMutability": "view",
      "type": "function"
    },
    {
      "inputs": [
        {
          "internalType": "bytes32",
          "name": "nodeID",
          "type": "bytes32"
        },
        {
          "internalType": "address[]",
          "name": "recipients",
          "type": "address[]"
        },
        {
          "internalType": "uint256[]",
          "name": "values",
          "type": "uint256[]"
        },
        {
          "internalType": "uint256",
          "name": "deposit",
          "type": "uint256"
        }
      ],
      "name": "disperseToken",
      "outputs": [],
      "stateMutability": "nonpayable",
      "type": "function"
    },
    {
      "inputs": [],
      "name": "flip",
      "outputs": [
        {
          "internalType": "contract IERC20",
          "name": "",
          "type": "address"
        }
      ],
      "stateMutability": "view",
      "type": "function"
    },
    {
      "inputs": [],
      "name": "staker",
      "outputs": [
        {
          "internalType": "contract Staker",
          "name": "",
          "type": "address"
        }
      ],
      "stateMutability": "view",
      "type": "function"
    }
  ],
  "bytecode": {
    "object": "0x608060405234801561001057600080fd5b5060405161072738038061072783398101604081905261002f9161011a565b600080546001600160a01b038086166001600160a01b0319928316811790935560018054868316908416179055600280549185169190921617905560405163095ea7b360e01b815263095ea7b3906100a3908590600019906004016001600160a01b03929092168252602082015260400190565b602060405180830381600087803b1580156100bd57600080fd5b505af11580156100d1573d6000803e3d6000fd5b505050506040513d601f19601f820116820180604052508101906100f5919061015d565b50505050610186565b80516001600160a01b038116811461011557600080fd5b919050565b60008060006060848603121561012f57600080fd5b610138846100fe565b9250610146602085016100fe565b9150610154604085016100fe565b90509250925092565b60006020828403121561016f57600080fd5b8151801515811461017f57600080fd5b9392505050565b610592806101956000396000f3fe608060405234801561001057600080fd5b506004361061004c5760003560e01c806327810b6e146100515780635ebaf1db1461008057806387a536a314610093578063cde4efa9146100a8575b600080fd5b600154610064906001600160a01b031681565b6040516001600160a01b03909116815260200160405180910390f35b600254610064906001600160a01b031681565b6100a66100a136600461047b565b6100bb565b005b600054610064906001600160a01b031681565b60025460405163b432b06160e01b8152600481018890526001600160a01b039091169063b432b06190602401600060405180830381600087803b15801561010157600080fd5b505af1158015610115573d6000803e3d6000fd5b5083925060009150505b8581101561015f5784848281811061013957610139610546565b905060200201358261014b91906104fd565b91508061015781610515565b91505061011f565b506000546040516323b872dd60e01b8152336004820152306024820152604481018390526001600160a01b03909116906323b872dd90606401602060405180830381600087803b1580156101b257600080fd5b505af11580156101c6573d6000803e3d6000fd5b505050506040513d601f19601f820116820180604052508101906101ea9190610459565b6101f357600080fd5b60005b858110156102ea576000546001600160a01b031663a9059cbb88888481811061022157610221610546565b90506020020160208101906102369190610429565b87878581811061024857610248610546565b6040516001600160e01b031960e087901b1681526001600160a01b0390941660048501526020029190910135602483015250604401602060405180830381600087803b15801561029757600080fd5b505af11580156102ab573d6000803e3d6000fd5b505050506040513d601f19601f820116820180604052508101906102cf9190610459565b6102d857600080fd5b806102e281610515565b9150506101f6565b506000546040516323b872dd60e01b8152336004820152306024820152604481018490526001600160a01b03909116906323b872dd90606401602060405180830381600087803b15801561033d57600080fd5b505af1158015610351573d6000803e3d6000fd5b505050506040513d601f19601f820116820180604052508101906103759190610459565b5060015460405163b6b55f2560e01b8152600481018490526001600160a01b039091169063b6b55f2590602401600060405180830381600087803b1580156103bc57600080fd5b505af11580156103d0573d6000803e3d6000fd5b5050505050505050505050565b60008083601f8401126103ef57600080fd5b50813567ffffffffffffffff81111561040757600080fd5b6020830191508360208260051b850101111561042257600080fd5b9250929050565b60006020828403121561043b57600080fd5b81356001600160a01b038116811461045257600080fd5b9392505050565b60006020828403121561046b57600080fd5b8151801515811461045257600080fd5b6000806000806000806080878903121561049457600080fd5b86359550602087013567ffffffffffffffff808211156104b357600080fd5b6104bf8a838b016103dd565b909750955060408901359150808211156104d857600080fd5b506104e589828a016103dd565b979a9699509497949695606090950135949350505050565b6000821982111561051057610510610530565b500190565b600060001982141561052957610529610530565b5060010190565b634e487b7160e01b600052601160045260246000fd5b634e487b7160e01b600052603260045260246000fdfea2646970667358221220bb29f46dd10654ed6f34d09326e3b325fdac5ab470b902074193f7932130eaf464736f6c63430008070033",
    "linkReferences": {}
  },
  "methodIdentifiers": {
    "burner()": "27810b6e",
    "disperseToken(bytes32,address[],uint256[],uint256)": "87a536a3",
    "flip()": "cde4efa9",
    "staker()": "5ebaf1db"
  },
  "id": 59
}