{
  "abi": [
    {
      "inputs": [
        {
          "internalType": "address",
          "name": "minter_",
          "type": "address"
        },
        {
          "internalType": "address",
          "name": "burner_",
          "type": "address"
        },
        {
          "internalType": "address",
          "name": "liquidityPool_",
          "type": "address"
        },
        {
          "internalType": "address",
          "name": "stflip_",
          "type": "address"
        },
        {
          "internalType": "address",
          "name": "flip_",
          "type": "address"
        }
      ],
      "stateMutability": "nonpayable",
      "type": "constructor"
    },
    {
      "anonymous": false,
      "inputs": [
        {
          "indexed": false,
          "internalType": "uint256",
          "name": "total",
          "type": "uint256"
        },
        {
          "indexed": false,
          "internalType": "uint256",
          "name": "swapped",
          "type": "uint256"
        },
        {
          "indexed": false,
          "internalType": "uint256",
          "name": "minted",
          "type": "uint256"
        }
      ],
      "name": "Aggregation",
      "type": "event"
    },
    {
      "anonymous": false,
      "inputs": [
        {
          "indexed": false,
          "internalType": "uint256",
          "name": "amountInstantBurn",
          "type": "uint256"
        },
        {
          "indexed": false,
          "internalType": "uint256",
          "name": "amountBurn",
          "type": "uint256"
        },
        {
          "indexed": false,
          "internalType": "uint256",
          "name": "received",
          "type": "uint256"
        }
      ],
      "name": "BurnAggregation",
      "type": "event"
    },
    {
      "inputs": [
        {
          "internalType": "uint256",
          "name": "amount",
          "type": "uint256"
        },
        {
          "internalType": "uint256",
          "name": "_dx",
          "type": "uint256"
        },
        {
          "internalType": "uint256",
          "name": "_minDy",
          "type": "uint256"
        },
        {
          "internalType": "uint256",
          "name": "_deadline",
          "type": "uint256"
        }
      ],
      "name": "aggregate",
      "outputs": [
        {
          "internalType": "uint256",
          "name": "",
          "type": "uint256"
        }
      ],
      "stateMutability": "nonpayable",
      "type": "function"
    },
    {
      "inputs": [],
      "name": "burner",
      "outputs": [
        {
          "internalType": "contract Burner",
          "name": "",
          "type": "address"
        }
      ],
      "stateMutability": "view",
      "type": "function"
    },
    {
      "inputs": [
        {
          "internalType": "uint256",
          "name": "targetPrice",
          "type": "uint256"
        },
        {
          "internalType": "uint256",
          "name": "targetError",
          "type": "uint256"
        },
        {
          "internalType": "uint256",
          "name": "attempts",
          "type": "uint256"
        }
      ],
      "name": "calculatePurchasable",
      "outputs": [
        {
          "internalType": "uint256",
          "name": "",
          "type": "uint256"
        }
      ],
      "stateMutability": "view",
      "type": "function"
    },
    {
      "inputs": [],
      "name": "flip",
      "outputs": [
        {
          "internalType": "contract IERC20",
          "name": "",
          "type": "address"
        }
      ],
      "stateMutability": "view",
      "type": "function"
    },
    {
      "inputs": [
        {
          "internalType": "uint256",
          "name": "amount",
          "type": "uint256"
        }
      ],
      "name": "marginalCost",
      "outputs": [
        {
          "internalType": "uint256",
          "name": "",
          "type": "uint256"
        }
      ],
      "stateMutability": "view",
      "type": "function"
    },
    {
      "inputs": [],
      "name": "minter",
      "outputs": [
        {
          "internalType": "contract Minter",
          "name": "",
          "type": "address"
        }
      ],
      "stateMutability": "view",
      "type": "function"
    },
    {
      "inputs": [],
      "name": "stflip",
      "outputs": [
        {
          "internalType": "contract IERC20",
          "name": "",
          "type": "address"
        }
      ],
      "stateMutability": "view",
      "type": "function"
    },
    {
      "inputs": [],
      "name": "tenderSwap",
      "outputs": [
        {
          "internalType": "contract TenderSwap",
          "name": "",
          "type": "address"
        }
      ],
      "stateMutability": "view",
      "type": "function"
    },
    {
      "inputs": [
        {
          "internalType": "uint256",
          "name": "amountInstantBurn",
          "type": "uint256"
        },
        {
          "internalType": "uint256",
          "name": "amountBurn",
          "type": "uint256"
        },
        {
          "internalType": "uint256",
          "name": "amountSwap",
          "type": "uint256"
        },
        {
          "internalType": "uint256",
          "name": "minimumAmountSwapOut",
          "type": "uint256"
        },
        {
          "internalType": "uint256",
          "name": "deadline",
          "type": "uint256"
        }
      ],
      "name": "unstakeAggregate",
      "outputs": [
        {
          "internalType": "uint256",
          "name": "",
          "type": "uint256"
        }
      ],
      "stateMutability": "nonpayable",
      "type": "function"
    }
  ],
  "bytecode": {
    "object": "0x60806040523480156200001157600080fd5b5060405162001ba338038062001ba38339810160408190526200003491620002e1565b600280546001600160a01b038781166001600160a01b03199283161790925560038054878416908316179055600480548684169083168117825560018054868616908516811790915560008054958816959094169490941790925560405163095ea7b360e01b815290810191909152600019602482015263095ea7b390604401602060405180830381600087803b158015620000cf57600080fd5b505af1158015620000e4573d6000803e3d6000fd5b505050506040513d601f19601f820116820180604052508101906200010a919062000351565b5060015460025460405163095ea7b360e01b81526001600160a01b039182166004820152600019602482015291169063095ea7b390604401602060405180830381600087803b1580156200015d57600080fd5b505af115801562000172573d6000803e3d6000fd5b505050506040513d601f19601f8201168201806040525081019062000198919062000351565b5060005460035460405163095ea7b360e01b81526001600160a01b039182166004820152600019602482015291169063095ea7b390604401602060405180830381600087803b158015620001eb57600080fd5b505af115801562000200573d6000803e3d6000fd5b505050506040513d601f19601f8201168201806040525081019062000226919062000351565b506000546004805460405163095ea7b360e01b81526001600160a01b039182169281019290925260001960248301529091169063095ea7b390604401602060405180830381600087803b1580156200027d57600080fd5b505af115801562000292573d6000803e3d6000fd5b505050506040513d601f19601f82011682018060405250810190620002b8919062000351565b5050505050506200037c565b80516001600160a01b0381168114620002dc57600080fd5b919050565b600080600080600060a08688031215620002fa57600080fd5b6200030586620002c4565b94506200031560208701620002c4565b93506200032560408701620002c4565b92506200033560608701620002c4565b91506200034560808701620002c4565b90509295509295909350565b6000602082840312156200036457600080fd5b815180151581146200037557600080fd5b9392505050565b611817806200038c6000396000f3fe608060405234801561001057600080fd5b50600436106100935760003560e01c8063a26a546b11610066578063a26a546b1461010f578063ad9f98ab14610122578063b27c6de014610135578063cde4efa914610148578063f025b2091461015b57600080fd5b8063075461721461009857806327810b6e146100c857806327e8e3bb146100db5780634e50b557146100fc575b600080fd5b6002546100ab906001600160a01b031681565b6040516001600160a01b0390911681526020015b60405180910390f35b6003546100ab906001600160a01b031681565b6100ee6100e93660046114d7565b61016e565b6040519081526020016100bf565b6100ee61010a366004611479565b6106e6565b6004546100ab906001600160a01b031681565b6100ee6101303660046114ab565b6106f7565b6100ee610143366004611509565b610a27565b6001546100ab906001600160a01b031681565b6000546100ab906001600160a01b031681565b60006101b76040518060400160405280601981526020017f7472616e7366657272696e6720746f20636f6e747261637420000000000000008152506101b287611030565b611159565b6001546040516323b872dd60e01b8152336004820152306024820152604481018790526001600160a01b03909116906323b872dd90606401602060405180830381600087803b15801561020957600080fd5b505af115801561021d573d6000803e3d6000fd5b505050506040513d601f19601f820116820180604052508101906102419190611457565b5060008061024f86886116f8565b905085156103515761028560405180604001604052806009815260200168039bbb0b83834b733960bd1b8152506101b288611030565b6004805460015460405163193d924960e31b81526001600160a01b0391821693810193909352602483018990526044830188905260648301879052169063c9ec924890608401602060405180830381600087803b1580156102e557600080fd5b505af11580156102f9573d6000803e3d6000fd5b505050506040513d601f19601f8201168201806040525081019061031d9190611492565b915061034c604051806040016040528060088152602001671c9958d95a5d995960c21b8152506101b284611030565b610356565b600091505b80156104425761038960405180604001604052806008815260200167036b4b73a34b733960c51b8152506101b283611030565b6002546040516340c10f1960e01b8152306004820152602481018390526001600160a01b03909116906340c10f1990604401602060405180830381600087803b1580156103d557600080fd5b505af11580156103e9573d6000803e3d6000fd5b505050506040513d601f19601f8201168201806040525081019061040d9190611457565b50610442604051806040016040528060138152602001721cdd58d8d95cdcd99d5b1b1e481b5a5b9d1959606a1b8152506111a2565b60408051808201909152601a81527f7472616e7366657272696e67206261636b20746f2075736572200000000000006020820152610498906101b26001610489868661167a565b61049391906116f8565b611030565b6104c76040518060400160405280600a815260200169135a5b9d185b5bdd5b9d60b21b8152506101b283611030565b6104f460405180604001604052806008815260200167149958d95a5d995960c21b8152506101b284611030565b604080518082018252600e81526d61637475616c2062616c616e636560901b602082015260005491516370a0823160e01b8152306004820152610599926001600160a01b0316906370a082319060240160206040518083038186803b15801561055c57600080fd5b505afa158015610570573d6000803e3d6000fd5b505050506040513d601f19601f820116820180604052508101906105949190611492565b6111e8565b6000546001600160a01b031663a9059cbb3360016105b7868661167a565b6105c191906116f8565b6040516001600160e01b031960e085901b1681526001600160a01b0390921660048301526024820152604401602060405180830381600087803b15801561060757600080fd5b505af115801561061b573d6000803e3d6000fd5b505050506040513d601f19601f8201168201806040525081019061063f9190611457565b507f1b73f5bc374f0e469157f975ae4657fac9870ecc4509804a4b86694558331e7f61066b838361167a565b6040805191825260208201859052810183905260600160405180910390a16106aa6040518060600160405280603181526020016117b1603191396111a2565b6106d16106ba610493848461167a565b6106c384611030565b6106cc84611030565b61122d565b6106db828261167a565b979650505050505050565b60006106f182611279565b92915050565b60008054600480546040516370a0823160e01b81526001600160a01b0391821692810192909252839283928392909116906370a082319060240160206040518083038186803b15801561074957600080fd5b505afa15801561075d573d6000803e3d6000fd5b505050506040513d601f19601f820116820180604052508101906107819190611492565b905067016345785d8a00008660006107a0670de0b6b3a7640000611279565b905089811015610832576108236107b682611030565b6040518060400160405280601e81526020017f206c657373207468616e20746865207461726765745072696365206f662000008152506107f58d611030565b6040518060400160405280601081526020016f0103932ba3ab93734b733903d32b937960851b8152506113e7565b60009650505050505050610a20565b61086e60405180606001604052806022815260200161178f602291396108578c611030565b6108608c611030565b6108698c611030565b6113e7565b6108ac6040518060400160405280601b81526020017f616d742c2070726963652c206572726f722c20617474656d70747300000000008152506111a2565b600088116108f35760405162461bcd60e51b815260206004820152601060248201526f1b9bc8185d1d195b5c1d1cc81b19599d60821b604482015260640160405180910390fd5b60026108ff878661167a565b61090991906116b7565b945061091485611279565b9250898311156109305761092985600161167a565b955061093e565b61093b6001866116f8565b93505b6109496001896116f8565b975089831015610989578961096684670de0b6b3a76400006116d9565b61097091906116b7565b61098290670de0b6b3a76400006116f8565b91506109b4565b670de0b6b3a76400008a61099d85836116d9565b6109a791906116b7565b6109b191906116f8565b91505b6109d26109c086611030565b6109c985611030565b61086085611030565b88821015610a1b57610a0d6040518060400160405280600e81526020016d03932ba3ab93734b733903b30b6160951b8152506101b287611030565b849650505050505050610a20565b6108ac565b9392505050565b60008084610a35878961167a565b610a3f919061167a565b90506000610a6560405180606001604052806022815260200161176d60229139836111e8565b6000546040516323b872dd60e01b8152336004820152306024820152604481018490526001600160a01b03909116906323b872dd90606401602060405180830381600087803b158015610ab757600080fd5b505af1158015610acb573d6000803e3d6000fd5b505050506040513d601f19601f82011682018060405250810190610aef9190611457565b50600080546040516370a0823160e01b81523060048201526001600160a01b03909116906370a082319060240160206040518083038186803b158015610b3457600080fd5b505afa158015610b48573d6000803e3d6000fd5b505050506040513d601f19601f82011682018060405250810190610b6c9190611492565b9050610b986040518060400160405280600881526020016762616c616e63657360c01b815250826111e8565b8815610cc957610bdd6040518060400160405280601c81526020017f706572666f726d696e6720696e7374616e74206275726e20666f7220000000008152508a6111e8565b600354604051632770a7eb60e21b8152336004820152602481018b90526000916001600160a01b031690639dc29fac90604401602060405180830381600087803b158015610c2a57600080fd5b505af1158015610c3e573d6000803e3d6000fd5b505050506040513d601f19601f82011682018060405250810190610c629190611492565b6003546040516301e9a69560e41b8152336004820152602481018390529192506001600160a01b031690631e9a695090604401600060405180830381600087803b158015610caf57600080fd5b505af1158015610cc3573d6000803e3d6000fd5b50505050505b8715610d9657610d0e6040518060400160405280601b81526020017f706572666f726d696e67206e6f726d616c206275726e20666f72200000000000815250896111e8565b600354604051632770a7eb60e21b8152336004820152602481018a90526000916001600160a01b031690639dc29fac90604401602060405180830381600087803b158015610d5b57600080fd5b505af1158015610d6f573d6000803e3d6000fd5b505050506040513d601f19601f82011682018060405250810190610d939190611492565b50505b8615610fd857610dd26040518060400160405280601481526020017303832b93337b936b4b7339039bbb0b8103337b9160651b815250886111e8565b6004805460005460405163193d924960e31b81526001600160a01b0391821693810193909352602483018a90526044830189905260648301889052169063c9ec924890608401602060405180830381600087803b158015610e3257600080fd5b505af1158015610e46573d6000803e3d6000fd5b505050506040513d601f19601f82011682018060405250810190610e6a9190611492565b9150610eab6040518060400160405280601a81526020017f7472616e7366657272696e67206261636b20746f207573657220000000000000815250836111e8565b6001546040516370a0823160e01b81523060048201526001600160a01b03909116906370a082319060240160206040518083038186803b158015610eee57600080fd5b505afa158015610f02573d6000803e3d6000fd5b505050506040513d601f19601f82011682018060405250810190610f269190611492565b9050610f526040518060400160405280600881526020016762616c616e63657360c01b815250826111e8565b60015460405163a9059cbb60e01b8152336004820152602481018490526001600160a01b039091169063a9059cbb90604401602060405180830381600087803b158015610f9e57600080fd5b505af1158015610fb2573d6000803e3d6000fd5b505050506040513d601f19601f82011682018060405250810190610fd69190611457565b505b604080518a8152602081018a90529081018390527fbc584791848fa3b86f806f0676669fa38442f27a97e9f148352eacf090e42c859060600160405180910390a1611023828a61167a565b9998505050505050505050565b6060816110545750506040805180820190915260018152600360fc1b602082015290565b8160005b811561107e57806110688161170f565b91506110779050600a836116b7565b9150611058565b60008167ffffffffffffffff81111561109957611099611756565b6040519080825280601f01601f1916602001820160405280156110c3576020820181803683370190505b509050815b8515611150576110d96001826116f8565b905060006110e8600a886116b7565b6110f390600a6116d9565b6110fd90886116f8565b611108906030611692565b905060008160f81b90508084848151811061112557611125611740565b60200101906001600160f81b031916908160001a905350611147600a896116b7565b975050506110c8565b50949350505050565b61119e828260405160240161116f9291906115a4565b60408051601f198184030181529190526020810180516001600160e01b0316634b5c427760e01b179052611436565b5050565b6111e5816040516024016111b69190611591565b60408051601f198184030181529190526020810180516001600160e01b031663104c13eb60e21b179052611436565b50565b61119e82826040516024016111fe929190611658565b60408051601f198184030181529190526020810180516001600160e01b03166309710a9d60e41b179052611436565b611274838383604051602401611245939291906115d2565b60408051601f198184030181529190526020810180516001600160e01b0316632ced7cef60e01b179052611436565b505050565b6000818161128f82670de0b6b3a764000061167a565b60048054600154604051631de8d8cb60e01b81526001600160a01b0391821693810193909352602483018690529293506000921690631de8d8cb9060440160206040518083038186803b1580156112e557600080fd5b505afa1580156112f9573d6000803e3d6000fd5b505050506040513d601f19601f8201168201806040525081019061131d9190611492565b60048054600154604051631de8d8cb60e01b81526001600160a01b0391821693810193909352602483018690529293506000921690631de8d8cb9060440160206040518083038186803b15801561137357600080fd5b505afa158015611387573d6000803e3d6000fd5b505050506040513d601f19601f820116820180604052508101906113ab9190611492565b90506113b784846116f8565b6113c183836116f8565b6113d390670de0b6b3a76400006116d9565b6113dd91906116b7565b9695505050505050565b61143084848484604051602401611401949392919061160b565b60408051601f198184030181529190526020810180516001600160e01b0316636f34790560e11b179052611436565b50505050565b80516a636f6e736f6c652e6c6f67602083016000808483855afa5050505050565b60006020828403121561146957600080fd5b81518015158114610a2057600080fd5b60006020828403121561148b57600080fd5b5035919050565b6000602082840312156114a457600080fd5b5051919050565b6000806000606084860312156114c057600080fd5b505081359360208301359350604090920135919050565b600080600080608085870312156114ed57600080fd5b5050823594602084013594506040840135936060013592509050565b600080600080600060a0868803121561152157600080fd5b505083359560208501359550604085013594606081013594506080013592509050565b6000815180845260005b8181101561156a5760208185018101518683018201520161154e565b8181111561157c576000602083870101525b50601f01601f19169290920160200192915050565b602081526000610a206020830184611544565b6040815260006115b76040830185611544565b82810360208401526115c98185611544565b95945050505050565b6060815260006115e56060830186611544565b82810360208401526115f78186611544565b905082810360408401526113dd8185611544565b60808152600061161e6080830187611544565b82810360208401526116308187611544565b905082810360408401526116448186611544565b905082810360608401526106db8185611544565b60408152600061166b6040830185611544565b90508260208301529392505050565b6000821982111561168d5761168d61172a565b500190565b600060ff821660ff84168060ff038211156116af576116af61172a565b019392505050565b6000826116d457634e487b7160e01b600052601260045260246000fd5b500490565b60008160001904831182151516156116f3576116f361172a565b500290565b60008282101561170a5761170a61172a565b500390565b60006000198214156117235761172361172a565b5060010190565b634e487b7160e01b600052601160045260246000fd5b634e487b7160e01b600052603260045260246000fd5b634e487b7160e01b600052604160045260246000fdfe7472616e7366657272696e672066726f6d207573657220746f20636f6e747261637474617267657450726963652c207461726765744572726f722c20617474656d7074736167677265676174696f6e20636f6d706c6574652e20746f74616c2c2072656365697665642c206d696e74416d6f756e74a26469706673582212201573d03a699043ab2508a192422321db64235257a8152858949786f2db43c6fb64736f6c63430008070033",
    "linkReferences": {}
  },
  "methodIdentifiers": {
    "aggregate(uint256,uint256,uint256,uint256)": "27e8e3bb",
    "burner()": "27810b6e",
    "calculatePurchasable(uint256,uint256,uint256)": "ad9f98ab",
    "flip()": "cde4efa9",
    "marginalCost(uint256)": "4e50b557",
    "minter()": "07546172",
    "stflip()": "f025b209",
    "tenderSwap()": "a26a546b",
    "unstakeAggregate(uint256,uint256,uint256,uint256,uint256)": "b27c6de0"
  },
  "id": 54
}