{
  "abi": [
    {
      "inputs": [
        {
          "internalType": "address",
          "name": "stflip_",
          "type": "address"
        },
        {
          "internalType": "address",
          "name": "output_",
          "type": "address"
        },
        {
          "internalType": "address",
          "name": "gov_",
          "type": "address"
        },
        {
          "internalType": "address",
          "name": "flip_",
          "type": "address"
        }
      ],
      "stateMutability": "nonpayable",
      "type": "constructor"
    },
    {
      "anonymous": false,
      "inputs": [
        {
          "indexed": false,
          "internalType": "address",
          "name": "to",
          "type": "address"
        },
        {
          "indexed": false,
          "internalType": "uint256",
          "name": "amount",
          "type": "uint256"
        }
      ],
      "name": "Mint",
      "type": "event"
    },
    {
      "anonymous": false,
      "inputs": [
        {
          "indexed": false,
          "internalType": "address",
          "name": "oldGov",
          "type": "address"
        },
        {
          "indexed": false,
          "internalType": "address",
          "name": "newGov",
          "type": "address"
        }
      ],
      "name": "NewGov",
      "type": "event"
    },
    {
      "anonymous": false,
      "inputs": [
        {
          "indexed": false,
          "internalType": "address",
          "name": "oldPendingGov",
          "type": "address"
        },
        {
          "indexed": false,
          "internalType": "address",
          "name": "newPendingGov",
          "type": "address"
        }
      ],
      "name": "NewPendingGov",
      "type": "event"
    },
    {
      "inputs": [],
      "name": "_acceptGov",
      "outputs": [],
      "stateMutability": "nonpayable",
      "type": "function"
    },
    {
      "inputs": [
        {
          "internalType": "address",
          "name": "output_",
          "type": "address"
        }
      ],
      "name": "_setOutput",
      "outputs": [],
      "stateMutability": "nonpayable",
      "type": "function"
    },
    {
      "inputs": [
        {
          "internalType": "address",
          "name": "pendingGov_",
          "type": "address"
        }
      ],
      "name": "_setPendingGov",
      "outputs": [],
      "stateMutability": "nonpayable",
      "type": "function"
    },
    {
      "inputs": [],
      "name": "flip",
      "outputs": [
        {
          "internalType": "contract IERC20",
          "name": "",
          "type": "address"
        }
      ],
      "stateMutability": "view",
      "type": "function"
    },
    {
      "inputs": [],
      "name": "gov",
      "outputs": [
        {
          "internalType": "address",
          "name": "",
          "type": "address"
        }
      ],
      "stateMutability": "view",
      "type": "function"
    },
    {
      "inputs": [
        {
          "internalType": "address",
          "name": "to",
          "type": "address"
        },
        {
          "internalType": "uint256",
          "name": "amount",
          "type": "uint256"
        }
      ],
      "name": "mint",
      "outputs": [
        {
          "internalType": "bool",
          "name": "",
          "type": "bool"
        }
      ],
      "stateMutability": "nonpayable",
      "type": "function"
    },
    {
      "inputs": [],
      "name": "output",
      "outputs": [
        {
          "internalType": "address",
          "name": "",
          "type": "address"
        }
      ],
      "stateMutability": "view",
      "type": "function"
    },
    {
      "inputs": [],
      "name": "pendingGov",
      "outputs": [
        {
          "internalType": "address",
          "name": "",
          "type": "address"
        }
      ],
      "stateMutability": "view",
      "type": "function"
    },
    {
      "inputs": [],
      "name": "stflip",
      "outputs": [
        {
          "internalType": "contract stFlip",
          "name": "",
          "type": "address"
        }
      ],
      "stateMutability": "view",
      "type": "function"
    }
  ],
  "bytecode": {
    "object": "0x608060405234801561001057600080fd5b506040516105fd3803806105fd83398101604081905261002f9161009e565b600380546001600160a01b039586166001600160a01b03199182161790915560028054948616948216949094179093556000805492851692841692909217909155600480549190931691161790556100f2565b80516001600160a01b038116811461009957600080fd5b919050565b600080600080608085870312156100b457600080fd5b6100bd85610082565b93506100cb60208601610082565b92506100d960408601610082565b91506100e760608601610082565b905092959194509250565b6104fc806101016000396000f3fe608060405234801561001057600080fd5b50600436106100935760003560e01c806373f03dff1161006657806373f03dff14610108578063cde4efa91461011b578063d173e20e1461012e578063f025b20914610141578063f20eaeb81461015457600080fd5b806312d43a511461009857806325240810146100c857806340c10f19146100db5780634bda2e20146100fe575b600080fd5b6000546100ab906001600160a01b031681565b6040516001600160a01b0390911681526020015b60405180910390f35b6001546100ab906001600160a01b031681565b6100ee6100e936600461047a565b610167565b60405190151581526020016100bf565b61010661020f565b005b610106610116366004610458565b6102c4565b6004546100ab906001600160a01b031681565b61010661013c366004610458565b61033d565b6003546100ab906001600160a01b031681565b6002546100ab906001600160a01b031681565b600480546002546040516323b872dd60e01b815233938101939093526001600160a01b039081166024840152604483018490526000929116906323b872dd90606401602060405180830381600087803b1580156101c357600080fd5b505af11580156101d7573d6000803e3d6000fd5b505050506040513d601f19601f820116820180604052508101906101fb91906104a4565b506102068383610376565b50600192915050565b6001546001600160a01b031633146102585760405162461bcd60e51b81526020600482015260086024820152672170656e64696e6760c01b604482015260640160405180910390fd5b60008054600180546001600160a01b038082166001600160a01b0319808616821790965594909116909155604080519190921680825260208201939093527f1f14cfc03e486d23acee577b07bc0b3b23f4888c91fcdba5e0fef5a2549d5523910160405180910390a150565b6000546001600160a01b031633146102db57600080fd5b600180546001600160a01b038381166001600160a01b031983168117909355604080519190921680825260208201939093527f6163d5b9efd962645dd649e6e48a61bcb0f9df00997a2398b80d135a9ab0c61e91015b60405180910390a15050565b6000546001600160a01b0316331461035457600080fd5b600280546001600160a01b0319166001600160a01b0392909216919091179055565b6003546040516340c10f1960e01b81526001600160a01b03848116600483015260248201849052909116906340c10f1990604401602060405180830381600087803b1580156103c457600080fd5b505af11580156103d8573d6000803e3d6000fd5b505050506040513d601f19601f820116820180604052508101906103fc91906104a4565b50604080516001600160a01b0384168152602081018390527f0f6798a560793a54c3bcfe86a93cde1e73087d944c0ea20544137d41213968859101610331565b80356001600160a01b038116811461045357600080fd5b919050565b60006020828403121561046a57600080fd5b6104738261043c565b9392505050565b6000806040838503121561048d57600080fd5b6104968361043c565b946020939093013593505050565b6000602082840312156104b657600080fd5b8151801515811461047357600080fdfea2646970667358221220f3f8d35cc07b15de7f31bc719c4bd11c590acf3a04518fe7360d7adc0de506d064736f6c63430008070033",
    "linkReferences": {}
  },
  "methodIdentifiers": {
    "_acceptGov()": "4bda2e20",
    "_setOutput(address)": "d173e20e",
    "_setPendingGov(address)": "73f03dff",
    "flip()": "cde4efa9",
    "gov()": "12d43a51",
    "mint(address,uint256)": "40c10f19",
    "output()": "f20eaeb8",
    "pendingGov()": "25240810",
    "stflip()": "f025b209"
  },
  "id": 57
}