{
  "abi": [
    {
      "inputs": [],
      "stateMutability": "nonpayable",
      "type": "constructor"
    },
    {
      "anonymous": false,
      "inputs": [
        {
          "indexed": true,
          "internalType": "address",
          "name": "owner",
          "type": "address"
        },
        {
          "indexed": true,
          "internalType": "address",
          "name": "spender",
          "type": "address"
        },
        {
          "indexed": false,
          "internalType": "uint256",
          "name": "amount",
          "type": "uint256"
        }
      ],
      "name": "Approval",
      "type": "event"
    },
    {
      "anonymous": false,
      "inputs": [
        {
          "indexed": false,
          "internalType": "address",
          "name": "from",
          "type": "address"
        },
        {
          "indexed": false,
          "internalType": "uint256",
          "name": "amount",
          "type": "uint256"
        },
        {
          "indexed": false,
          "internalType": "address",
          "name": "refundee",
          "type": "address"
        }
      ],
      "name": "Burn",
      "type": "event"
    },
    {
      "anonymous": false,
      "inputs": [
        {
          "indexed": false,
          "internalType": "address",
          "name": "to",
          "type": "address"
        },
        {
          "indexed": false,
          "internalType": "uint256",
          "name": "amount",
          "type": "uint256"
        }
      ],
      "name": "Mint",
      "type": "event"
    },
    {
      "anonymous": false,
      "inputs": [
        {
          "indexed": false,
          "internalType": "address",
          "name": "oldBurner",
          "type": "address"
        },
        {
          "indexed": false,
          "internalType": "address",
          "name": "newBurner",
          "type": "address"
        }
      ],
      "name": "NewBurner",
      "type": "event"
    },
    {
      "anonymous": false,
      "inputs": [
        {
          "indexed": false,
          "internalType": "address",
          "name": "oldGov",
          "type": "address"
        },
        {
          "indexed": false,
          "internalType": "address",
          "name": "newGov",
          "type": "address"
        }
      ],
      "name": "NewGov",
      "type": "event"
    },
    {
      "anonymous": false,
      "inputs": [
        {
          "indexed": false,
          "internalType": "address",
          "name": "oldMinter",
          "type": "address"
        },
        {
          "indexed": false,
          "internalType": "address",
          "name": "newMinter",
          "type": "address"
        }
      ],
      "name": "NewMinter",
      "type": "event"
    },
    {
      "anonymous": false,
      "inputs": [
        {
          "indexed": false,
          "internalType": "address",
          "name": "oldPendingGov",
          "type": "address"
        },
        {
          "indexed": false,
          "internalType": "address",
          "name": "newPendingGov",
          "type": "address"
        }
      ],
      "name": "NewPendingGov",
      "type": "event"
    },
    {
      "anonymous": false,
      "inputs": [
        {
          "indexed": false,
          "internalType": "address",
          "name": "oldRebaser",
          "type": "address"
        },
        {
          "indexed": false,
          "internalType": "address",
          "name": "newRebaser",
          "type": "address"
        }
      ],
      "name": "NewRebaser",
      "type": "event"
    },
    {
      "anonymous": false,
      "inputs": [
        {
          "indexed": false,
          "internalType": "uint256",
          "name": "epoch",
          "type": "uint256"
        },
        {
          "indexed": false,
          "internalType": "uint256",
          "name": "prevYamsScalingFactor",
          "type": "uint256"
        },
        {
          "indexed": false,
          "internalType": "uint256",
          "name": "newYamsScalingFactor",
          "type": "uint256"
        }
      ],
      "name": "Rebase",
      "type": "event"
    },
    {
      "anonymous": false,
      "inputs": [
        {
          "indexed": true,
          "internalType": "address",
          "name": "from",
          "type": "address"
        },
        {
          "indexed": true,
          "internalType": "address",
          "name": "to",
          "type": "address"
        },
        {
          "indexed": false,
          "internalType": "uint256",
          "name": "amount",
          "type": "uint256"
        }
      ],
      "name": "Transfer",
      "type": "event"
    },
    {
      "inputs": [],
      "name": "BASE",
      "outputs": [
        {
          "internalType": "uint256",
          "name": "",
          "type": "uint256"
        }
      ],
      "stateMutability": "view",
      "type": "function"
    },
    {
      "inputs": [],
      "name": "DOMAIN_SEPARATOR",
      "outputs": [
        {
          "internalType": "bytes32",
          "name": "",
          "type": "bytes32"
        }
      ],
      "stateMutability": "view",
      "type": "function"
    },
    {
      "inputs": [],
      "name": "DOMAIN_TYPEHASH",
      "outputs": [
        {
          "internalType": "bytes32",
          "name": "",
          "type": "bytes32"
        }
      ],
      "stateMutability": "view",
      "type": "function"
    },
    {
      "inputs": [],
      "name": "PERMIT_TYPEHASH",
      "outputs": [
        {
          "internalType": "bytes32",
          "name": "",
          "type": "bytes32"
        }
      ],
      "stateMutability": "view",
      "type": "function"
    },
    {
      "inputs": [],
      "name": "_acceptGov",
      "outputs": [],
      "stateMutability": "nonpayable",
      "type": "function"
    },
    {
      "inputs": [
        {
          "internalType": "address",
          "name": "burner_",
          "type": "address"
        }
      ],
      "name": "_setBurner",
      "outputs": [],
      "stateMutability": "nonpayable",
      "type": "function"
    },
    {
      "inputs": [
        {
          "internalType": "address",
          "name": "minter_",
          "type": "address"
        }
      ],
      "name": "_setMinter",
      "outputs": [],
      "stateMutability": "nonpayable",
      "type": "function"
    },
    {
      "inputs": [
        {
          "internalType": "address",
          "name": "pendingGov_",
          "type": "address"
        }
      ],
      "name": "_setPendingGov",
      "outputs": [],
      "stateMutability": "nonpayable",
      "type": "function"
    },
    {
      "inputs": [
        {
          "internalType": "address",
          "name": "rebaser_",
          "type": "address"
        }
      ],
      "name": "_setRebaser",
      "outputs": [],
      "stateMutability": "nonpayable",
      "type": "function"
    },
    {
      "inputs": [
        {
          "internalType": "address",
          "name": "owner_",
          "type": "address"
        },
        {
          "internalType": "address",
          "name": "spender",
          "type": "address"
        }
      ],
      "name": "allowance",
      "outputs": [
        {
          "internalType": "uint256",
          "name": "",
          "type": "uint256"
        }
      ],
      "stateMutability": "view",
      "type": "function"
    },
    {
      "inputs": [
        {
          "internalType": "address",
          "name": "spender",
          "type": "address"
        },
        {
          "internalType": "uint256",
          "name": "value",
          "type": "uint256"
        }
      ],
      "name": "approve",
      "outputs": [
        {
          "internalType": "bool",
          "name": "",
          "type": "bool"
        }
      ],
      "stateMutability": "nonpayable",
      "type": "function"
    },
    {
      "inputs": [
        {
          "internalType": "address",
          "name": "who",
          "type": "address"
        }
      ],
      "name": "balanceOf",
      "outputs": [
        {
          "internalType": "uint256",
          "name": "",
          "type": "uint256"
        }
      ],
      "stateMutability": "view",
      "type": "function"
    },
    {
      "inputs": [
        {
          "internalType": "address",
          "name": "who",
          "type": "address"
        }
      ],
      "name": "balanceOfUnderlying",
      "outputs": [
        {
          "internalType": "uint256",
          "name": "",
          "type": "uint256"
        }
      ],
      "stateMutability": "view",
      "type": "function"
    },
    {
      "inputs": [
        {
          "internalType": "uint256",
          "name": "value",
          "type": "uint256"
        },
        {
          "internalType": "address",
          "name": "refundee",
          "type": "address"
        }
      ],
      "name": "burn",
      "outputs": [
        {
          "internalType": "bool",
          "name": "",
          "type": "bool"
        }
      ],
      "stateMutability": "nonpayable",
      "type": "function"
    },
    {
      "inputs": [],
      "name": "burner",
      "outputs": [
        {
          "internalType": "address",
          "name": "",
          "type": "address"
        }
      ],
      "stateMutability": "view",
      "type": "function"
    },
    {
      "inputs": [],
      "name": "decimals",
      "outputs": [
        {
          "internalType": "uint8",
          "name": "",
          "type": "uint8"
        }
      ],
      "stateMutability": "view",
      "type": "function"
    },
    {
      "inputs": [
        {
          "internalType": "address",
          "name": "spender",
          "type": "address"
        },
        {
          "internalType": "uint256",
          "name": "subtractedValue",
          "type": "uint256"
        }
      ],
      "name": "decreaseAllowance",
      "outputs": [
        {
          "internalType": "bool",
          "name": "",
          "type": "bool"
        }
      ],
      "stateMutability": "nonpayable",
      "type": "function"
    },
    {
      "inputs": [
        {
          "internalType": "uint256",
          "name": "value",
          "type": "uint256"
        }
      ],
      "name": "fragmentToYam",
      "outputs": [
        {
          "internalType": "uint256",
          "name": "",
          "type": "uint256"
        }
      ],
      "stateMutability": "view",
      "type": "function"
    },
    {
      "inputs": [
        {
          "internalType": "bool",
          "name": "status",
          "type": "bool"
        }
      ],
      "name": "freeze",
      "outputs": [
        {
          "internalType": "bool",
          "name": "",
          "type": "bool"
        }
      ],
      "stateMutability": "nonpayable",
      "type": "function"
    },
    {
      "inputs": [],
      "name": "frozen",
      "outputs": [
        {
          "internalType": "bool",
          "name": "",
          "type": "bool"
        }
      ],
      "stateMutability": "view",
      "type": "function"
    },
    {
      "inputs": [],
      "name": "gov",
      "outputs": [
        {
          "internalType": "address",
          "name": "",
          "type": "address"
        }
      ],
      "stateMutability": "view",
      "type": "function"
    },
    {
      "inputs": [
        {
          "internalType": "address",
          "name": "from",
          "type": "address"
        },
        {
          "internalType": "address",
          "name": "to",
          "type": "address"
        },
        {
          "internalType": "uint256",
          "name": "value",
          "type": "uint256"
        }
      ],
      "name": "govTransferFrom",
      "outputs": [
        {
          "internalType": "bool",
          "name": "",
          "type": "bool"
        }
      ],
      "stateMutability": "nonpayable",
      "type": "function"
    },
    {
      "inputs": [
        {
          "internalType": "address",
          "name": "spender",
          "type": "address"
        },
        {
          "internalType": "uint256",
          "name": "addedValue",
          "type": "uint256"
        }
      ],
      "name": "increaseAllowance",
      "outputs": [
        {
          "internalType": "bool",
          "name": "",
          "type": "bool"
        }
      ],
      "stateMutability": "nonpayable",
      "type": "function"
    },
    {
      "inputs": [],
      "name": "initSupply",
      "outputs": [
        {
          "internalType": "uint256",
          "name": "",
          "type": "uint256"
        }
      ],
      "stateMutability": "view",
      "type": "function"
    },
    {
      "inputs": [
        {
          "internalType": "string",
          "name": "name_",
          "type": "string"
        },
        {
          "internalType": "string",
          "name": "symbol_",
          "type": "string"
        },
        {
          "internalType": "uint8",
          "name": "decimals_",
          "type": "uint8"
        }
      ],
      "name": "initialize",
      "outputs": [],
      "stateMutability": "nonpayable",
      "type": "function"
    },
    {
      "inputs": [],
      "name": "internalDecimals",
      "outputs": [
        {
          "internalType": "uint256",
          "name": "",
          "type": "uint256"
        }
      ],
      "stateMutability": "view",
      "type": "function"
    },
    {
      "inputs": [],
      "name": "maxScalingFactor",
      "outputs": [
        {
          "internalType": "uint256",
          "name": "",
          "type": "uint256"
        }
      ],
      "stateMutability": "view",
      "type": "function"
    },
    {
      "inputs": [
        {
          "internalType": "address",
          "name": "to",
          "type": "address"
        },
        {
          "internalType": "uint256",
          "name": "amount",
          "type": "uint256"
        }
      ],
      "name": "mint",
      "outputs": [
        {
          "internalType": "bool",
          "name": "",
          "type": "bool"
        }
      ],
      "stateMutability": "nonpayable",
      "type": "function"
    },
    {
      "inputs": [],
      "name": "minter",
      "outputs": [
        {
          "internalType": "address",
          "name": "",
          "type": "address"
        }
      ],
      "stateMutability": "view",
      "type": "function"
    },
    {
      "inputs": [],
      "name": "name",
      "outputs": [
        {
          "internalType": "string",
          "name": "",
          "type": "string"
        }
      ],
      "stateMutability": "view",
      "type": "function"
    },
    {
      "inputs": [
        {
          "internalType": "address",
          "name": "",
          "type": "address"
        }
      ],
      "name": "nonces",
      "outputs": [
        {
          "internalType": "uint256",
          "name": "",
          "type": "uint256"
        }
      ],
      "stateMutability": "view",
      "type": "function"
    },
    {
      "inputs": [],
      "name": "pendingGov",
      "outputs": [
        {
          "internalType": "address",
          "name": "",
          "type": "address"
        }
      ],
      "stateMutability": "view",
      "type": "function"
    },
    {
      "inputs": [
        {
          "internalType": "address",
          "name": "owner",
          "type": "address"
        },
        {
          "internalType": "address",
          "name": "spender",
          "type": "address"
        },
        {
          "internalType": "uint256",
          "name": "value",
          "type": "uint256"
        },
        {
          "internalType": "uint256",
          "name": "deadline",
          "type": "uint256"
        },
        {
          "internalType": "uint8",
          "name": "v",
          "type": "uint8"
        },
        {
          "internalType": "bytes32",
          "name": "r",
          "type": "bytes32"
        },
        {
          "internalType": "bytes32",
          "name": "s",
          "type": "bytes32"
        }
      ],
      "name": "permit",
      "outputs": [],
      "stateMutability": "nonpayable",
      "type": "function"
    },
    {
      "inputs": [
        {
          "internalType": "uint256",
          "name": "epoch",
          "type": "uint256"
        },
        {
          "internalType": "uint256",
          "name": "indexDelta",
          "type": "uint256"
        },
        {
          "internalType": "bool",
          "name": "positive",
          "type": "bool"
        }
      ],
      "name": "rebase",
      "outputs": [
        {
          "internalType": "uint256",
          "name": "",
          "type": "uint256"
        }
      ],
      "stateMutability": "nonpayable",
      "type": "function"
    },
    {
      "inputs": [],
      "name": "rebaser",
      "outputs": [
        {
          "internalType": "address",
          "name": "",
          "type": "address"
        }
      ],
      "stateMutability": "view",
      "type": "function"
    },
    {
      "inputs": [
        {
          "internalType": "address",
          "name": "token",
          "type": "address"
        },
        {
          "internalType": "address",
          "name": "to",
          "type": "address"
        },
        {
          "internalType": "uint256",
          "name": "amount",
          "type": "uint256"
        }
      ],
      "name": "rescueTokens",
      "outputs": [
        {
          "internalType": "bool",
          "name": "",
          "type": "bool"
        }
      ],
      "stateMutability": "nonpayable",
      "type": "function"
    },
    {
      "inputs": [
        {
          "internalType": "uint256",
          "name": "epoch",
          "type": "uint256"
        },
        {
          "internalType": "uint256",
          "name": "value",
          "type": "uint256"
        }
      ],
      "name": "setRebase",
      "outputs": [
        {
          "internalType": "uint256",
          "name": "",
          "type": "uint256"
        }
      ],
      "stateMutability": "nonpayable",
      "type": "function"
    },
    {
      "inputs": [],
      "name": "symbol",
      "outputs": [
        {
          "internalType": "string",
          "name": "",
          "type": "string"
        }
      ],
      "stateMutability": "view",
      "type": "function"
    },
    {
      "inputs": [],
      "name": "totalSupply",
      "outputs": [
        {
          "internalType": "uint256",
          "name": "",
          "type": "uint256"
        }
      ],
      "stateMutability": "view",
      "type": "function"
    },
    {
      "inputs": [
        {
          "internalType": "address",
          "name": "to",
          "type": "address"
        },
        {
          "internalType": "uint256",
          "name": "value",
          "type": "uint256"
        }
      ],
      "name": "transfer",
      "outputs": [
        {
          "internalType": "bool",
          "name": "",
          "type": "bool"
        }
      ],
      "stateMutability": "nonpayable",
      "type": "function"
    },
    {
      "inputs": [
        {
          "internalType": "address",
          "name": "from",
          "type": "address"
        },
        {
          "internalType": "address",
          "name": "to",
          "type": "address"
        },
        {
          "internalType": "uint256",
          "name": "value",
          "type": "uint256"
        }
      ],
      "name": "transferFrom",
      "outputs": [
        {
          "internalType": "bool",
          "name": "",
          "type": "bool"
        }
      ],
      "stateMutability": "nonpayable",
      "type": "function"
    },
    {
      "inputs": [
        {
          "internalType": "uint256",
          "name": "yam",
          "type": "uint256"
        }
      ],
      "name": "yamToFragment",
      "outputs": [
        {
          "internalType": "uint256",
          "name": "",
          "type": "uint256"
        }
      ],
      "stateMutability": "view",
      "type": "function"
    },
    {
      "inputs": [],
      "name": "yamsScalingFactor",
      "outputs": [
        {
          "internalType": "uint256",
          "name": "",
          "type": "uint256"
        }
      ],
      "stateMutability": "view",
      "type": "function"
    }
  ],
  "bytecode": {
    "object": "0x6080604052670de0b6b3a7640000600a5534801561001c57600080fd5b5060068054336001600160a01b0319909116811790915560048054610100600160a81b031916610100909202919091179055611fee8061005d6000396000f3fe608060405234801561001057600080fd5b50600436106102695760003560e01c806340c10f1911610151578063aacffefb116100c3578063dd62ed3e11610087578063dd62ed3e14610577578063dee27b23146105b0578063ec342ad0146105c3578063f18d9b63146105d2578063fa8f3455146105e5578063fcd3533c146105f857600080fd5b8063aacffefb14610522578063b5bf15e514610535578063b6fa857614610548578063cea9d26f14610551578063d505accf1461056457600080fd5b80637af548c1116101155780637af548c1146104b85780637ecebe00146104cb57806395d89b41146104eb57806397d63f93146104f3578063a457c2d7146104fc578063a9059cbb1461050f57600080fd5b806340c10f19146104665780634bda2e201461047957806364dd48f51461048157806370a082311461049257806373f03dff146104a557600080fd5b806320606b70116101ea57806330adf81f116101ae57806330adf81f146103c8578063313ce567146103ef57806334c176b01461040e5780633644e51514610421578063395093511461042a5780633af9e6691461043d57600080fd5b806320606b70146103555780632373f0911461037c57806323b872dd1461038f57806325240810146103a257806327810b6e146103b557600080fd5b806311d3e6c41161023157806311d3e6c41461030457806311fd8a831461030c57806312d43a511461031f5780631624f6c61461033757806318160ddd1461034c57600080fd5b8063054f7d9c1461026e57806306fdde031461029057806307546172146102a5578063095ea7b3146102d057806309c86403146102e3575b600080fd5b600e5461027b9060ff1681565b60405190151581526020015b60405180910390f35b61029861060b565b6040516102879190611dd2565b6008546102b8906001600160a01b031681565b6040516001600160a01b039091168152602001610287565b61027b6102de366004611c47565b610699565b6102f66102f1366004611d1f565b6106f4565b604051908152602001610287565b6102f66106ff565b6006546102b8906001600160a01b031681565b6004546102b89061010090046001600160a01b031681565b61034a610345366004611cab565b61070e565b005b6102f660095481565b6102f67f8cad95687ba82c2ce50e74f7b754645e5117c3a5bec8151c0726d5857980a86681565b61034a61038a366004611b53565b6107be565b61027b61039d366004611ba1565b610839565b6005546102b8906001600160a01b031681565b6007546102b8906001600160a01b031681565b6102f67f6e71edae12b1b97f4d1f60370fef10105fa2faae0126114a169c64845d6126c981565b6004546103fc9060ff1681565b60405160ff9091168152602001610287565b61034a61041c366004611b53565b610991565b6102f6600f5481565b61027b610438366004611c47565b610a07565b6102f661044b366004611b53565b6001600160a01b03166000908152600b602052604090205490565b61027b610474366004611c47565b610aa0565b61034a610b17565b6102f669d3c21bcecceda100000081565b6102f66104a0366004611b53565b610bdd565b61034a6104b3366004611b53565b610bff565b6102f66104c6366004611d7d565b610c75565b6102f66104d9366004611b53565b60006020819052908152604090205481565b610298610d96565b6102f6600d5481565b61027b61050a366004611c47565b610da3565b61027b61051d366004611c47565b610e9e565b6102f6610530366004611d5b565b610f93565b61027b610543366004611c71565b611065565b6102f6600a5481565b61027b61055f366004611ba1565b61109b565b61034a610572366004611bdd565b6110cf565b6102f6610585366004611b6e565b6001600160a01b039182166000908152600c6020908152604080832093909416825291909152205490565b61027b6105be366004611ba1565b611371565b6102f6670de0b6b3a764000081565b6102f66105e0366004611d1f565b6113c4565b61034a6105f3366004611b53565b6113cf565b61027b610606366004611d38565b611445565b6002805461061890611ec5565b80601f016020809104026020016040519081016040528092919081815260200182805461064490611ec5565b80156106915780601f1061066657610100808354040283529160200191610691565b820191906000526020600020905b81548152906001019060200180831161067457829003601f168201915b505050505081565b336000818152600c602090815260408083206001600160a01b03871680855292528083208590555191929091600080516020611f99833981519152906106e29086815260200190565b60405180910390a35060015b92915050565b60006106ee82611475565b6000610709611493565b905090565b60045461010090046001600160a01b0316331461072a57600080fd5b670de0b6b3a7640000600a541461077e5760405162461bcd60e51b8152602060048201526013602482015272185b1c9958591e481a5b9a5d1a585b1a5e9959606a1b60448201526064015b60405180910390fd5b8251610791906002906020860190611a05565b5081516107a5906003906020850190611a05565b506004805460ff191660ff929092169190911790555050565b60045461010090046001600160a01b031633146107da57600080fd5b600880546001600160a01b0319166001600160a01b03831690811790915560408051828152602081019290925282917f0b5e7be615a67a819aff3f47c967d1535cead1b98db60fafdcbf22dcaa8fa5a991015b60405180910390a15050565b6000826001600160a01b03811661084f57600080fd5b6001600160a01b03811630141561086557600080fd5b600e5460ff16156108885760405162461bcd60e51b815260040161077590611e05565b6001600160a01b0385166000908152600c602090815260408083203384529091529020546108b690846114a5565b6001600160a01b0386166000908152600c602090815260408083203384529091528120919091556108e684611475565b6001600160a01b0387166000908152600b602052604090205490915061090c90826114a5565b6001600160a01b038088166000908152600b6020526040808220939093559087168152205461093b90826114b1565b6001600160a01b038087166000818152600b60205260409081902093909355915190881690600080516020611f798339815191529061097d9088815260200190565b60405180910390a350600195945050505050565b60045461010090046001600160a01b031633146109ad57600080fd5b600780546001600160a01b038381166001600160a01b031983168117909355604080519190921680825260208201939093527fac2c06b3d791902c7614efa70f7dd28e256a2c15bb89b24bfaab6d52423483a8910161082d565b600e5460009060ff1615610a2d5760405162461bcd60e51b815260040161077590611e05565b336000908152600c602090815260408083206001600160a01b0387168452909152902054610a5b90836114b1565b336000818152600c602090815260408083206001600160a01b03891680855290835292819020859055519384529092600080516020611f9983398151915291016106e2565b60045460009061010090046001600160a01b0316331480610acb57506008546001600160a01b031633145b610b045760405162461bcd60e51b815260206004820152600a6024820152693737ba1036b4b73a32b960b11b6044820152606401610775565b610b0e83836114bd565b50600192915050565b6005546001600160a01b03163314610b5c5760405162461bcd60e51b81526020600482015260086024820152672170656e64696e6760c01b6044820152606401610775565b60048054600580546001600160a01b03808216610100908102610100600160a81b0319861617958690556001600160a01b031990921690925560408051938290048316808552919094049091166020830152917f1f14cfc03e486d23acee577b07bc0b3b23f4888c91fcdba5e0fef5a2549d5523910160405180910390a150565b6001600160a01b0381166000908152600b60205260408120546106ee906115f2565b60045461010090046001600160a01b03163314610c1b57600080fd5b600580546001600160a01b038381166001600160a01b031983168117909355604080519190921680825260208201939093527f6163d5b9efd962645dd649e6e48a61bcb0f9df00997a2398b80d135a9ab0c61e910161082d565b6006546000906001600160a01b03163314610c8f57600080fd5b82610cce57600a5460408051868152602081018390528082019290925251600080516020611f598339815191529181900360600190a150600954610d8f565b600a5482610d0657610cfe670de0b6b3a7640000610cf8610cef82886114a5565b600a5490611617565b90611623565b600a55610d4a565b6000610d21670de0b6b3a7640000610cf8610cef82896114b1565b9050610d2b611493565b811015610d3c57600a819055610d48565b610d44611493565b600a555b505b610d55600d546115f2565b600955600a5460408051878152602081018490528082019290925251600080516020611f598339815191529181900360600190a150506009545b9392505050565b6003805461061890611ec5565b600e5460009060ff1615610dc95760405162461bcd60e51b815260040161077590611e05565b336000908152600c602090815260408083206001600160a01b0387168452909152902054808310610e1d57336000908152600c602090815260408083206001600160a01b0388168452909152812055610e4c565b610e2781846114a5565b336000908152600c602090815260408083206001600160a01b03891684529091529020555b336000818152600c602090815260408083206001600160a01b03891680855290835292819020549051908152919291600080516020611f99833981519152910160405180910390a35060019392505050565b6000826001600160a01b038116610eb457600080fd5b6001600160a01b038116301415610eca57600080fd5b600e5460ff1615610eed5760405162461bcd60e51b815260040161077590611e05565b6000610ef884611475565b336000908152600b6020526040902054909150610f1590826114a5565b336000908152600b6020526040808220929092556001600160a01b03871681522054610f4190826114b1565b6001600160a01b0386166000818152600b6020526040908190209290925590513390600080516020611f7983398151915290610f809088815260200190565b60405180910390a3506001949350505050565b6006546000906001600160a01b03163314610fad57600080fd5b600a54821415610ff157600a5460408051858152602081018390528082019290925251600080516020611f598339815191529181900360600190a1506009546106ee565b600a5482610ffd611493565b81101561100e57600a84905561101a565b611016611493565b600a555b611025600d546115f2565b600955600a5460408051878152602081018590528082019290925251600080516020611f598339815191529181900360600190a150506009549392505050565b60045460009061010090046001600160a01b0316331461108457600080fd5b50600e805460ff191682151517905560015b919050565b60045460009061010090046001600160a01b031633146110ba57600080fd5b6110c584848461162f565b5060019392505050565b600e5460ff16156110f25760405162461bcd60e51b815260040161077590611e05565b834211156111375760405162461bcd60e51b81526020600482015260126024820152711650534bdc195c9b5a5d0b595e1c1a5c995960721b6044820152606401610775565b600f546001600160a01b038816600090815260208190526040812080549192917f6e71edae12b1b97f4d1f60370fef10105fa2faae0126114a169c64845d6126c9918b918b918b91908761118a83611f00565b909155506040805160208101969096526001600160a01b0394851690860152929091166060840152608083015260a082015260c0810187905260e0016040516020818303038152906040528051906020012060405160200161120392919061190160f01b81526002810192909252602282015260420190565b60408051601f19818403018152919052805160209091012090506001600160a01b03881661126b5760405162461bcd60e51b8152602060048201526015602482015274059414d2f696e76616c69642d616464726573732d3605c1b6044820152606401610775565b60408051600081526020810180835283905260ff861691810191909152606081018490526080810183905260019060a0016020604051602081039080840390855afa1580156112be573d6000803e3d6000fd5b505050602060405103516001600160a01b0316886001600160a01b03161461131d5760405162461bcd60e51b81526020600482015260126024820152711650534bda5b9d985b1a590b5c195c9b5a5d60721b6044820152606401610775565b6001600160a01b038881166000818152600c60209081526040808320948c16808452948252918290208a90559051898152600080516020611f99833981519152910160405180910390a35050505050505050565b6000826001600160a01b03811661138757600080fd5b6001600160a01b03811630141561139d57600080fd5b60045461010090046001600160a01b031633146113b957600080fd5b60006108e684611475565b60006106ee826115f2565b60045461010090046001600160a01b031633146113eb57600080fd5b600680546001600160a01b038381166001600160a01b031983168117909355604080519190921680825260208201939093527f51f448520e2183de499e224808a409ee01a1f380edb2e8497572320c15030545910161082d565b600e5460009060ff161561146b5760405162461bcd60e51b815260040161077590611e05565b610b0e8383611686565b600a546000906106ee90610cf88469d3c21bcecceda1000000611617565b6000600d546000196107099190611e3d565b6000610d8f8284611e7e565b6000610d8f8284611e25565b6009546114ca90826114b1565b60095560006114d882611475565b600d549091506114e890826114b1565b600d556114f3611493565b600a5411156115445760405162461bcd60e51b815260206004820152601a60248201527f6d6178207363616c696e6720666163746f7220746f6f206c6f770000000000006044820152606401610775565b6001600160a01b0383166000908152600b602052604090205461156790826114b1565b6001600160a01b0384166000818152600b60209081526040918290209390935580519182529181018490527f0f6798a560793a54c3bcfe86a93cde1e73087d944c0ea20544137d4121396885910160405180910390a16040518281526001600160a01b03841690600090600080516020611f79833981519152906020015b60405180910390a3505050565b60006106ee69d3c21bcecceda1000000610cf8600a548561161790919063ffffffff16565b6000610d8f8284611e5f565b6000610d8f8284611e3d565b604080516001600160a01b038416602482015260448082018490528251808303909101815260649091019091526020810180516001600160e01b031663a9059cbb60e01b1790526116819084906117a6565b505050565b60095461169390836114a5565b60095560006116a183611475565b600d549091506116b190826114a5565b600d556116bc611493565b600a54111561170d5760405162461bcd60e51b815260206004820152601a60248201527f6d6178207363616c696e6720666163746f7220746f6f206c6f770000000000006044820152606401610775565b336000908152600b602052604090205461172790826114a5565b336000818152600b60209081526040918290209390935580519182529181018590526001600160a01b0384168183015290517fdbdf9b8e4b75e75b162d151ec8fc7f0561cabab5fcccfa2600be62223e4300c49181900360600190a16040518381526000903390600080516020611f79833981519152906020016115e5565b60006117fb826040518060400160405280602081526020017f5361666545524332303a206c6f772d6c6576656c2063616c6c206661696c6564815250856001600160a01b03166118789092919063ffffffff16565b80519091501561168157808060200190518101906118199190611c8e565b6116815760405162461bcd60e51b815260206004820152602a60248201527f5361666545524332303a204552433230206f7065726174696f6e20646964206e6044820152691bdd081cdd58d8d9595960b21b6064820152608401610775565b6060611887848460008561188f565b949350505050565b6060824710156118f05760405162461bcd60e51b815260206004820152602660248201527f416464726573733a20696e73756666696369656e742062616c616e636520666f6044820152651c8818d85b1b60d21b6064820152608401610775565b600080866001600160a01b0316858760405161190c9190611db6565b60006040518083038185875af1925050503d8060008114611949576040519150601f19603f3d011682016040523d82523d6000602084013e61194e565b606091505b509150915061195f8783838761196a565b979650505050505050565b606083156119d65782516119cf576001600160a01b0385163b6119cf5760405162461bcd60e51b815260206004820152601d60248201527f416464726573733a2063616c6c20746f206e6f6e2d636f6e74726163740000006044820152606401610775565b5081611887565b61188783838151156119eb5781518083602001fd5b8060405162461bcd60e51b81526004016107759190611dd2565b828054611a1190611ec5565b90600052602060002090601f016020900481019282611a335760008555611a79565b82601f10611a4c57805160ff1916838001178555611a79565b82800160010185558215611a79579182015b82811115611a79578251825591602001919060010190611a5e565b50611a85929150611a89565b5090565b5b80821115611a855760008155600101611a8a565b80356001600160a01b038116811461109657600080fd5b600082601f830112611ac657600080fd5b813567ffffffffffffffff80821115611ae157611ae1611f31565b604051601f8301601f19908116603f01168101908282118183101715611b0957611b09611f31565b81604052838152866020858801011115611b2257600080fd5b836020870160208301376000602085830101528094505050505092915050565b803560ff8116811461109657600080fd5b600060208284031215611b6557600080fd5b610d8f82611a9e565b60008060408385031215611b8157600080fd5b611b8a83611a9e565b9150611b9860208401611a9e565b90509250929050565b600080600060608486031215611bb657600080fd5b611bbf84611a9e565b9250611bcd60208501611a9e565b9150604084013590509250925092565b600080600080600080600060e0888a031215611bf857600080fd5b611c0188611a9e565b9650611c0f60208901611a9e565b95506040880135945060608801359350611c2b60808901611b42565b925060a0880135915060c0880135905092959891949750929550565b60008060408385031215611c5a57600080fd5b611c6383611a9e565b946020939093013593505050565b600060208284031215611c8357600080fd5b8135610d8f81611f47565b600060208284031215611ca057600080fd5b8151610d8f81611f47565b600080600060608486031215611cc057600080fd5b833567ffffffffffffffff80821115611cd857600080fd5b611ce487838801611ab5565b94506020860135915080821115611cfa57600080fd5b50611d0786828701611ab5565b925050611d1660408501611b42565b90509250925092565b600060208284031215611d3157600080fd5b5035919050565b60008060408385031215611d4b57600080fd5b82359150611b9860208401611a9e565b60008060408385031215611d6e57600080fd5b50508035926020909101359150565b600080600060608486031215611d9257600080fd5b83359250602084013591506040840135611dab81611f47565b809150509250925092565b60008251611dc8818460208701611e95565b9190910192915050565b6020815260008251806020840152611df1816040850160208701611e95565b601f01601f19169190910160400192915050565b602080825260069082015265333937bd32b760d11b604082015260600190565b60008219821115611e3857611e38611f1b565b500190565b600082611e5a57634e487b7160e01b600052601260045260246000fd5b500490565b6000816000190483118215151615611e7957611e79611f1b565b500290565b600082821015611e9057611e90611f1b565b500390565b60005b83811015611eb0578181015183820152602001611e98565b83811115611ebf576000848401525b50505050565b600181811c90821680611ed957607f821691505b60208210811415611efa57634e487b7160e01b600052602260045260246000fd5b50919050565b6000600019821415611f1457611f14611f1b565b5060010190565b634e487b7160e01b600052601160045260246000fd5b634e487b7160e01b600052604160045260246000fd5b8015158114611f5557600080fd5b5056fec6642d24d84e7f3d36ca39f5cce10e75639d9b158d5193aa350e2f900653e4c0ddf252ad1be2c89b69c2b068fc378daa952ba7f163c4a11628f55a4df523b3ef8c5be1e5ebec7d5bd14f71427d1e84f3dd0314c0f7b2291e5b200ac8c7c3b925a2646970667358221220aaad60e575b9897afb1454341c70f2ddebc199e1df36cfbc58539d8cdd8c933064736f6c63430008070033",
    "linkReferences": {}
  },
  "methodIdentifiers": {
    "BASE()": "ec342ad0",
    "DOMAIN_SEPARATOR()": "3644e515",
    "DOMAIN_TYPEHASH()": "20606b70",
    "PERMIT_TYPEHASH()": "30adf81f",
    "_acceptGov()": "4bda2e20",
    "_setBurner(address)": "34c176b0",
    "_setMinter(address)": "2373f091",
    "_setPendingGov(address)": "73f03dff",
    "_setRebaser(address)": "fa8f3455",
    "allowance(address,address)": "dd62ed3e",
    "approve(address,uint256)": "095ea7b3",
    "balanceOf(address)": "70a08231",
    "balanceOfUnderlying(address)": "3af9e669",
    "burn(uint256,address)": "fcd3533c",
    "burner()": "27810b6e",
    "decimals()": "313ce567",
    "decreaseAllowance(address,uint256)": "a457c2d7",
    "fragmentToYam(uint256)": "09c86403",
    "freeze(bool)": "b5bf15e5",
    "frozen()": "054f7d9c",
    "gov()": "12d43a51",
    "govTransferFrom(address,address,uint256)": "dee27b23",
    "increaseAllowance(address,uint256)": "39509351",
    "initSupply()": "97d63f93",
    "initialize(string,string,uint8)": "1624f6c6",
    "internalDecimals()": "64dd48f5",
    "maxScalingFactor()": "11d3e6c4",
    "mint(address,uint256)": "40c10f19",
    "minter()": "07546172",
    "name()": "06fdde03",
    "nonces(address)": "7ecebe00",
    "pendingGov()": "25240810",
    "permit(address,address,uint256,uint256,uint8,bytes32,bytes32)": "d505accf",
    "rebase(uint256,uint256,bool)": "7af548c1",
    "rebaser()": "11fd8a83",
    "rescueTokens(address,address,uint256)": "cea9d26f",
    "setRebase(uint256,uint256)": "aacffefb",
    "symbol()": "95d89b41",
    "totalSupply()": "18160ddd",
    "transfer(address,uint256)": "a9059cbb",
    "transferFrom(address,address,uint256)": "23b872dd",
    "yamToFragment(uint256)": "f18d9b63",
    "yamsScalingFactor()": "b6fa8576"
  },
  "id": 53
}