{
  "abi": [
    {
      "anonymous": false,
      "inputs": [
        {
          "indexed": true,
          "internalType": "address",
          "name": "owner",
          "type": "address"
        },
        {
          "indexed": true,
          "internalType": "address",
          "name": "spender",
          "type": "address"
        },
        {
          "indexed": false,
          "internalType": "uint256",
          "name": "amount",
          "type": "uint256"
        }
      ],
      "name": "Approval",
      "type": "event"
    },
    {
      "anonymous": false,
      "inputs": [
        {
          "indexed": false,
          "internalType": "address",
          "name": "from",
          "type": "address"
        },
        {
          "indexed": false,
          "internalType": "uint256",
          "name": "amount",
          "type": "uint256"
        },
        {
          "indexed": false,
          "internalType": "address",
          "name": "refundee",
          "type": "address"
        }
      ],
      "name": "Burn",
      "type": "event"
    },
    {
      "anonymous": false,
      "inputs": [
        {
          "indexed": false,
          "internalType": "address",
          "name": "to",
          "type": "address"
        },
        {
          "indexed": false,
          "internalType": "uint256",
          "name": "amount",
          "type": "uint256"
        }
      ],
      "name": "Mint",
      "type": "event"
    },
    {
      "anonymous": false,
      "inputs": [
        {
          "indexed": false,
          "internalType": "address",
          "name": "oldBurner",
          "type": "address"
        },
        {
          "indexed": false,
          "internalType": "address",
          "name": "newBurner",
          "type": "address"
        }
      ],
      "name": "NewBurner",
      "type": "event"
    },
    {
      "anonymous": false,
      "inputs": [
        {
          "indexed": false,
          "internalType": "address",
          "name": "oldGov",
          "type": "address"
        },
        {
          "indexed": false,
          "internalType": "address",
          "name": "newGov",
          "type": "address"
        }
      ],
      "name": "NewGov",
      "type": "event"
    },
    {
      "anonymous": false,
      "inputs": [
        {
          "indexed": false,
          "internalType": "address",
          "name": "oldMinter",
          "type": "address"
        },
        {
          "indexed": false,
          "internalType": "address",
          "name": "newMinter",
          "type": "address"
        }
      ],
      "name": "NewMinter",
      "type": "event"
    },
    {
      "anonymous": false,
      "inputs": [
        {
          "indexed": false,
          "internalType": "address",
          "name": "oldPendingGov",
          "type": "address"
        },
        {
          "indexed": false,
          "internalType": "address",
          "name": "newPendingGov",
          "type": "address"
        }
      ],
      "name": "NewPendingGov",
      "type": "event"
    },
    {
      "anonymous": false,
      "inputs": [
        {
          "indexed": false,
          "internalType": "address",
          "name": "oldRebaser",
          "type": "address"
        },
        {
          "indexed": false,
          "internalType": "address",
          "name": "newRebaser",
          "type": "address"
        }
      ],
      "name": "NewRebaser",
      "type": "event"
    },
    {
      "anonymous": false,
      "inputs": [
        {
          "indexed": false,
          "internalType": "uint256",
          "name": "epoch",
          "type": "uint256"
        },
        {
          "indexed": false,
          "internalType": "uint256",
          "name": "prevYamsScalingFactor",
          "type": "uint256"
        },
        {
          "indexed": false,
          "internalType": "uint256",
          "name": "newYamsScalingFactor",
          "type": "uint256"
        }
      ],
      "name": "Rebase",
      "type": "event"
    },
    {
      "anonymous": false,
      "inputs": [
        {
          "indexed": true,
          "internalType": "address",
          "name": "from",
          "type": "address"
        },
        {
          "indexed": true,
          "internalType": "address",
          "name": "to",
          "type": "address"
        },
        {
          "indexed": false,
          "internalType": "uint256",
          "name": "amount",
          "type": "uint256"
        }
      ],
      "name": "Transfer",
      "type": "event"
    },
    {
      "inputs": [],
      "name": "BASE",
      "outputs": [
        {
          "internalType": "uint256",
          "name": "",
          "type": "uint256"
        }
      ],
      "stateMutability": "view",
      "type": "function"
    },
    {
      "inputs": [],
      "name": "DOMAIN_SEPARATOR",
      "outputs": [
        {
          "internalType": "bytes32",
          "name": "",
          "type": "bytes32"
        }
      ],
      "stateMutability": "view",
      "type": "function"
    },
    {
      "inputs": [],
      "name": "DOMAIN_TYPEHASH",
      "outputs": [
        {
          "internalType": "bytes32",
          "name": "",
          "type": "bytes32"
        }
      ],
      "stateMutability": "view",
      "type": "function"
    },
    {
      "inputs": [],
      "name": "PERMIT_TYPEHASH",
      "outputs": [
        {
          "internalType": "bytes32",
          "name": "",
          "type": "bytes32"
        }
      ],
      "stateMutability": "view",
      "type": "function"
    },
    {
      "inputs": [],
      "name": "_acceptGov",
      "outputs": [],
      "stateMutability": "nonpayable",
      "type": "function"
    },
    {
      "inputs": [
        {
          "internalType": "address",
          "name": "burner_",
          "type": "address"
        }
      ],
      "name": "_setBurner",
      "outputs": [],
      "stateMutability": "nonpayable",
      "type": "function"
    },
    {
      "inputs": [
        {
          "internalType": "address",
          "name": "minter_",
          "type": "address"
        }
      ],
      "name": "_setMinter",
      "outputs": [],
      "stateMutability": "nonpayable",
      "type": "function"
    },
    {
      "inputs": [
        {
          "internalType": "address",
          "name": "pendingGov_",
          "type": "address"
        }
      ],
      "name": "_setPendingGov",
      "outputs": [],
      "stateMutability": "nonpayable",
      "type": "function"
    },
    {
      "inputs": [
        {
          "internalType": "address",
          "name": "rebaser_",
          "type": "address"
        }
      ],
      "name": "_setRebaser",
      "outputs": [],
      "stateMutability": "nonpayable",
      "type": "function"
    },
    {
      "inputs": [
        {
          "internalType": "address",
          "name": "owner_",
          "type": "address"
        },
        {
          "internalType": "address",
          "name": "spender",
          "type": "address"
        }
      ],
      "name": "allowance",
      "outputs": [
        {
          "internalType": "uint256",
          "name": "",
          "type": "uint256"
        }
      ],
      "stateMutability": "view",
      "type": "function"
    },
    {
      "inputs": [
        {
          "internalType": "address",
          "name": "spender",
          "type": "address"
        },
        {
          "internalType": "uint256",
          "name": "value",
          "type": "uint256"
        }
      ],
      "name": "approve",
      "outputs": [
        {
          "internalType": "bool",
          "name": "",
          "type": "bool"
        }
      ],
      "stateMutability": "nonpayable",
      "type": "function"
    },
    {
      "inputs": [
        {
          "internalType": "address",
          "name": "who",
          "type": "address"
        }
      ],
      "name": "balanceOf",
      "outputs": [
        {
          "internalType": "uint256",
          "name": "",
          "type": "uint256"
        }
      ],
      "stateMutability": "view",
      "type": "function"
    },
    {
      "inputs": [
        {
          "internalType": "address",
          "name": "who",
          "type": "address"
        }
      ],
      "name": "balanceOfUnderlying",
      "outputs": [
        {
          "internalType": "uint256",
          "name": "",
          "type": "uint256"
        }
      ],
      "stateMutability": "view",
      "type": "function"
    },
    {
      "inputs": [
        {
          "internalType": "uint256",
          "name": "value",
          "type": "uint256"
        },
        {
          "internalType": "address",
          "name": "refundee",
          "type": "address"
        }
      ],
      "name": "burn",
      "outputs": [
        {
          "internalType": "bool",
          "name": "",
          "type": "bool"
        }
      ],
      "stateMutability": "nonpayable",
      "type": "function"
    },
    {
      "inputs": [],
      "name": "burner",
      "outputs": [
        {
          "internalType": "address",
          "name": "",
          "type": "address"
        }
      ],
      "stateMutability": "view",
      "type": "function"
    },
    {
      "inputs": [],
      "name": "decimals",
      "outputs": [
        {
          "internalType": "uint8",
          "name": "",
          "type": "uint8"
        }
      ],
      "stateMutability": "view",
      "type": "function"
    },
    {
      "inputs": [
        {
          "internalType": "address",
          "name": "spender",
          "type": "address"
        },
        {
          "internalType": "uint256",
          "name": "subtractedValue",
          "type": "uint256"
        }
      ],
      "name": "decreaseAllowance",
      "outputs": [
        {
          "internalType": "bool",
          "name": "",
          "type": "bool"
        }
      ],
      "stateMutability": "nonpayable",
      "type": "function"
    },
    {
      "inputs": [
        {
          "internalType": "uint256",
          "name": "value",
          "type": "uint256"
        }
      ],
      "name": "fragmentToYam",
      "outputs": [
        {
          "internalType": "uint256",
          "name": "",
          "type": "uint256"
        }
      ],
      "stateMutability": "view",
      "type": "function"
    },
    {
      "inputs": [
        {
          "internalType": "bool",
          "name": "status",
          "type": "bool"
        }
      ],
      "name": "freeze",
      "outputs": [
        {
          "internalType": "bool",
          "name": "",
          "type": "bool"
        }
      ],
      "stateMutability": "nonpayable",
      "type": "function"
    },
    {
      "inputs": [],
      "name": "frozen",
      "outputs": [
        {
          "internalType": "bool",
          "name": "",
          "type": "bool"
        }
      ],
      "stateMutability": "view",
      "type": "function"
    },
    {
      "inputs": [],
      "name": "gov",
      "outputs": [
        {
          "internalType": "address",
          "name": "",
          "type": "address"
        }
      ],
      "stateMutability": "view",
      "type": "function"
    },
    {
      "inputs": [
        {
          "internalType": "address",
          "name": "from",
          "type": "address"
        },
        {
          "internalType": "address",
          "name": "to",
          "type": "address"
        },
        {
          "internalType": "uint256",
          "name": "value",
          "type": "uint256"
        }
      ],
      "name": "govTransferFrom",
      "outputs": [
        {
          "internalType": "bool",
          "name": "",
          "type": "bool"
        }
      ],
      "stateMutability": "nonpayable",
      "type": "function"
    },
    {
      "inputs": [
        {
          "internalType": "address",
          "name": "spender",
          "type": "address"
        },
        {
          "internalType": "uint256",
          "name": "addedValue",
          "type": "uint256"
        }
      ],
      "name": "increaseAllowance",
      "outputs": [
        {
          "internalType": "bool",
          "name": "",
          "type": "bool"
        }
      ],
      "stateMutability": "nonpayable",
      "type": "function"
    },
    {
      "inputs": [],
      "name": "initSupply",
      "outputs": [
        {
          "internalType": "uint256",
          "name": "",
          "type": "uint256"
        }
      ],
      "stateMutability": "view",
      "type": "function"
    },
    {
      "inputs": [
        {
          "internalType": "string",
          "name": "name_",
          "type": "string"
        },
        {
          "internalType": "string",
          "name": "symbol_",
          "type": "string"
        },
        {
          "internalType": "uint8",
          "name": "decimals_",
          "type": "uint8"
        }
      ],
      "name": "initialize",
      "outputs": [],
      "stateMutability": "nonpayable",
      "type": "function"
    },
    {
      "inputs": [
        {
          "internalType": "string",
          "name": "name_",
          "type": "string"
        },
        {
          "internalType": "string",
          "name": "symbol_",
          "type": "string"
        },
        {
          "internalType": "uint8",
          "name": "decimals_",
          "type": "uint8"
        },
        {
          "internalType": "address",
          "name": "initial_owner",
          "type": "address"
        },
        {
          "internalType": "uint256",
          "name": "initTotalSupply_",
          "type": "uint256"
        }
      ],
      "name": "initialize",
      "outputs": [],
      "stateMutability": "nonpayable",
      "type": "function"
    },
    {
      "inputs": [],
      "name": "internalDecimals",
      "outputs": [
        {
          "internalType": "uint256",
          "name": "",
          "type": "uint256"
        }
      ],
      "stateMutability": "view",
      "type": "function"
    },
    {
      "inputs": [],
      "name": "maxScalingFactor",
      "outputs": [
        {
          "internalType": "uint256",
          "name": "",
          "type": "uint256"
        }
      ],
      "stateMutability": "view",
      "type": "function"
    },
    {
      "inputs": [
        {
          "internalType": "address",
          "name": "to",
          "type": "address"
        },
        {
          "internalType": "uint256",
          "name": "amount",
          "type": "uint256"
        }
      ],
      "name": "mint",
      "outputs": [
        {
          "internalType": "bool",
          "name": "",
          "type": "bool"
        }
      ],
      "stateMutability": "nonpayable",
      "type": "function"
    },
    {
      "inputs": [],
      "name": "minter",
      "outputs": [
        {
          "internalType": "address",
          "name": "",
          "type": "address"
        }
      ],
      "stateMutability": "view",
      "type": "function"
    },
    {
      "inputs": [],
      "name": "name",
      "outputs": [
        {
          "internalType": "string",
          "name": "",
          "type": "string"
        }
      ],
      "stateMutability": "view",
      "type": "function"
    },
    {
      "inputs": [
        {
          "internalType": "address",
          "name": "",
          "type": "address"
        }
      ],
      "name": "nonces",
      "outputs": [
        {
          "internalType": "uint256",
          "name": "",
          "type": "uint256"
        }
      ],
      "stateMutability": "view",
      "type": "function"
    },
    {
      "inputs": [],
      "name": "pendingGov",
      "outputs": [
        {
          "internalType": "address",
          "name": "",
          "type": "address"
        }
      ],
      "stateMutability": "view",
      "type": "function"
    },
    {
      "inputs": [
        {
          "internalType": "address",
          "name": "owner",
          "type": "address"
        },
        {
          "internalType": "address",
          "name": "spender",
          "type": "address"
        },
        {
          "internalType": "uint256",
          "name": "value",
          "type": "uint256"
        },
        {
          "internalType": "uint256",
          "name": "deadline",
          "type": "uint256"
        },
        {
          "internalType": "uint8",
          "name": "v",
          "type": "uint8"
        },
        {
          "internalType": "bytes32",
          "name": "r",
          "type": "bytes32"
        },
        {
          "internalType": "bytes32",
          "name": "s",
          "type": "bytes32"
        }
      ],
      "name": "permit",
      "outputs": [],
      "stateMutability": "nonpayable",
      "type": "function"
    },
    {
      "inputs": [
        {
          "internalType": "uint256",
          "name": "epoch",
          "type": "uint256"
        },
        {
          "internalType": "uint256",
          "name": "indexDelta",
          "type": "uint256"
        },
        {
          "internalType": "bool",
          "name": "positive",
          "type": "bool"
        }
      ],
      "name": "rebase",
      "outputs": [
        {
          "internalType": "uint256",
          "name": "",
          "type": "uint256"
        }
      ],
      "stateMutability": "nonpayable",
      "type": "function"
    },
    {
      "inputs": [],
      "name": "rebaser",
      "outputs": [
        {
          "internalType": "address",
          "name": "",
          "type": "address"
        }
      ],
      "stateMutability": "view",
      "type": "function"
    },
    {
      "inputs": [
        {
          "internalType": "address",
          "name": "token",
          "type": "address"
        },
        {
          "internalType": "address",
          "name": "to",
          "type": "address"
        },
        {
          "internalType": "uint256",
          "name": "amount",
          "type": "uint256"
        }
      ],
      "name": "rescueTokens",
      "outputs": [
        {
          "internalType": "bool",
          "name": "",
          "type": "bool"
        }
      ],
      "stateMutability": "nonpayable",
      "type": "function"
    },
    {
      "inputs": [
        {
          "internalType": "uint256",
          "name": "epoch",
          "type": "uint256"
        },
        {
          "internalType": "uint256",
          "name": "value",
          "type": "uint256"
        }
      ],
      "name": "setRebase",
      "outputs": [
        {
          "internalType": "uint256",
          "name": "",
          "type": "uint256"
        }
      ],
      "stateMutability": "nonpayable",
      "type": "function"
    },
    {
      "inputs": [],
      "name": "symbol",
      "outputs": [
        {
          "internalType": "string",
          "name": "",
          "type": "string"
        }
      ],
      "stateMutability": "view",
      "type": "function"
    },
    {
      "inputs": [],
      "name": "totalSupply",
      "outputs": [
        {
          "internalType": "uint256",
          "name": "",
          "type": "uint256"
        }
      ],
      "stateMutability": "view",
      "type": "function"
    },
    {
      "inputs": [
        {
          "internalType": "address",
          "name": "to",
          "type": "address"
        },
        {
          "internalType": "uint256",
          "name": "value",
          "type": "uint256"
        }
      ],
      "name": "transfer",
      "outputs": [
        {
          "internalType": "bool",
          "name": "",
          "type": "bool"
        }
      ],
      "stateMutability": "nonpayable",
      "type": "function"
    },
    {
      "inputs": [
        {
          "internalType": "address",
          "name": "from",
          "type": "address"
        },
        {
          "internalType": "address",
          "name": "to",
          "type": "address"
        },
        {
          "internalType": "uint256",
          "name": "value",
          "type": "uint256"
        }
      ],
      "name": "transferFrom",
      "outputs": [
        {
          "internalType": "bool",
          "name": "",
          "type": "bool"
        }
      ],
      "stateMutability": "nonpayable",
      "type": "function"
    },
    {
      "inputs": [
        {
          "internalType": "uint256",
          "name": "yam",
          "type": "uint256"
        }
      ],
      "name": "yamToFragment",
      "outputs": [
        {
          "internalType": "uint256",
          "name": "",
          "type": "uint256"
        }
      ],
      "stateMutability": "view",
      "type": "function"
    },
    {
      "inputs": [],
      "name": "yamsScalingFactor",
      "outputs": [
        {
          "internalType": "uint256",
          "name": "",
          "type": "uint256"
        }
      ],
      "stateMutability": "view",
      "type": "function"
    }
  ],
  "bytecode": {
    "object": "0x6080604052670de0b6b3a7640000600a5534801561001c57600080fd5b5060068054336001600160a01b0319909116811790915560048054610100600160a81b0319166101009092029190911790556122128061005d6000396000f3fe608060405234801561001057600080fd5b50600436106102745760003560e01c80634bda2e2011610151578063aacffefb116100c3578063dd62ed3e11610087578063dd62ed3e14610595578063dee27b23146105ce578063ec342ad0146105e1578063f18d9b63146105f0578063fa8f345514610603578063fcd3533c1461061657600080fd5b8063aacffefb14610540578063b5bf15e514610553578063b6fa857614610566578063cea9d26f1461056f578063d505accf1461058257600080fd5b80637af548c1116101155780637af548c1146104d65780637ecebe00146104e957806395d89b411461050957806397d63f9314610511578063a457c2d71461051a578063a9059cbb1461052d57600080fd5b80634bda2e201461048457806364dd48f51461048c5780636c9452211461049d57806370a08231146104b057806373f03dff146104c357600080fd5b80632373f091116101ea578063313ce567116101ae578063313ce567146103fa57806334c176b0146104195780633644e5151461042c57806339509351146104355780633af9e6691461044857806340c10f191461047157600080fd5b80632373f0911461038757806323b872dd1461039a57806325240810146103ad57806327810b6e146103c057806330adf81f146103d357600080fd5b806311d3e6c41161023c57806311d3e6c41461030f57806311fd8a831461031757806312d43a511461032a5780631624f6c61461034257806318160ddd1461035757806320606b701461036057600080fd5b8063054f7d9c1461027957806306fdde031461029b57806307546172146102b0578063095ea7b3146102db57806309c86403146102ee575b600080fd5b600e546102869060ff1681565b60405190151581526020015b60405180910390f35b6102a3610629565b6040516102929190611ff6565b6008546102c3906001600160a01b031681565b6040516001600160a01b039091168152602001610292565b6102866102e9366004611d42565b6106b7565b6103016102fc366004611ea7565b610712565b604051908152602001610292565b61030161071d565b6006546102c3906001600160a01b031681565b6004546102c39061010090046001600160a01b031681565b610355610350366004611da6565b61072c565b005b61030160095481565b6103017f8cad95687ba82c2ce50e74f7b754645e5117c3a5bec8151c0726d5857980a86681565b610355610395366004611c4e565b6107dc565b6102866103a8366004611c9c565b610857565b6005546102c3906001600160a01b031681565b6007546102c3906001600160a01b031681565b6103017f6e71edae12b1b97f4d1f60370fef10105fa2faae0126114a169c64845d6126c981565b6004546104079060ff1681565b60405160ff9091168152602001610292565b610355610427366004611c4e565b6109af565b610301600f5481565b610286610443366004611d42565b610a25565b610301610456366004611c4e565b6001600160a01b03166000908152600b602052604090205490565b61028661047f366004611d42565b610abe565b610355610b35565b61030169d3c21bcecceda100000081565b6103556104ab366004611e1a565b610bfb565b6103016104be366004611c4e565b610cd8565b6103556104d1366004611c4e565b610cfa565b6103016104e4366004611f05565b610d70565b6103016104f7366004611c4e565b60006020819052908152604090205481565b6102a3610e91565b610301600d5481565b610286610528366004611d42565b610e9e565b61028661053b366004611d42565b610f99565b61030161054e366004611ee3565b61108e565b610286610561366004611d6c565b611160565b610301600a5481565b61028661057d366004611c9c565b611196565b610355610590366004611cd8565b6111ca565b6103016105a3366004611c69565b6001600160a01b039182166000908152600c6020908152604080832093909416825291909152205490565b6102866105dc366004611c9c565b61146c565b610301670de0b6b3a764000081565b6103016105fe366004611ea7565b6114bf565b610355610611366004611c4e565b6114ca565b610286610624366004611ec0565b611540565b60028054610636906120e9565b80601f0160208091040260200160405190810160405280929190818152602001828054610662906120e9565b80156106af5780601f10610684576101008083540402835291602001916106af565b820191906000526020600020905b81548152906001019060200180831161069257829003601f168201915b505050505081565b336000818152600c602090815260408083206001600160a01b038716808552925280832085905551919290916000805160206121bd833981519152906107009086815260200190565b60405180910390a35060015b92915050565b600061070c82611570565b600061072761158e565b905090565b60045461010090046001600160a01b0316331461074857600080fd5b670de0b6b3a7640000600a541461079c5760405162461bcd60e51b8152602060048201526013602482015272185b1c9958591e481a5b9a5d1a585b1a5e9959606a1b60448201526064015b60405180910390fd5b82516107af906002906020860190611b00565b5081516107c3906003906020850190611b00565b506004805460ff191660ff929092169190911790555050565b60045461010090046001600160a01b031633146107f857600080fd5b600880546001600160a01b0319166001600160a01b03831690811790915560408051828152602081019290925282917f0b5e7be615a67a819aff3f47c967d1535cead1b98db60fafdcbf22dcaa8fa5a991015b60405180910390a15050565b6000826001600160a01b03811661086d57600080fd5b6001600160a01b03811630141561088357600080fd5b600e5460ff16156108a65760405162461bcd60e51b815260040161079390612029565b6001600160a01b0385166000908152600c602090815260408083203384529091529020546108d490846115a0565b6001600160a01b0386166000908152600c6020908152604080832033845290915281209190915561090484611570565b6001600160a01b0387166000908152600b602052604090205490915061092a90826115a0565b6001600160a01b038088166000908152600b6020526040808220939093559087168152205461095990826115ac565b6001600160a01b038087166000818152600b6020526040908190209390935591519088169060008051602061219d8339815191529061099b9088815260200190565b60405180910390a350600195945050505050565b60045461010090046001600160a01b031633146109cb57600080fd5b600780546001600160a01b038381166001600160a01b031983168117909355604080519190921680825260208201939093527fac2c06b3d791902c7614efa70f7dd28e256a2c15bb89b24bfaab6d52423483a8910161084b565b600e5460009060ff1615610a4b5760405162461bcd60e51b815260040161079390612029565b336000908152600c602090815260408083206001600160a01b0387168452909152902054610a7990836115ac565b336000818152600c602090815260408083206001600160a01b038916808552908352928190208590555193845290926000805160206121bd8339815191529101610700565b60045460009061010090046001600160a01b0316331480610ae957506008546001600160a01b031633145b610b225760405162461bcd60e51b815260206004820152600a6024820152693737ba1036b4b73a32b960b11b6044820152606401610793565b610b2c83836115b8565b50600192915050565b6005546001600160a01b03163314610b7a5760405162461bcd60e51b81526020600482015260086024820152672170656e64696e6760c01b6044820152606401610793565b60048054600580546001600160a01b03808216610100908102610100600160a81b0319861617958690556001600160a01b031990921690925560408051938290048316808552919094049091166020830152917f1f14cfc03e486d23acee577b07bc0b3b23f4888c91fcdba5e0fef5a2549d5523910160405180910390a150565b60045461010090046001600160a01b03163314610c1757600080fd5b610c2285858561072c565b670de0b6b3a7640000600a55610c3781611570565b600d81905560098290556001600160a01b0383166000908152600b60205260409081902091909155517f8cad95687ba82c2ce50e74f7b754645e5117c3a5bec8151c0726d5857980a86690610c8e90600290611f5a565b6040805191829003822060208301939093528101919091526003606082015230608082015260a00160408051601f198184030181529190528051602090910120600f555050505050565b6001600160a01b0381166000908152600b602052604081205461070c906116ed565b60045461010090046001600160a01b03163314610d1657600080fd5b600580546001600160a01b038381166001600160a01b031983168117909355604080519190921680825260208201939093527f6163d5b9efd962645dd649e6e48a61bcb0f9df00997a2398b80d135a9ab0c61e910161084b565b6006546000906001600160a01b03163314610d8a57600080fd5b82610dc957600a546040805186815260208101839052808201929092525160008051602061217d8339815191529181900360600190a150600954610e8a565b600a5482610e0157610df9670de0b6b3a7640000610df3610dea82886115a0565b600a5490611712565b9061171e565b600a55610e45565b6000610e1c670de0b6b3a7640000610df3610dea82896115ac565b9050610e2661158e565b811015610e3757600a819055610e43565b610e3f61158e565b600a555b505b610e50600d546116ed565b600955600a546040805187815260208101849052808201929092525160008051602061217d8339815191529181900360600190a150506009545b9392505050565b60038054610636906120e9565b600e5460009060ff1615610ec45760405162461bcd60e51b815260040161079390612029565b336000908152600c602090815260408083206001600160a01b0387168452909152902054808310610f1857336000908152600c602090815260408083206001600160a01b0388168452909152812055610f47565b610f2281846115a0565b336000908152600c602090815260408083206001600160a01b03891684529091529020555b336000818152600c602090815260408083206001600160a01b038916808552908352928190205490519081529192916000805160206121bd833981519152910160405180910390a35060019392505050565b6000826001600160a01b038116610faf57600080fd5b6001600160a01b038116301415610fc557600080fd5b600e5460ff1615610fe85760405162461bcd60e51b815260040161079390612029565b6000610ff384611570565b336000908152600b602052604090205490915061101090826115a0565b336000908152600b6020526040808220929092556001600160a01b0387168152205461103c90826115ac565b6001600160a01b0386166000818152600b602052604090819020929092559051339060008051602061219d8339815191529061107b9088815260200190565b60405180910390a3506001949350505050565b6006546000906001600160a01b031633146110a857600080fd5b600a548214156110ec57600a546040805185815260208101839052808201929092525160008051602061217d8339815191529181900360600190a15060095461070c565b600a54826110f861158e565b81101561110957600a849055611115565b61111161158e565b600a555b611120600d546116ed565b600955600a546040805187815260208101859052808201929092525160008051602061217d8339815191529181900360600190a150506009549392505050565b60045460009061010090046001600160a01b0316331461117f57600080fd5b50600e805460ff191682151517905560015b919050565b60045460009061010090046001600160a01b031633146111b557600080fd5b6111c084848461172a565b5060019392505050565b600e5460ff16156111ed5760405162461bcd60e51b815260040161079390612029565b834211156112325760405162461bcd60e51b81526020600482015260126024820152711650534bdc195c9b5a5d0b595e1c1a5c995960721b6044820152606401610793565b600f546001600160a01b038816600090815260208190526040812080549192917f6e71edae12b1b97f4d1f60370fef10105fa2faae0126114a169c64845d6126c9918b918b918b91908761128583612124565b909155506040805160208101969096526001600160a01b0394851690860152929091166060840152608083015260a082015260c0810187905260e001604051602081830303815290604052805190602001206040516020016112fe92919061190160f01b81526002810192909252602282015260420190565b60408051601f19818403018152919052805160209091012090506001600160a01b0388166113665760405162461bcd60e51b8152602060048201526015602482015274059414d2f696e76616c69642d616464726573732d3605c1b6044820152606401610793565b60408051600081526020810180835283905260ff861691810191909152606081018490526080810183905260019060a0016020604051602081039080840390855afa1580156113b9573d6000803e3d6000fd5b505050602060405103516001600160a01b0316886001600160a01b0316146114185760405162461bcd60e51b81526020600482015260126024820152711650534bda5b9d985b1a590b5c195c9b5a5d60721b6044820152606401610793565b6001600160a01b038881166000818152600c60209081526040808320948c16808452948252918290208a905590518981526000805160206121bd833981519152910160405180910390a35050505050505050565b6000826001600160a01b03811661148257600080fd5b6001600160a01b03811630141561149857600080fd5b60045461010090046001600160a01b031633146114b457600080fd5b600061090484611570565b600061070c826116ed565b60045461010090046001600160a01b031633146114e657600080fd5b600680546001600160a01b038381166001600160a01b031983168117909355604080519190921680825260208201939093527f51f448520e2183de499e224808a409ee01a1f380edb2e8497572320c15030545910161084b565b600e5460009060ff16156115665760405162461bcd60e51b815260040161079390612029565b610b2c8383611781565b600a5460009061070c90610df38469d3c21bcecceda1000000611712565b6000600d546000196107279190612061565b6000610e8a82846120a2565b6000610e8a8284612049565b6009546115c590826115ac565b60095560006115d382611570565b600d549091506115e390826115ac565b600d556115ee61158e565b600a54111561163f5760405162461bcd60e51b815260206004820152601a60248201527f6d6178207363616c696e6720666163746f7220746f6f206c6f770000000000006044820152606401610793565b6001600160a01b0383166000908152600b602052604090205461166290826115ac565b6001600160a01b0384166000818152600b60209081526040918290209390935580519182529181018490527f0f6798a560793a54c3bcfe86a93cde1e73087d944c0ea20544137d4121396885910160405180910390a16040518281526001600160a01b0384169060009060008051602061219d833981519152906020015b60405180910390a3505050565b600061070c69d3c21bcecceda1000000610df3600a548561171290919063ffffffff16565b6000610e8a8284612083565b6000610e8a8284612061565b604080516001600160a01b038416602482015260448082018490528251808303909101815260649091019091526020810180516001600160e01b031663a9059cbb60e01b17905261177c9084906118a1565b505050565b60095461178e90836115a0565b600955600061179c83611570565b600d549091506117ac90826115a0565b600d556117b761158e565b600a5411156118085760405162461bcd60e51b815260206004820152601a60248201527f6d6178207363616c696e6720666163746f7220746f6f206c6f770000000000006044820152606401610793565b336000908152600b602052604090205461182290826115a0565b336000818152600b60209081526040918290209390935580519182529181018590526001600160a01b0384168183015290517fdbdf9b8e4b75e75b162d151ec8fc7f0561cabab5fcccfa2600be62223e4300c49181900360600190a1604051838152600090339060008051602061219d833981519152906020016116e0565b60006118f6826040518060400160405280602081526020017f5361666545524332303a206c6f772d6c6576656c2063616c6c206661696c6564815250856001600160a01b03166119739092919063ffffffff16565b80519091501561177c57808060200190518101906119149190611d89565b61177c5760405162461bcd60e51b815260206004820152602a60248201527f5361666545524332303a204552433230206f7065726174696f6e20646964206e6044820152691bdd081cdd58d8d9595960b21b6064820152608401610793565b6060611982848460008561198a565b949350505050565b6060824710156119eb5760405162461bcd60e51b815260206004820152602660248201527f416464726573733a20696e73756666696369656e742062616c616e636520666f6044820152651c8818d85b1b60d21b6064820152608401610793565b600080866001600160a01b03168587604051611a079190611f3e565b60006040518083038185875af1925050503d8060008114611a44576040519150601f19603f3d011682016040523d82523d6000602084013e611a49565b606091505b5091509150611a5a87838387611a65565b979650505050505050565b60608315611ad1578251611aca576001600160a01b0385163b611aca5760405162461bcd60e51b815260206004820152601d60248201527f416464726573733a2063616c6c20746f206e6f6e2d636f6e74726163740000006044820152606401610793565b5081611982565b6119828383815115611ae65781518083602001fd5b8060405162461bcd60e51b81526004016107939190611ff6565b828054611b0c906120e9565b90600052602060002090601f016020900481019282611b2e5760008555611b74565b82601f10611b4757805160ff1916838001178555611b74565b82800160010185558215611b74579182015b82811115611b74578251825591602001919060010190611b59565b50611b80929150611b84565b5090565b5b80821115611b805760008155600101611b85565b80356001600160a01b038116811461119157600080fd5b600082601f830112611bc157600080fd5b813567ffffffffffffffff80821115611bdc57611bdc612155565b604051601f8301601f19908116603f01168101908282118183101715611c0457611c04612155565b81604052838152866020858801011115611c1d57600080fd5b836020870160208301376000602085830101528094505050505092915050565b803560ff8116811461119157600080fd5b600060208284031215611c6057600080fd5b610e8a82611b99565b60008060408385031215611c7c57600080fd5b611c8583611b99565b9150611c9360208401611b99565b90509250929050565b600080600060608486031215611cb157600080fd5b611cba84611b99565b9250611cc860208501611b99565b9150604084013590509250925092565b600080600080600080600060e0888a031215611cf357600080fd5b611cfc88611b99565b9650611d0a60208901611b99565b95506040880135945060608801359350611d2660808901611c3d565b925060a0880135915060c0880135905092959891949750929550565b60008060408385031215611d5557600080fd5b611d5e83611b99565b946020939093013593505050565b600060208284031215611d7e57600080fd5b8135610e8a8161216b565b600060208284031215611d9b57600080fd5b8151610e8a8161216b565b600080600060608486031215611dbb57600080fd5b833567ffffffffffffffff80821115611dd357600080fd5b611ddf87838801611bb0565b94506020860135915080821115611df557600080fd5b50611e0286828701611bb0565b925050611e1160408501611c3d565b90509250925092565b600080600080600060a08688031215611e3257600080fd5b853567ffffffffffffffff80821115611e4a57600080fd5b611e5689838a01611bb0565b96506020880135915080821115611e6c57600080fd5b50611e7988828901611bb0565b945050611e8860408701611c3d565b9250611e9660608701611b99565b949793965091946080013592915050565b600060208284031215611eb957600080fd5b5035919050565b60008060408385031215611ed357600080fd5b82359150611c9360208401611b99565b60008060408385031215611ef657600080fd5b50508035926020909101359150565b600080600060608486031215611f1a57600080fd5b83359250602084013591506040840135611f338161216b565b809150509250925092565b60008251611f508184602087016120b9565b9190910192915050565b600080835481600182811c915080831680611f7657607f831692505b6020808410821415611f9657634e487b7160e01b86526022600452602486fd5b818015611faa5760018114611fbb57611fe8565b60ff19861689528489019650611fe8565b60008a81526020902060005b86811015611fe05781548b820152908501908301611fc7565b505084890196505b509498975050505050505050565b60208152600082518060208401526120158160408501602087016120b9565b601f01601f19169190910160400192915050565b602080825260069082015265333937bd32b760d11b604082015260600190565b6000821982111561205c5761205c61213f565b500190565b60008261207e57634e487b7160e01b600052601260045260246000fd5b500490565b600081600019048311821515161561209d5761209d61213f565b500290565b6000828210156120b4576120b461213f565b500390565b60005b838110156120d45781810151838201526020016120bc565b838111156120e3576000848401525b50505050565b600181811c908216806120fd57607f821691505b6020821081141561211e57634e487b7160e01b600052602260045260246000fd5b50919050565b60006000198214156121385761213861213f565b5060010190565b634e487b7160e01b600052601160045260246000fd5b634e487b7160e01b600052604160045260246000fd5b801515811461217957600080fd5b5056fec6642d24d84e7f3d36ca39f5cce10e75639d9b158d5193aa350e2f900653e4c0ddf252ad1be2c89b69c2b068fc378daa952ba7f163c4a11628f55a4df523b3ef8c5be1e5ebec7d5bd14f71427d1e84f3dd0314c0f7b2291e5b200ac8c7c3b925a2646970667358221220b44e39b22ad6b03ba7e1008171b911d4f9ac60bcd7f564ab9c77559b4cd394da64736f6c63430008070033",
    "linkReferences": {}
  },
  "methodIdentifiers": {
    "BASE()": "ec342ad0",
    "DOMAIN_SEPARATOR()": "3644e515",
    "DOMAIN_TYPEHASH()": "20606b70",
    "PERMIT_TYPEHASH()": "30adf81f",
    "_acceptGov()": "4bda2e20",
    "_setBurner(address)": "34c176b0",
    "_setMinter(address)": "2373f091",
    "_setPendingGov(address)": "73f03dff",
    "_setRebaser(address)": "fa8f3455",
    "allowance(address,address)": "dd62ed3e",
    "approve(address,uint256)": "095ea7b3",
    "balanceOf(address)": "70a08231",
    "balanceOfUnderlying(address)": "3af9e669",
    "burn(uint256,address)": "fcd3533c",
    "burner()": "27810b6e",
    "decimals()": "313ce567",
    "decreaseAllowance(address,uint256)": "a457c2d7",
    "fragmentToYam(uint256)": "09c86403",
    "freeze(bool)": "b5bf15e5",
    "frozen()": "054f7d9c",
    "gov()": "12d43a51",
    "govTransferFrom(address,address,uint256)": "dee27b23",
    "increaseAllowance(address,uint256)": "39509351",
    "initSupply()": "97d63f93",
    "initialize(string,string,uint8)": "1624f6c6",
    "initialize(string,string,uint8,address,uint256)": "6c945221",
    "internalDecimals()": "64dd48f5",
    "maxScalingFactor()": "11d3e6c4",
    "mint(address,uint256)": "40c10f19",
    "minter()": "07546172",
    "name()": "06fdde03",
    "nonces(address)": "7ecebe00",
    "pendingGov()": "25240810",
    "permit(address,address,uint256,uint256,uint8,bytes32,bytes32)": "d505accf",
    "rebase(uint256,uint256,bool)": "7af548c1",
    "rebaser()": "11fd8a83",
    "rescueTokens(address,address,uint256)": "cea9d26f",
    "setRebase(uint256,uint256)": "aacffefb",
    "symbol()": "95d89b41",
    "totalSupply()": "18160ddd",
    "transfer(address,uint256)": "a9059cbb",
    "transferFrom(address,address,uint256)": "23b872dd",
    "yamToFragment(uint256)": "f18d9b63",
    "yamsScalingFactor()": "b6fa8576"
  },
  "id": 53
}