{
  "abi": [
    {
      "inputs": [
        {
          "internalType": "uint256",
          "name": "executeClaimAmt",
          "type": "uint256"
        },
        {
          "internalType": "address",
          "name": "flip_",
          "type": "address"
        }
      ],
      "stateMutability": "nonpayable",
      "type": "constructor"
    },
    {
      "inputs": [],
      "name": "a",
      "outputs": [
        {
          "internalType": "uint256",
          "name": "",
          "type": "uint256"
        }
      ],
      "stateMutability": "view",
      "type": "function"
    },
    {
      "inputs": [
        {
          "internalType": "bytes32",
          "name": "nodeID",
          "type": "bytes32"
        }
      ],
      "name": "executeClaim",
      "outputs": [],
      "stateMutability": "nonpayable",
      "type": "function"
    },
    {
      "inputs": [],
      "name": "flip",
      "outputs": [
        {
          "internalType": "contract stFlip",
          "name": "",
          "type": "address"
        }
      ],
      "stateMutability": "view",
      "type": "function"
    }
  ],
  "bytecode": {
    "object": "0x608060405234801561001057600080fd5b5060405161024b38038061024b83398101604081905261002f91610059565b600091909155600180546001600160a01b0319166001600160a01b03909216919091179055610096565b6000806040838503121561006c57600080fd5b825160208401519092506001600160a01b038116811461008b57600080fd5b809150509250929050565b6101a6806100a56000396000f3fe608060405234801561001057600080fd5b50600436106100415760003560e01c80630dbe671f14610046578063b432b06114610062578063cde4efa914610077575b600080fd5b61004f60005481565b6040519081526020015b60405180910390f35b610075610070366004610157565b6100a2565b005b60015461008a906001600160a01b031681565b6040516001600160a01b039091168152602001610059565b6001546000546040516340c10f1960e01b815233600482015260248101919091526001600160a01b03909116906340c10f1990604401602060405180830381600087803b1580156100f257600080fd5b505af1158015610106573d6000803e3d6000fd5b505050506040513d601f19601f8201168201806040525081019061012a919061012e565b5050565b60006020828403121561014057600080fd5b8151801515811461015057600080fd5b9392505050565b60006020828403121561016957600080fd5b503591905056fea264697066735822122057e09863fa6896d186a3e6a1e89b7394c1733cde830fdab51ddc9328c057eb2f64736f6c63430008070033",
    "linkReferences": {}
  },
  "methodIdentifiers": {
    "a()": "0dbe671f",
    "executeClaim(bytes32)": "b432b061",
    "flip()": "cde4efa9"
  },
  "id": 62
}